{
  "_format": "hh-sol-artifact-1",
  "contractName": "NikolaToken",
  "sourceName": "contracts/NikolaToken.sol",
  "abi": [
    {
      "inputs": [],
      "name": "getBalance",
      "outputs": [
        {
          "internalType": "uint256",
          "name": "",
          "type": "uint256"
        }
      ],
      "stateMutability": "view",
      "type": "function"
    },
    {
      "inputs": [],
      "name": "getRemainingAmountOfTokens",
      "outputs": [
        {
          "internalType": "uint256",
          "name": "",
          "type": "uint256"
        }
      ],
      "stateMutability": "view",
      "type": "function"
    },
    {
      "inputs": [],
      "name": "getTokenValueInEthers",
      "outputs": [
        {
          "internalType": "uint256",
          "name": "",
          "type": "uint256"
        }
      ],
      "stateMutability": "view",
      "type": "function"
    }
  ],
  "bytecode": "0x6080604052633b9aca00600155738626f6940e2eb28930efb4cef49b2d1f2c9c1199600260006101000a81548173ffffffffffffffffffffffffffffffffffffffff021916908373ffffffffffffffffffffffffffffffffffffffff16021790555034801561006d57600080fd5b5060016000819055506101cf806100856000396000f3fe608060405234801561001057600080fd5b50600436106100415760003560e01c80630a8f08c31461004657806312065fe014610064578063d5be47e914610082575b600080fd5b61004e6100a0565b60405161005b9190610114565b60405180910390f35b61006c6100aa565b6040516100799190610114565b60405180910390f35b61008a6100b2565b6040516100979190610114565b60405180910390f35b6000600154905090565b600047905090565b600080600260009054906101000a900473ffffffffffffffffffffffffffffffffffffffff1673ffffffffffffffffffffffffffffffffffffffff16319050600154816100ff919061012f565b91505090565b61010e81610160565b82525050565b60006020820190506101296000830184610105565b92915050565b600061013a82610160565b915061014583610160565b9250826101555761015461016a565b5b828204905092915050565b6000819050919050565b7f4e487b7100000000000000000000000000000000000000000000000000000000600052601260045260246000fdfea2646970667358221220a4da21b57f2628907a40415bddb75ff326d6d22387e1e5362e83af733b47604964736f6c63430008040033",
  "linkReferences": {},
  "deployedLinkReferences": {}
}