{
  "_format": "hh-sol-artifact-1",
  "contractName": "NikolaToken",
  "sourceName": "contracts/NikolaToken.sol",
  "abi": [
    {
      "stateMutability": "payable",
      "type": "fallback"
    },
    {
      "inputs": [],
      "name": "getBalance",
      "outputs": [
        {
          "internalType": "uint256",
          "name": "",
          "type": "uint256"
        }
      ],
      "stateMutability": "view",
      "type": "function"
    },
    {
      "inputs": [],
      "name": "getRemainingAmountOfTokens",
      "outputs": [
        {
          "internalType": "uint256",
          "name": "",
          "type": "uint256"
        }
      ],
      "stateMutability": "view",
      "type": "function"
    },
    {
      "inputs": [],
      "name": "getTokenValueInEthers",
      "outputs": [
        {
          "internalType": "uint256",
          "name": "",
          "type": "uint256"
        }
      ],
      "stateMutability": "view",
      "type": "function"
    },
    {
      "stateMutability": "payable",
      "type": "receive"
    }
  ],
  "bytecode": "0x6080604052633b9aca00600155738626f6940e2eb28930efb4cef49b2d1f2c9c1199600260006101000a81548173ffffffffffffffffffffffffffffffffffffffff021916908373ffffffffffffffffffffffffffffffffffffffff16021790555034801561006d57600080fd5b5060016000819055506101f1806100856000396000f3fe6080604052600436106100385760003560e01c80630a8f08c31461004157806312065fe01461006c578063d5be47e9146100975761003f565b3661003f57005b005b34801561004d57600080fd5b506100566100c2565b6040516100639190610136565b60405180910390f35b34801561007857600080fd5b506100816100cc565b60405161008e9190610136565b60405180910390f35b3480156100a357600080fd5b506100ac6100d4565b6040516100b99190610136565b60405180910390f35b6000600154905090565b600047905090565b600080600260009054906101000a900473ffffffffffffffffffffffffffffffffffffffff1673ffffffffffffffffffffffffffffffffffffffff16319050600154816101219190610151565b91505090565b61013081610182565b82525050565b600060208201905061014b6000830184610127565b92915050565b600061015c82610182565b915061016783610182565b9250826101775761017661018c565b5b828204905092915050565b6000819050919050565b7f4e487b7100000000000000000000000000000000000000000000000000000000600052601260045260246000fdfea2646970667358221220f86e111da8c30d3333a24fbc92f770575ce629a928f318e21d79613bba41aba864736f6c63430008040033",
  "linkReferences": {},
  "deployedLinkReferences": {}
}