{
  "_format": "hh-sol-artifact-1",
  "contractName": "NFTMarket",
  "sourceName": "contracts/NFTMarket.sol",
  "abi": [
    {
      "inputs": [],
      "stateMutability": "nonpayable",
      "type": "constructor"
    },
    {
      "anonymous": false,
      "inputs": [
        {
          "indexed": true,
          "internalType": "uint256",
          "name": "itemId",
          "type": "uint256"
        },
        {
          "indexed": true,
          "internalType": "address",
          "name": "nftContract",
          "type": "address"
        },
        {
          "indexed": true,
          "internalType": "uint256",
          "name": "tokenId",
          "type": "uint256"
        },
        {
          "indexed": false,
          "internalType": "address payable",
          "name": "seller",
          "type": "address"
        },
        {
          "indexed": false,
          "internalType": "address payable",
          "name": "owner",
          "type": "address"
        },
        {
          "indexed": false,
          "internalType": "address",
          "name": "creator",
          "type": "address"
        },
        {
          "indexed": false,
          "internalType": "uint256",
          "name": "price",
          "type": "uint256"
        },
        {
          "indexed": false,
          "internalType": "bool",
          "name": "sold",
          "type": "bool"
        }
      ],
      "name": "MarketItemCreated",
      "type": "event"
    },
    {
      "inputs": [
        {
          "internalType": "address",
          "name": "nftContract",
          "type": "address"
        },
        {
          "internalType": "uint256",
          "name": "tokenId",
          "type": "uint256"
        },
        {
          "internalType": "uint256",
          "name": "price",
          "type": "uint256"
        }
      ],
      "name": "createMarketItem",
      "outputs": [],
      "stateMutability": "payable",
      "type": "function"
    },
    {
      "inputs": [
        {
          "internalType": "address",
          "name": "nftContract",
          "type": "address"
        },
        {
          "internalType": "uint256",
          "name": "itemId",
          "type": "uint256"
        }
      ],
      "name": "createMarketSale",
      "outputs": [],
      "stateMutability": "payable",
      "type": "function"
    },
    {
      "inputs": [
        {
          "internalType": "address",
          "name": "signerAddress",
          "type": "address"
        }
      ],
      "name": "fetchCreatedItems",
      "outputs": [
        {
          "components": [
            {
              "internalType": "uint256",
              "name": "itemId",
              "type": "uint256"
            },
            {
              "internalType": "address",
              "name": "nftContract",
              "type": "address"
            },
            {
              "internalType": "uint256",
              "name": "tokenId",
              "type": "uint256"
            },
            {
              "internalType": "address payable",
              "name": "seller",
              "type": "address"
            },
            {
              "internalType": "address payable",
              "name": "owner",
              "type": "address"
            },
            {
              "internalType": "address",
              "name": "creator",
              "type": "address"
            },
            {
              "internalType": "uint256",
              "name": "price",
              "type": "uint256"
            },
            {
              "internalType": "bool",
              "name": "sold",
              "type": "bool"
            }
          ],
          "internalType": "struct NFTMarket.MarketItem[]",
          "name": "",
          "type": "tuple[]"
        }
      ],
      "stateMutability": "view",
      "type": "function"
    },
    {
      "inputs": [
        {
          "internalType": "address",
          "name": "signerAddress",
          "type": "address"
        }
      ],
      "name": "fetchMarketItems",
      "outputs": [
        {
          "components": [
            {
              "internalType": "uint256",
              "name": "itemId",
              "type": "uint256"
            },
            {
              "internalType": "address",
              "name": "nftContract",
              "type": "address"
            },
            {
              "internalType": "uint256",
              "name": "tokenId",
              "type": "uint256"
            },
            {
              "internalType": "address payable",
              "name": "seller",
              "type": "address"
            },
            {
              "internalType": "address payable",
              "name": "owner",
              "type": "address"
            },
            {
              "internalType": "address",
              "name": "creator",
              "type": "address"
            },
            {
              "internalType": "uint256",
              "name": "price",
              "type": "uint256"
            },
            {
              "internalType": "bool",
              "name": "sold",
              "type": "bool"
            }
          ],
          "internalType": "struct NFTMarket.MarketItem[]",
          "name": "",
          "type": "tuple[]"
        }
      ],
      "stateMutability": "view",
      "type": "function"
    },
    {
      "inputs": [
        {
          "internalType": "address",
          "name": "signerAddress",
          "type": "address"
        }
      ],
      "name": "fetchMyNFTs",
      "outputs": [
        {
          "components": [
            {
              "internalType": "uint256",
              "name": "itemId",
              "type": "uint256"
            },
            {
              "internalType": "address",
              "name": "nftContract",
              "type": "address"
            },
            {
              "internalType": "uint256",
              "name": "tokenId",
              "type": "uint256"
            },
            {
              "internalType": "address payable",
              "name": "seller",
              "type": "address"
            },
            {
              "internalType": "address payable",
              "name": "owner",
              "type": "address"
            },
            {
              "internalType": "address",
              "name": "creator",
              "type": "address"
            },
            {
              "internalType": "uint256",
              "name": "price",
              "type": "uint256"
            },
            {
              "internalType": "bool",
              "name": "sold",
              "type": "bool"
            }
          ],
          "internalType": "struct NFTMarket.MarketItem[]",
          "name": "",
          "type": "tuple[]"
        }
      ],
      "stateMutability": "view",
      "type": "function"
    },
    {
      "inputs": [
        {
          "internalType": "uint256",
          "name": "itemId",
          "type": "uint256"
        }
      ],
      "name": "fetchNFT",
      "outputs": [
        {
          "components": [
            {
              "internalType": "uint256",
              "name": "itemId",
              "type": "uint256"
            },
            {
              "internalType": "address",
              "name": "nftContract",
              "type": "address"
            },
            {
              "internalType": "uint256",
              "name": "tokenId",
              "type": "uint256"
            },
            {
              "internalType": "address payable",
              "name": "seller",
              "type": "address"
            },
            {
              "internalType": "address payable",
              "name": "owner",
              "type": "address"
            },
            {
              "internalType": "address",
              "name": "creator",
              "type": "address"
            },
            {
              "internalType": "uint256",
              "name": "price",
              "type": "uint256"
            },
            {
              "internalType": "bool",
              "name": "sold",
              "type": "bool"
            }
          ],
          "internalType": "struct NFTMarket.MarketItem",
          "name": "",
          "type": "tuple"
        }
      ],
      "stateMutability": "view",
      "type": "function"
    },
    {
      "inputs": [
        {
          "internalType": "address",
          "name": "signerAddress",
          "type": "address"
        }
      ],
      "name": "fetchSoldItems",
      "outputs": [
        {
          "components": [
            {
              "internalType": "uint256",
              "name": "itemId",
              "type": "uint256"
            },
            {
              "internalType": "address",
              "name": "nftContract",
              "type": "address"
            },
            {
              "internalType": "uint256",
              "name": "tokenId",
              "type": "uint256"
            },
            {
              "internalType": "address payable",
              "name": "seller",
              "type": "address"
            },
            {
              "internalType": "address payable",
              "name": "owner",
              "type": "address"
            },
            {
              "internalType": "address",
              "name": "creator",
              "type": "address"
            },
            {
              "internalType": "uint256",
              "name": "price",
              "type": "uint256"
            },
            {
              "internalType": "bool",
              "name": "sold",
              "type": "bool"
            }
          ],
          "internalType": "struct NFTMarket.MarketItem[]",
          "name": "",
          "type": "tuple[]"
        }
      ],
      "stateMutability": "view",
      "type": "function"
    },
    {
      "inputs": [],
      "name": "getListingPrice",
      "outputs": [
        {
          "internalType": "uint256",
          "name": "",
          "type": "uint256"
        }
      ],
      "stateMutability": "view",
      "type": "function"
    }
  ],
  "bytecode": "0x60806040526658d15e1762800060045534801561001b57600080fd5b50600160008190555033600360006101000a81548173ffffffffffffffffffffffffffffffffffffffff021916908373ffffffffffffffffffffffffffffffffffffffff1602179055506127db806100746000396000f3fe60806040526004361061007b5760003560e01c806364a37ccc1161004e57806364a37ccc14610141578063b4cfb07f1461017e578063c23b139e146101bb578063deb1250d146101d75761007b565b806310afee1e1461008057806312e85585146100bd5780631f10e57a146100e857806358eb2df514610125575b600080fd5b34801561008c57600080fd5b506100a760048036038101906100a29190611f23565b610214565b6040516100b4919061238f565b60405180910390f35b3480156100c957600080fd5b506100d261061d565b6040516100df91906124a8565b60405180910390f35b3480156100f457600080fd5b5061010f600480360381019061010a9190611f23565b610627565b60405161011c919061238f565b60405180910390f35b61013f600480360381019061013a9190611f88565b610b98565b005b34801561014d57600080fd5b5061016860048036038101906101639190611f23565b610f62565b604051610175919061238f565b60405180910390f35b34801561018a57600080fd5b506101a560048036038101906101a09190611f23565b6113db565b6040516101b2919061238f565b60405180910390f35b6101d560048036038101906101d09190611f4c565b6117e4565b005b3480156101e357600080fd5b506101fe60048036038101906101f99190611fd7565b611a9d565b60405161020b919061248c565b60405180910390f35b606060006102226001611d74565b905060008060005b838110156102cb578573ffffffffffffffffffffffffffffffffffffffff166005600060018461025a919061250d565b815260200190815260200160002060040160009054906101000a900473ffffffffffffffffffffffffffffffffffffffff1673ffffffffffffffffffffffffffffffffffffffff1614156102b8576001836102b5919061250d565b92505b80806102c3906125bd565b91505061022a565b5060008267ffffffffffffffff81111561030e577f4e487b7100000000000000000000000000000000000000000000000000000000600052604160045260246000fd5b60405190808252806020026020018201604052801561034757816020015b610334611e5a565b81526020019060019003908161032c5790505b50905060005b84811015610610578673ffffffffffffffffffffffffffffffffffffffff166005600060018461037d919061250d565b815260200190815260200160002060040160009054906101000a900473ffffffffffffffffffffffffffffffffffffffff1673ffffffffffffffffffffffffffffffffffffffff1614156105fd576000600560006001846103de919061250d565b815260200190815260200160002060000154905060006005600083815260200190815260200160002090508060405180610100016040529081600082015481526020016001820160009054906101000a900473ffffffffffffffffffffffffffffffffffffffff1673ffffffffffffffffffffffffffffffffffffffff1673ffffffffffffffffffffffffffffffffffffffff168152602001600282015481526020016003820160009054906101000a900473ffffffffffffffffffffffffffffffffffffffff1673ffffffffffffffffffffffffffffffffffffffff1673ffffffffffffffffffffffffffffffffffffffff1681526020016004820160009054906101000a900473ffffffffffffffffffffffffffffffffffffffff1673ffffffffffffffffffffffffffffffffffffffff1673ffffffffffffffffffffffffffffffffffffffff1681526020016005820160009054906101000a900473ffffffffffffffffffffffffffffffffffffffff1673ffffffffffffffffffffffffffffffffffffffff1673ffffffffffffffffffffffffffffffffffffffff168152602001600682015481526020016007820160009054906101000a900460ff1615151515815250508486815181106105e0577f4e487b7100000000000000000000000000000000000000000000000000000000600052603260045260246000fd5b60200260200101819052506001856105f8919061250d565b945050505b8080610608906125bd565b91505061034d565b5080945050505050919050565b6000600454905090565b606060006106356001611d74565b905060008060005b8381101561079257600073ffffffffffffffffffffffffffffffffffffffff166005600060018461066e919061250d565b815260200190815260200160002060040160009054906101000a900473ffffffffffffffffffffffffffffffffffffffff1673ffffffffffffffffffffffffffffffffffffffff1614801561073157508573ffffffffffffffffffffffffffffffffffffffff16600560006001846106e6919061250d565b815260200190815260200160002060050160009054906101000a900473ffffffffffffffffffffffffffffffffffffffff1673ffffffffffffffffffffffffffffffffffffffff1614155b801561076a575060056000600183610749919061250d565b815260200190815260200160002060070160009054906101000a900460ff16155b1561077f5760018361077c919061250d565b92505b808061078a906125bd565b91505061063d565b5060008267ffffffffffffffff8111156107d5577f4e487b7100000000000000000000000000000000000000000000000000000000600052604160045260246000fd5b60405190808252806020026020018201604052801561080e57816020015b6107fb611e5a565b8152602001906001900390816107f35790505b50905060005b84811015610b8b57600073ffffffffffffffffffffffffffffffffffffffff1660056000600184610845919061250d565b815260200190815260200160002060040160009054906101000a900473ffffffffffffffffffffffffffffffffffffffff1673ffffffffffffffffffffffffffffffffffffffff1614801561090857508673ffffffffffffffffffffffffffffffffffffffff16600560006001846108bd919061250d565b815260200190815260200160002060050160009054906101000a900473ffffffffffffffffffffffffffffffffffffffff1673ffffffffffffffffffffffffffffffffffffffff1614155b8015610941575060056000600183610920919061250d565b815260200190815260200160002060070160009054906101000a900460ff16155b15610b7857600060056000600184610959919061250d565b815260200190815260200160002060000154905060006005600083815260200190815260200160002090508060405180610100016040529081600082015481526020016001820160009054906101000a900473ffffffffffffffffffffffffffffffffffffffff1673ffffffffffffffffffffffffffffffffffffffff1673ffffffffffffffffffffffffffffffffffffffff168152602001600282015481526020016003820160009054906101000a900473ffffffffffffffffffffffffffffffffffffffff1673ffffffffffffffffffffffffffffffffffffffff1673ffffffffffffffffffffffffffffffffffffffff1681526020016004820160009054906101000a900473ffffffffffffffffffffffffffffffffffffffff1673ffffffffffffffffffffffffffffffffffffffff1673ffffffffffffffffffffffffffffffffffffffff1681526020016005820160009054906101000a900473ffffffffffffffffffffffffffffffffffffffff1673ffffffffffffffffffffffffffffffffffffffff1673ffffffffffffffffffffffffffffffffffffffff168152602001600682015481526020016007820160009054906101000a900460ff161515151581525050848681518110610b5b577f4e487b7100000000000000000000000000000000000000000000000000000000600052603260045260246000fd5b6020026020010181905250600185610b73919061250d565b945050505b8080610b83906125bd565b915050610814565b5080945050505050919050565b60026000541415610bde576040517f08c379a0000000000000000000000000000000000000000000000000000000008152600401610bd59061244c565b60405180910390fd5b600260008190555060008111610c29576040517f08c379a0000000000000000000000000000000000000000000000000000000008152600401610c209061246c565b60405180910390fd5b6004543414610c6d576040517f08c379a0000000000000000000000000000000000000000000000000000000008152600401610c649061242c565b60405180910390fd5b610c776001611d82565b6000610c836001611d74565b90506040518061010001604052808281526020018573ffffffffffffffffffffffffffffffffffffffff1681526020018481526020013373ffffffffffffffffffffffffffffffffffffffff168152602001600073ffffffffffffffffffffffffffffffffffffffff1681526020013373ffffffffffffffffffffffffffffffffffffffff16815260200183815260200160001515815250600560008381526020019081526020016000206000820151816000015560208201518160010160006101000a81548173ffffffffffffffffffffffffffffffffffffffff021916908373ffffffffffffffffffffffffffffffffffffffff1602179055506040820151816002015560608201518160030160006101000a81548173ffffffffffffffffffffffffffffffffffffffff021916908373ffffffffffffffffffffffffffffffffffffffff16021790555060808201518160040160006101000a81548173ffffffffffffffffffffffffffffffffffffffff021916908373ffffffffffffffffffffffffffffffffffffffff16021790555060a08201518160050160006101000a81548173ffffffffffffffffffffffffffffffffffffffff021916908373ffffffffffffffffffffffffffffffffffffffff16021790555060c0820151816006015560e08201518160070160006101000a81548160ff0219169083151502179055509050508373ffffffffffffffffffffffffffffffffffffffff166323b872dd3330866040518463ffffffff1660e01b8152600401610ec893929190612358565b600060405180830381600087803b158015610ee257600080fd5b505af1158015610ef6573d6000803e3d6000fd5b50505050828473ffffffffffffffffffffffffffffffffffffffff16827ff6a6e998cdb71a54614f951c87c07828d557c9d2d501f61d4183e344a06445c533600033886000604051610f4c959493929190612305565b60405180910390a4506001600081905550505050565b60606000610f706001611d74565b905060008060005b83811015611051578573ffffffffffffffffffffffffffffffffffffffff1660056000600184610fa8919061250d565b815260200190815260200160002060050160009054906101000a900473ffffffffffffffffffffffffffffffffffffffff1673ffffffffffffffffffffffffffffffffffffffff16148015611029575060056000600183611009919061250d565b815260200190815260200160002060070160009054906101000a900460ff165b1561103e5760018361103b919061250d565b92505b8080611049906125bd565b915050610f78565b5060008267ffffffffffffffff811115611094577f4e487b7100000000000000000000000000000000000000000000000000000000600052604160045260246000fd5b6040519080825280602002602001820160405280156110cd57816020015b6110ba611e5a565b8152602001906001900390816110b25790505b50905060005b848110156113ce578673ffffffffffffffffffffffffffffffffffffffff1660056000600184611103919061250d565b815260200190815260200160002060050160009054906101000a900473ffffffffffffffffffffffffffffffffffffffff1673ffffffffffffffffffffffffffffffffffffffff16148015611184575060056000600183611164919061250d565b815260200190815260200160002060070160009054906101000a900460ff165b156113bb5760006005600060018461119c919061250d565b815260200190815260200160002060000154905060006005600083815260200190815260200160002090508060405180610100016040529081600082015481526020016001820160009054906101000a900473ffffffffffffffffffffffffffffffffffffffff1673ffffffffffffffffffffffffffffffffffffffff1673ffffffffffffffffffffffffffffffffffffffff168152602001600282015481526020016003820160009054906101000a900473ffffffffffffffffffffffffffffffffffffffff1673ffffffffffffffffffffffffffffffffffffffff1673ffffffffffffffffffffffffffffffffffffffff1681526020016004820160009054906101000a900473ffffffffffffffffffffffffffffffffffffffff1673ffffffffffffffffffffffffffffffffffffffff1673ffffffffffffffffffffffffffffffffffffffff1681526020016005820160009054906101000a900473ffffffffffffffffffffffffffffffffffffffff1673ffffffffffffffffffffffffffffffffffffffff1673ffffffffffffffffffffffffffffffffffffffff168152602001600682015481526020016007820160009054906101000a900460ff16151515158152505084868151811061139e577f4e487b7100000000000000000000000000000000000000000000000000000000600052603260045260246000fd5b60200260200101819052506001856113b6919061250d565b945050505b80806113c6906125bd565b9150506110d3565b5080945050505050919050565b606060006113e96001611d74565b905060008060005b83811015611492578573ffffffffffffffffffffffffffffffffffffffff1660056000600184611421919061250d565b815260200190815260200160002060050160009054906101000a900473ffffffffffffffffffffffffffffffffffffffff1673ffffffffffffffffffffffffffffffffffffffff16141561147f5760018361147c919061250d565b92505b808061148a906125bd565b9150506113f1565b5060008267ffffffffffffffff8111156114d5577f4e487b7100000000000000000000000000000000000000000000000000000000600052604160045260246000fd5b60405190808252806020026020018201604052801561150e57816020015b6114fb611e5a565b8152602001906001900390816114f35790505b50905060005b848110156117d7578673ffffffffffffffffffffffffffffffffffffffff1660056000600184611544919061250d565b815260200190815260200160002060050160009054906101000a900473ffffffffffffffffffffffffffffffffffffffff1673ffffffffffffffffffffffffffffffffffffffff1614156117c4576000600560006001846115a5919061250d565b815260200190815260200160002060000154905060006005600083815260200190815260200160002090508060405180610100016040529081600082015481526020016001820160009054906101000a900473ffffffffffffffffffffffffffffffffffffffff1673ffffffffffffffffffffffffffffffffffffffff1673ffffffffffffffffffffffffffffffffffffffff168152602001600282015481526020016003820160009054906101000a900473ffffffffffffffffffffffffffffffffffffffff1673ffffffffffffffffffffffffffffffffffffffff1673ffffffffffffffffffffffffffffffffffffffff1681526020016004820160009054906101000a900473ffffffffffffffffffffffffffffffffffffffff1673ffffffffffffffffffffffffffffffffffffffff1673ffffffffffffffffffffffffffffffffffffffff1681526020016005820160009054906101000a900473ffffffffffffffffffffffffffffffffffffffff1673ffffffffffffffffffffffffffffffffffffffff1673ffffffffffffffffffffffffffffffffffffffff168152602001600682015481526020016007820160009054906101000a900460ff1615151515815250508486815181106117a7577f4e487b7100000000000000000000000000000000000000000000000000000000600052603260045260246000fd5b60200260200101819052506001856117bf919061250d565b945050505b80806117cf906125bd565b915050611514565b5080945050505050919050565b6002600054141561182a576040517f08c379a00000000000000000000000000000000000000000000000000000000081526004016118219061244c565b60405180910390fd5b60026000819055506000600560008381526020019081526020016000206006015490506000600560008481526020019081526020016000206002015490508134146118aa576040517f08c379a00000000000000000000000000000000000000000000000000000000081526004016118a1906123ec565b60405180910390fd5b6005600084815260200190815260200160002060030160009054906101000a900473ffffffffffffffffffffffffffffffffffffffff1673ffffffffffffffffffffffffffffffffffffffff166108fc349081150290604051600060405180830381858888f19350505050158015611926573d6000803e3d6000fd5b508373ffffffffffffffffffffffffffffffffffffffff166323b872dd3033846040518463ffffffff1660e01b815260040161196493929190612358565b600060405180830381600087803b15801561197e57600080fd5b505af1158015611992573d6000803e3d6000fd5b50505050336005600085815260200190815260200160002060040160006101000a81548173ffffffffffffffffffffffffffffffffffffffff021916908373ffffffffffffffffffffffffffffffffffffffff16021790555060016005600085815260200190815260200160002060070160006101000a81548160ff021916908315150217905550611a246002611d82565b600360009054906101000a900473ffffffffffffffffffffffffffffffffffffffff1673ffffffffffffffffffffffffffffffffffffffff166108fc6004549081150290604051600060405180830381858888f19350505050158015611a8e573d6000803e3d6000fd5b50505060016000819055505050565b611aa5611e5a565b6000611ab16001611d74565b905060006005600085815260200190815260200160002060070160009054906101000a900460ff1690508015611b1c576040517f08c379a0000000000000000000000000000000000000000000000000000000008152600401611b139061240c565b60405180910390fd5b611b2581611d98565b60005b82811015611d33578460056000600184611b42919061250d565b8152602001908152602001600020600001541415611d205760056000600183611b6b919061250d565b815260200190815260200160002060405180610100016040529081600082015481526020016001820160009054906101000a900473ffffffffffffffffffffffffffffffffffffffff1673ffffffffffffffffffffffffffffffffffffffff1673ffffffffffffffffffffffffffffffffffffffff168152602001600282015481526020016003820160009054906101000a900473ffffffffffffffffffffffffffffffffffffffff1673ffffffffffffffffffffffffffffffffffffffff1673ffffffffffffffffffffffffffffffffffffffff1681526020016004820160009054906101000a900473ffffffffffffffffffffffffffffffffffffffff1673ffffffffffffffffffffffffffffffffffffffff1673ffffffffffffffffffffffffffffffffffffffff1681526020016005820160009054906101000a900473ffffffffffffffffffffffffffffffffffffffff1673ffffffffffffffffffffffffffffffffffffffff1673ffffffffffffffffffffffffffffffffffffffff168152602001600682015481526020016007820160009054906101000a900460ff1615151515815250509350505050611d6f565b8080611d2b906125bd565b915050611b28565b506040517f08c379a0000000000000000000000000000000000000000000000000000000008152600401611d66906123cc565b60405180910390fd5b919050565b600081600001549050919050565b6001816000016000828254019250508190555050565b611e2e81604051602401611dac91906123b1565b6040516020818303038152906040527f32458eed000000000000000000000000000000000000000000000000000000007bffffffffffffffffffffffffffffffffffffffffffffffffffffffff19166020820180517bffffffffffffffffffffffffffffffffffffffffffffffffffffffff8381831617835250505050611e31565b50565b60008151905060006a636f6e736f6c652e6c6f679050602083016000808483855afa5050505050565b60405180610100016040528060008152602001600073ffffffffffffffffffffffffffffffffffffffff16815260200160008152602001600073ffffffffffffffffffffffffffffffffffffffff168152602001600073ffffffffffffffffffffffffffffffffffffffff168152602001600073ffffffffffffffffffffffffffffffffffffffff168152602001600081526020016000151581525090565b600081359050611f0881612777565b92915050565b600081359050611f1d8161278e565b92915050565b600060208284031215611f3557600080fd5b6000611f4384828501611ef9565b91505092915050565b60008060408385031215611f5f57600080fd5b6000611f6d85828601611ef9565b9250506020611f7e85828601611f0e565b9150509250929050565b600080600060608486031215611f9d57600080fd5b6000611fab86828701611ef9565b9350506020611fbc86828701611f0e565b9250506040611fcd86828701611f0e565b9150509250925092565b600060208284031215611fe957600080fd5b6000611ff784828501611f0e565b91505092915050565b600061200c83836121a3565b6101008301905092915050565b61202281612575565b82525050565b61203181612575565b82525050565b61204081612563565b82525050565b61204f81612563565b82525050565b6000612060826124d3565b61206a81856124eb565b9350612075836124c3565b8060005b838110156120a657815161208d8882612000565b9750612098836124de565b925050600181019050612079565b5085935050505092915050565b6120bc81612587565b82525050565b6120cb81612587565b82525050565b60006120de6009836124fc565b91506120e982612635565b602082019050919050565b60006121016040836124fc565b915061210c8261265e565b604082019050919050565b6000612124601b836124fc565b915061212f826126ad565b602082019050919050565b60006121476024836124fc565b9150612152826126d6565b604082019050919050565b600061216a601f836124fc565b915061217582612725565b602082019050919050565b600061218d601c836124fc565b91506121988261274e565b602082019050919050565b610100820160008201516121ba60008501826122e7565b5060208201516121cd6020850182612037565b5060408201516121e060408501826122e7565b5060608201516121f36060850182612019565b5060808201516122066080850182612019565b5060a082015161221960a0850182612037565b5060c082015161222c60c08501826122e7565b5060e082015161223f60e08501826120b3565b50505050565b6101008201600082015161225c60008501826122e7565b50602082015161226f6020850182612037565b50604082015161228260408501826122e7565b5060608201516122956060850182612019565b5060808201516122a86080850182612019565b5060a08201516122bb60a0850182612037565b5060c08201516122ce60c08501826122e7565b5060e08201516122e160e08501826120b3565b50505050565b6122f0816125b3565b82525050565b6122ff816125b3565b82525050565b600060a08201905061231a6000830188612028565b6123276020830187612028565b6123346040830186612046565b61234160608301856122f6565b61234e60808301846120c2565b9695505050505050565b600060608201905061236d6000830186612046565b61237a6020830185612046565b61238760408301846122f6565b949350505050565b600060208201905081810360008301526123a98184612055565b905092915050565b60006020820190506123c660008301846120c2565b92915050565b600060208201905081810360008301526123e5816120d1565b9050919050565b60006020820190508181036000830152612405816120f4565b9050919050565b6000602082019050818103600083015261242581612117565b9050919050565b600060208201905081810360008301526124458161213a565b9050919050565b600060208201905081810360008301526124658161215d565b9050919050565b6000602082019050818103600083015261248581612180565b9050919050565b6000610100820190506124a26000830184612245565b92915050565b60006020820190506124bd60008301846122f6565b92915050565b6000819050602082019050919050565b600081519050919050565b6000602082019050919050565b600082825260208201905092915050565b600082825260208201905092915050565b6000612518826125b3565b9150612523836125b3565b9250827fffffffffffffffffffffffffffffffffffffffffffffffffffffffffffffffff0382111561255857612557612606565b5b828201905092915050565b600061256e82612593565b9050919050565b600061258082612593565b9050919050565b60008115159050919050565b600073ffffffffffffffffffffffffffffffffffffffff82169050919050565b6000819050919050565b60006125c8826125b3565b91507fffffffffffffffffffffffffffffffffffffffffffffffffffffffffffffffff8214156125fb576125fa612606565b5b600182019050919050565b7f4e487b7100000000000000000000000000000000000000000000000000000000600052601160045260246000fd5b7f4e6f7420666f756e640000000000000000000000000000000000000000000000600082015250565b7f506c65617365207375626d6974207468652061736b696e67207072696365206960008201527f6e206f7264657220746f20636f6d706c65746520746865207075726368617365602082015250565b7f4974656d2068617320616c7265616479206265656e20736f6c642e0000000000600082015250565b7f5072696365206d75737420626520657175616c20746f206c697374696e67207060008201527f7269636500000000000000000000000000000000000000000000000000000000602082015250565b7f5265656e7472616e637947756172643a207265656e7472616e742063616c6c00600082015250565b7f5072696365206d757374206265206174206c6561737420312077656900000000600082015250565b61278081612563565b811461278b57600080fd5b50565b612797816125b3565b81146127a257600080fd5b5056fea26469706673582212204df7551111981cb88cd58a1de6ac49a886aeef9e8b8ae8992dfa31ae711b19ee64736f6c63430008040033",
  "linkReferences": {},
  "deployedLinkReferences": {}
}