{
  "_format": "hh-sol-artifact-1",
  "contractName": "NFTMarket",
  "sourceName": "contracts/NFTMarket.sol",
  "abi": [
    {
      "inputs": [],
      "stateMutability": "nonpayable",
      "type": "constructor"
    },
    {
      "anonymous": false,
      "inputs": [
        {
          "indexed": true,
          "internalType": "uint256",
          "name": "itemID",
          "type": "uint256"
        },
        {
          "indexed": true,
          "internalType": "address",
          "name": "nftContract",
          "type": "address"
        },
        {
          "indexed": true,
          "internalType": "uint256",
          "name": "tokenID",
          "type": "uint256"
        },
        {
          "indexed": false,
          "internalType": "address payable",
          "name": "seller",
          "type": "address"
        },
        {
          "indexed": false,
          "internalType": "address payable",
          "name": "owner",
          "type": "address"
        },
        {
          "indexed": false,
          "internalType": "address",
          "name": "creator",
          "type": "address"
        },
        {
          "indexed": false,
          "internalType": "uint256",
          "name": "price",
          "type": "uint256"
        },
        {
          "indexed": false,
          "internalType": "bool",
          "name": "sold",
          "type": "bool"
        }
      ],
      "name": "MarketItemCreated",
      "type": "event"
    },
    {
      "inputs": [
        {
          "internalType": "address",
          "name": "nftContract",
          "type": "address"
        },
        {
          "internalType": "uint256",
          "name": "tokenID",
          "type": "uint256"
        },
        {
          "internalType": "uint256",
          "name": "price",
          "type": "uint256"
        }
      ],
      "name": "createMarketItem",
      "outputs": [],
      "stateMutability": "payable",
      "type": "function"
    },
    {
      "inputs": [
        {
          "internalType": "address",
          "name": "nftContract",
          "type": "address"
        },
        {
          "internalType": "uint256",
          "name": "itemID",
          "type": "uint256"
        }
      ],
      "name": "createMarketSale",
      "outputs": [],
      "stateMutability": "payable",
      "type": "function"
    },
    {
      "inputs": [
        {
          "internalType": "address",
          "name": "signerAddress",
          "type": "address"
        }
      ],
      "name": "fetchCreatedItems",
      "outputs": [
        {
          "components": [
            {
              "internalType": "uint256",
              "name": "itemID",
              "type": "uint256"
            },
            {
              "internalType": "address",
              "name": "nftContract",
              "type": "address"
            },
            {
              "internalType": "uint256",
              "name": "tokenID",
              "type": "uint256"
            },
            {
              "internalType": "address payable",
              "name": "seller",
              "type": "address"
            },
            {
              "internalType": "address payable",
              "name": "owner",
              "type": "address"
            },
            {
              "internalType": "address",
              "name": "creator",
              "type": "address"
            },
            {
              "internalType": "uint256",
              "name": "price",
              "type": "uint256"
            },
            {
              "internalType": "bool",
              "name": "sold",
              "type": "bool"
            }
          ],
          "internalType": "struct NFTMarket.MarketItem[]",
          "name": "",
          "type": "tuple[]"
        }
      ],
      "stateMutability": "view",
      "type": "function"
    },
    {
      "inputs": [
        {
          "internalType": "address",
          "name": "signerAddress",
          "type": "address"
        },
        {
          "internalType": "uint256",
          "name": "page",
          "type": "uint256"
        }
      ],
      "name": "fetchMarketItems",
      "outputs": [
        {
          "components": [
            {
              "internalType": "uint256",
              "name": "itemID",
              "type": "uint256"
            },
            {
              "internalType": "address",
              "name": "nftContract",
              "type": "address"
            },
            {
              "internalType": "uint256",
              "name": "tokenID",
              "type": "uint256"
            },
            {
              "internalType": "address payable",
              "name": "seller",
              "type": "address"
            },
            {
              "internalType": "address payable",
              "name": "owner",
              "type": "address"
            },
            {
              "internalType": "address",
              "name": "creator",
              "type": "address"
            },
            {
              "internalType": "uint256",
              "name": "price",
              "type": "uint256"
            },
            {
              "internalType": "bool",
              "name": "sold",
              "type": "bool"
            }
          ],
          "internalType": "struct NFTMarket.MarketItem[]",
          "name": "",
          "type": "tuple[]"
        },
        {
          "internalType": "uint256",
          "name": "",
          "type": "uint256"
        }
      ],
      "stateMutability": "view",
      "type": "function"
    },
    {
      "inputs": [
        {
          "internalType": "address",
          "name": "signerAddress",
          "type": "address"
        }
      ],
      "name": "fetchMyNFTs",
      "outputs": [
        {
          "components": [
            {
              "internalType": "uint256",
              "name": "itemID",
              "type": "uint256"
            },
            {
              "internalType": "address",
              "name": "nftContract",
              "type": "address"
            },
            {
              "internalType": "uint256",
              "name": "tokenID",
              "type": "uint256"
            },
            {
              "internalType": "address payable",
              "name": "seller",
              "type": "address"
            },
            {
              "internalType": "address payable",
              "name": "owner",
              "type": "address"
            },
            {
              "internalType": "address",
              "name": "creator",
              "type": "address"
            },
            {
              "internalType": "uint256",
              "name": "price",
              "type": "uint256"
            },
            {
              "internalType": "bool",
              "name": "sold",
              "type": "bool"
            }
          ],
          "internalType": "struct NFTMarket.MarketItem[]",
          "name": "",
          "type": "tuple[]"
        }
      ],
      "stateMutability": "view",
      "type": "function"
    },
    {
      "inputs": [
        {
          "internalType": "uint256",
          "name": "itemID",
          "type": "uint256"
        }
      ],
      "name": "fetchNFT",
      "outputs": [
        {
          "components": [
            {
              "internalType": "uint256",
              "name": "itemID",
              "type": "uint256"
            },
            {
              "internalType": "address",
              "name": "nftContract",
              "type": "address"
            },
            {
              "internalType": "uint256",
              "name": "tokenID",
              "type": "uint256"
            },
            {
              "internalType": "address payable",
              "name": "seller",
              "type": "address"
            },
            {
              "internalType": "address payable",
              "name": "owner",
              "type": "address"
            },
            {
              "internalType": "address",
              "name": "creator",
              "type": "address"
            },
            {
              "internalType": "uint256",
              "name": "price",
              "type": "uint256"
            },
            {
              "internalType": "bool",
              "name": "sold",
              "type": "bool"
            }
          ],
          "internalType": "struct NFTMarket.MarketItem",
          "name": "",
          "type": "tuple"
        }
      ],
      "stateMutability": "view",
      "type": "function"
    },
    {
      "inputs": [
        {
          "internalType": "address",
          "name": "signerAddress",
          "type": "address"
        }
      ],
      "name": "fetchSoldItems",
      "outputs": [
        {
          "components": [
            {
              "internalType": "uint256",
              "name": "itemID",
              "type": "uint256"
            },
            {
              "internalType": "address",
              "name": "nftContract",
              "type": "address"
            },
            {
              "internalType": "uint256",
              "name": "tokenID",
              "type": "uint256"
            },
            {
              "internalType": "address payable",
              "name": "seller",
              "type": "address"
            },
            {
              "internalType": "address payable",
              "name": "owner",
              "type": "address"
            },
            {
              "internalType": "address",
              "name": "creator",
              "type": "address"
            },
            {
              "internalType": "uint256",
              "name": "price",
              "type": "uint256"
            },
            {
              "internalType": "bool",
              "name": "sold",
              "type": "bool"
            }
          ],
          "internalType": "struct NFTMarket.MarketItem[]",
          "name": "",
          "type": "tuple[]"
        }
      ],
      "stateMutability": "view",
      "type": "function"
    },
    {
      "inputs": [
        {
          "internalType": "uint256",
          "name": "price",
          "type": "uint256"
        }
      ],
      "name": "getListingPrice",
      "outputs": [
        {
          "internalType": "uint256",
          "name": "",
          "type": "uint256"
        }
      ],
      "stateMutability": "pure",
      "type": "function"
    }
  ],
  "bytecode": "0x6080604052738626f6940e2eb28930efb4cef49b2d1f2c9c1199600460006101000a81548173ffffffffffffffffffffffffffffffffffffffff021916908373ffffffffffffffffffffffffffffffffffffffff16021790555034801561006557600080fd5b50600160008190555033600360006101000a81548173ffffffffffffffffffffffffffffffffffffffff021916908373ffffffffffffffffffffffffffffffffffffffff1602179055506128fc806100be6000396000f3fe60806040526004361061007b5760003560e01c8063b4cfb07f1161004e578063b4cfb07f14610154578063c23b139e14610191578063d6077fbf146101ad578063deb1250d146101ea5761007b565b806310afee1e146100805780632195aa8f146100bd57806358eb2df5146100fb57806364a37ccc14610117575b600080fd5b34801561008c57600080fd5b506100a760048036038101906100a29190611f09565b610227565b6040516100b49190612398565b60405180910390f35b3480156100c957600080fd5b506100e460048036038101906100df9190611f32565b610630565b6040516100f29291906123ba565b60405180910390f35b61011560048036038101906101109190611f6e565b610c60565b005b34801561012357600080fd5b5061013e60048036038101906101399190611f09565b6110d2565b60405161014b9190612398565b60405180910390f35b34801561016057600080fd5b5061017b60048036038101906101769190611f09565b61154b565b6040516101889190612398565b60405180910390f35b6101ab60048036038101906101a69190611f32565b611954565b005b3480156101b957600080fd5b506101d460048036038101906101cf9190611fbd565b611ba2565b6040516101e191906124e6565b60405180910390f35b3480156101f657600080fd5b50610211600480360381019061020c9190611fbd565b611bb8565b60405161021e91906124ca565b60405180910390f35b606060006102356001611e1c565b905060008060005b838110156102de578573ffffffffffffffffffffffffffffffffffffffff166005600060018461026d919061254b565b815260200190815260200160002060040160009054906101000a900473ffffffffffffffffffffffffffffffffffffffff1673ffffffffffffffffffffffffffffffffffffffff1614156102cb576001836102c8919061254b565b92505b80806102d690612686565b91505061023d565b5060008267ffffffffffffffff811115610321577f4e487b7100000000000000000000000000000000000000000000000000000000600052604160045260246000fd5b60405190808252806020026020018201604052801561035a57816020015b610347611e40565b81526020019060019003908161033f5790505b50905060005b84811015610623578673ffffffffffffffffffffffffffffffffffffffff1660056000600184610390919061254b565b815260200190815260200160002060040160009054906101000a900473ffffffffffffffffffffffffffffffffffffffff1673ffffffffffffffffffffffffffffffffffffffff161415610610576000600560006001846103f1919061254b565b815260200190815260200160002060000154905060006005600083815260200190815260200160002090508060405180610100016040529081600082015481526020016001820160009054906101000a900473ffffffffffffffffffffffffffffffffffffffff1673ffffffffffffffffffffffffffffffffffffffff1673ffffffffffffffffffffffffffffffffffffffff168152602001600282015481526020016003820160009054906101000a900473ffffffffffffffffffffffffffffffffffffffff1673ffffffffffffffffffffffffffffffffffffffff1673ffffffffffffffffffffffffffffffffffffffff1681526020016004820160009054906101000a900473ffffffffffffffffffffffffffffffffffffffff1673ffffffffffffffffffffffffffffffffffffffff1673ffffffffffffffffffffffffffffffffffffffff1681526020016005820160009054906101000a900473ffffffffffffffffffffffffffffffffffffffff1673ffffffffffffffffffffffffffffffffffffffff1673ffffffffffffffffffffffffffffffffffffffff168152602001600682015481526020016007820160009054906101000a900460ff1615151515815250508486815181106105f3577f4e487b7100000000000000000000000000000000000000000000000000000000600052603260045260246000fd5b602002602001018190525060018561060b919061254b565b945050505b808061061b90612686565b915050610360565b5080945050505050919050565b60606000808311610676576040517f08c379a000000000000000000000000000000000000000000000000000000000815260040161066d9061244a565b60405180910390fd5b60006106826001611e1c565b905060008060005b838110156107df57600073ffffffffffffffffffffffffffffffffffffffff16600560006001846106bb919061254b565b815260200190815260200160002060040160009054906101000a900473ffffffffffffffffffffffffffffffffffffffff1673ffffffffffffffffffffffffffffffffffffffff1614801561077e57508773ffffffffffffffffffffffffffffffffffffffff1660056000600184610733919061254b565b815260200190815260200160002060050160009054906101000a900473ffffffffffffffffffffffffffffffffffffffff1673ffffffffffffffffffffffffffffffffffffffff1614155b80156107b7575060056000600183610796919061254b565b815260200190815260200160002060070160009054906101000a900460ff16155b156107cc576001836107c9919061254b565b92505b80806107d790612686565b91505061068a565b506000600c9050600080600189141561080a5784831161080157829050610805565b8490505b61083f565b888361081691906125d2565b9150600189610825919061254b565b8361083091906125d2565b90508481111561083e578490505b5b60008567ffffffffffffffff811115610881577f4e487b7100000000000000000000000000000000000000000000000000000000600052604160045260246000fd5b6040519080825280602002602001820160405280156108ba57816020015b6108a7611e40565b81526020019060019003908161089f5790505b50905060008390505b82811015610c3a57600073ffffffffffffffffffffffffffffffffffffffff16600560006001846108f4919061254b565b815260200190815260200160002060040160009054906101000a900473ffffffffffffffffffffffffffffffffffffffff1673ffffffffffffffffffffffffffffffffffffffff161480156109b757508b73ffffffffffffffffffffffffffffffffffffffff166005600060018461096c919061254b565b815260200190815260200160002060050160009054906101000a900473ffffffffffffffffffffffffffffffffffffffff1673ffffffffffffffffffffffffffffffffffffffff1614155b80156109f05750600560006001836109cf919061254b565b815260200190815260200160002060070160009054906101000a900460ff16155b15610c2757600060056000600184610a08919061254b565b815260200190815260200160002060000154905060006005600083815260200190815260200160002090508060405180610100016040529081600082015481526020016001820160009054906101000a900473ffffffffffffffffffffffffffffffffffffffff1673ffffffffffffffffffffffffffffffffffffffff1673ffffffffffffffffffffffffffffffffffffffff168152602001600282015481526020016003820160009054906101000a900473ffffffffffffffffffffffffffffffffffffffff1673ffffffffffffffffffffffffffffffffffffffff1673ffffffffffffffffffffffffffffffffffffffff1681526020016004820160009054906101000a900473ffffffffffffffffffffffffffffffffffffffff1673ffffffffffffffffffffffffffffffffffffffff1673ffffffffffffffffffffffffffffffffffffffff1681526020016005820160009054906101000a900473ffffffffffffffffffffffffffffffffffffffff1673ffffffffffffffffffffffffffffffffffffffff1673ffffffffffffffffffffffffffffffffffffffff168152602001600682015481526020016007820160009054906101000a900460ff161515151581525050848981518110610c0a577f4e487b7100000000000000000000000000000000000000000000000000000000600052603260045260246000fd5b6020026020010181905250600188610c22919061254b565b975050505b8080610c3290612686565b9150506108c3565b5060008487610c4991906125a1565b905081819950995050505050505050509250929050565b60026000541415610ca6576040517f08c379a0000000000000000000000000000000000000000000000000000000008152600401610c9d9061248a565b60405180910390fd5b600260008190555060008111610cf1576040517f08c379a0000000000000000000000000000000000000000000000000000000008152600401610ce8906124aa565b60405180910390fd5b6000610cfc82611ba2565b9050803414610d40576040517f08c379a0000000000000000000000000000000000000000000000000000000008152600401610d379061246a565b60405180910390fd5b6000600460009054906101000a900473ffffffffffffffffffffffffffffffffffffffff1673ffffffffffffffffffffffffffffffffffffffff166108fc839081150290604051600060405180830381858888f19350505050905080610ddb576040517f08c379a0000000000000000000000000000000000000000000000000000000008152600401610dd29061240a565b60405180910390fd5b610de56001611e2a565b6000610df16001611e1c565b90506040518061010001604052808281526020018773ffffffffffffffffffffffffffffffffffffffff1681526020018681526020013373ffffffffffffffffffffffffffffffffffffffff168152602001600073ffffffffffffffffffffffffffffffffffffffff1681526020013373ffffffffffffffffffffffffffffffffffffffff16815260200185815260200160001515815250600560008381526020019081526020016000206000820151816000015560208201518160010160006101000a81548173ffffffffffffffffffffffffffffffffffffffff021916908373ffffffffffffffffffffffffffffffffffffffff1602179055506040820151816002015560608201518160030160006101000a81548173ffffffffffffffffffffffffffffffffffffffff021916908373ffffffffffffffffffffffffffffffffffffffff16021790555060808201518160040160006101000a81548173ffffffffffffffffffffffffffffffffffffffff021916908373ffffffffffffffffffffffffffffffffffffffff16021790555060a08201518160050160006101000a81548173ffffffffffffffffffffffffffffffffffffffff021916908373ffffffffffffffffffffffffffffffffffffffff16021790555060c0820151816006015560e08201518160070160006101000a81548160ff0219169083151502179055509050508573ffffffffffffffffffffffffffffffffffffffff166323b872dd3330886040518463ffffffff1660e01b815260040161103693929190612361565b600060405180830381600087803b15801561105057600080fd5b505af1158015611064573d6000803e3d6000fd5b50505050848673ffffffffffffffffffffffffffffffffffffffff16827ff6a6e998cdb71a54614f951c87c07828d557c9d2d501f61d4183e344a06445c5336000338a60006040516110ba95949392919061230e565b60405180910390a45050506001600081905550505050565b606060006110e06001611e1c565b905060008060005b838110156111c1578573ffffffffffffffffffffffffffffffffffffffff1660056000600184611118919061254b565b815260200190815260200160002060050160009054906101000a900473ffffffffffffffffffffffffffffffffffffffff1673ffffffffffffffffffffffffffffffffffffffff16148015611199575060056000600183611179919061254b565b815260200190815260200160002060070160009054906101000a900460ff165b156111ae576001836111ab919061254b565b92505b80806111b990612686565b9150506110e8565b5060008267ffffffffffffffff811115611204577f4e487b7100000000000000000000000000000000000000000000000000000000600052604160045260246000fd5b60405190808252806020026020018201604052801561123d57816020015b61122a611e40565b8152602001906001900390816112225790505b50905060005b8481101561153e578673ffffffffffffffffffffffffffffffffffffffff1660056000600184611273919061254b565b815260200190815260200160002060050160009054906101000a900473ffffffffffffffffffffffffffffffffffffffff1673ffffffffffffffffffffffffffffffffffffffff161480156112f45750600560006001836112d4919061254b565b815260200190815260200160002060070160009054906101000a900460ff165b1561152b5760006005600060018461130c919061254b565b815260200190815260200160002060000154905060006005600083815260200190815260200160002090508060405180610100016040529081600082015481526020016001820160009054906101000a900473ffffffffffffffffffffffffffffffffffffffff1673ffffffffffffffffffffffffffffffffffffffff1673ffffffffffffffffffffffffffffffffffffffff168152602001600282015481526020016003820160009054906101000a900473ffffffffffffffffffffffffffffffffffffffff1673ffffffffffffffffffffffffffffffffffffffff1673ffffffffffffffffffffffffffffffffffffffff1681526020016004820160009054906101000a900473ffffffffffffffffffffffffffffffffffffffff1673ffffffffffffffffffffffffffffffffffffffff1673ffffffffffffffffffffffffffffffffffffffff1681526020016005820160009054906101000a900473ffffffffffffffffffffffffffffffffffffffff1673ffffffffffffffffffffffffffffffffffffffff1673ffffffffffffffffffffffffffffffffffffffff168152602001600682015481526020016007820160009054906101000a900460ff16151515158152505084868151811061150e577f4e487b7100000000000000000000000000000000000000000000000000000000600052603260045260246000fd5b6020026020010181905250600185611526919061254b565b945050505b808061153690612686565b915050611243565b5080945050505050919050565b606060006115596001611e1c565b905060008060005b83811015611602578573ffffffffffffffffffffffffffffffffffffffff1660056000600184611591919061254b565b815260200190815260200160002060050160009054906101000a900473ffffffffffffffffffffffffffffffffffffffff1673ffffffffffffffffffffffffffffffffffffffff1614156115ef576001836115ec919061254b565b92505b80806115fa90612686565b915050611561565b5060008267ffffffffffffffff811115611645577f4e487b7100000000000000000000000000000000000000000000000000000000600052604160045260246000fd5b60405190808252806020026020018201604052801561167e57816020015b61166b611e40565b8152602001906001900390816116635790505b50905060005b84811015611947578673ffffffffffffffffffffffffffffffffffffffff16600560006001846116b4919061254b565b815260200190815260200160002060050160009054906101000a900473ffffffffffffffffffffffffffffffffffffffff1673ffffffffffffffffffffffffffffffffffffffff16141561193457600060056000600184611715919061254b565b815260200190815260200160002060000154905060006005600083815260200190815260200160002090508060405180610100016040529081600082015481526020016001820160009054906101000a900473ffffffffffffffffffffffffffffffffffffffff1673ffffffffffffffffffffffffffffffffffffffff1673ffffffffffffffffffffffffffffffffffffffff168152602001600282015481526020016003820160009054906101000a900473ffffffffffffffffffffffffffffffffffffffff1673ffffffffffffffffffffffffffffffffffffffff1673ffffffffffffffffffffffffffffffffffffffff1681526020016004820160009054906101000a900473ffffffffffffffffffffffffffffffffffffffff1673ffffffffffffffffffffffffffffffffffffffff1673ffffffffffffffffffffffffffffffffffffffff1681526020016005820160009054906101000a900473ffffffffffffffffffffffffffffffffffffffff1673ffffffffffffffffffffffffffffffffffffffff1673ffffffffffffffffffffffffffffffffffffffff168152602001600682015481526020016007820160009054906101000a900460ff161515151581525050848681518110611917577f4e487b7100000000000000000000000000000000000000000000000000000000600052603260045260246000fd5b602002602001018190525060018561192f919061254b565b945050505b808061193f90612686565b915050611684565b5080945050505050919050565b6002600054141561199a576040517f08c379a00000000000000000000000000000000000000000000000000000000081526004016119919061248a565b60405180910390fd5b6002600081905550600060056000838152602001908152602001600020600601549050600060056000848152602001908152602001600020600201549050813414611a1a576040517f08c379a0000000000000000000000000000000000000000000000000000000008152600401611a119061242a565b60405180910390fd5b6005600084815260200190815260200160002060030160009054906101000a900473ffffffffffffffffffffffffffffffffffffffff1673ffffffffffffffffffffffffffffffffffffffff166108fc349081150290604051600060405180830381858888f19350505050158015611a96573d6000803e3d6000fd5b508373ffffffffffffffffffffffffffffffffffffffff166323b872dd3033846040518463ffffffff1660e01b8152600401611ad493929190612361565b600060405180830381600087803b158015611aee57600080fd5b505af1158015611b02573d6000803e3d6000fd5b50505050336005600085815260200190815260200160002060040160006101000a81548173ffffffffffffffffffffffffffffffffffffffff021916908373ffffffffffffffffffffffffffffffffffffffff16021790555060016005600085815260200190815260200160002060070160006101000a81548160ff021916908315150217905550611b946002611e2a565b505060016000819055505050565b6000606482611bb191906125a1565b9050919050565b611bc0611e40565b6000611bcc6001611e1c565b905060005b81811015611ddb578360056000600184611beb919061254b565b8152602001908152602001600020600001541415611dc85760056000600183611c14919061254b565b815260200190815260200160002060405180610100016040529081600082015481526020016001820160009054906101000a900473ffffffffffffffffffffffffffffffffffffffff1673ffffffffffffffffffffffffffffffffffffffff1673ffffffffffffffffffffffffffffffffffffffff168152602001600282015481526020016003820160009054906101000a900473ffffffffffffffffffffffffffffffffffffffff1673ffffffffffffffffffffffffffffffffffffffff1673ffffffffffffffffffffffffffffffffffffffff1681526020016004820160009054906101000a900473ffffffffffffffffffffffffffffffffffffffff1673ffffffffffffffffffffffffffffffffffffffff1673ffffffffffffffffffffffffffffffffffffffff1681526020016005820160009054906101000a900473ffffffffffffffffffffffffffffffffffffffff1673ffffffffffffffffffffffffffffffffffffffff1673ffffffffffffffffffffffffffffffffffffffff168152602001600682015481526020016007820160009054906101000a900460ff16151515158152505092505050611e17565b8080611dd390612686565b915050611bd1565b506040517f08c379a0000000000000000000000000000000000000000000000000000000008152600401611e0e906123ea565b60405180910390fd5b919050565b600081600001549050919050565b6001816000016000828254019250508190555050565b60405180610100016040528060008152602001600073ffffffffffffffffffffffffffffffffffffffff16815260200160008152602001600073ffffffffffffffffffffffffffffffffffffffff168152602001600073ffffffffffffffffffffffffffffffffffffffff168152602001600073ffffffffffffffffffffffffffffffffffffffff168152602001600081526020016000151581525090565b600081359050611eee81612898565b92915050565b600081359050611f03816128af565b92915050565b600060208284031215611f1b57600080fd5b6000611f2984828501611edf565b91505092915050565b60008060408385031215611f4557600080fd5b6000611f5385828601611edf565b9250506020611f6485828601611ef4565b9150509250929050565b600080600060608486031215611f8357600080fd5b6000611f9186828701611edf565b9350506020611fa286828701611ef4565b9250506040611fb386828701611ef4565b9150509250925092565b600060208284031215611fcf57600080fd5b6000611fdd84828501611ef4565b91505092915050565b6000611ff283836121ac565b6101008301905092915050565b6120088161263e565b82525050565b6120178161263e565b82525050565b6120268161262c565b82525050565b6120358161262c565b82525050565b600061204682612511565b6120508185612529565b935061205b83612501565b8060005b8381101561208c5781516120738882611fe6565b975061207e8361251c565b92505060018101905061205f565b5085935050505092915050565b6120a281612650565b82525050565b6120b181612650565b82525050565b60006120c460098361253a565b91506120cf8261272d565b602082019050919050565b60006120e760148361253a565b91506120f282612756565b602082019050919050565b600061210a60408361253a565b91506121158261277f565b604082019050919050565b600061212d600c8361253a565b9150612138826127ce565b602082019050919050565b600061215060248361253a565b915061215b826127f7565b604082019050919050565b6000612173601f8361253a565b915061217e82612846565b602082019050919050565b6000612196601c8361253a565b91506121a18261286f565b602082019050919050565b610100820160008201516121c360008501826122f0565b5060208201516121d6602085018261201d565b5060408201516121e960408501826122f0565b5060608201516121fc6060850182611fff565b50608082015161220f6080850182611fff565b5060a082015161222260a085018261201d565b5060c082015161223560c08501826122f0565b5060e082015161224860e0850182612099565b50505050565b6101008201600082015161226560008501826122f0565b506020820151612278602085018261201d565b50604082015161228b60408501826122f0565b50606082015161229e6060850182611fff565b5060808201516122b16080850182611fff565b5060a08201516122c460a085018261201d565b5060c08201516122d760c08501826122f0565b5060e08201516122ea60e0850182612099565b50505050565b6122f98161267c565b82525050565b6123088161267c565b82525050565b600060a082019050612323600083018861200e565b612330602083018761200e565b61233d604083018661202c565b61234a60608301856122ff565b61235760808301846120a8565b9695505050505050565b6000606082019050612376600083018661202c565b612383602083018561202c565b61239060408301846122ff565b949350505050565b600060208201905081810360008301526123b2818461203b565b905092915050565b600060408201905081810360008301526123d4818561203b565b90506123e360208301846122ff565b9392505050565b60006020820190508181036000830152612403816120b7565b9050919050565b60006020820190508181036000830152612423816120da565b9050919050565b60006020820190508181036000830152612443816120fd565b9050919050565b6000602082019050818103600083015261246381612120565b9050919050565b6000602082019050818103600083015261248381612143565b9050919050565b600060208201905081810360008301526124a381612166565b9050919050565b600060208201905081810360008301526124c381612189565b9050919050565b6000610100820190506124e0600083018461224e565b92915050565b60006020820190506124fb60008301846122ff565b92915050565b6000819050602082019050919050565b600081519050919050565b6000602082019050919050565b600082825260208201905092915050565b600082825260208201905092915050565b60006125568261267c565b91506125618361267c565b9250827fffffffffffffffffffffffffffffffffffffffffffffffffffffffffffffffff03821115612596576125956126cf565b5b828201905092915050565b60006125ac8261267c565b91506125b78361267c565b9250826125c7576125c66126fe565b5b828204905092915050565b60006125dd8261267c565b91506125e88361267c565b9250817fffffffffffffffffffffffffffffffffffffffffffffffffffffffffffffffff0483118215151615612621576126206126cf565b5b828202905092915050565b60006126378261265c565b9050919050565b60006126498261265c565b9050919050565b60008115159050919050565b600073ffffffffffffffffffffffffffffffffffffffff82169050919050565b6000819050919050565b60006126918261267c565b91507fffffffffffffffffffffffffffffffffffffffffffffffffffffffffffffffff8214156126c4576126c36126cf565b5b600182019050919050565b7f4e487b7100000000000000000000000000000000000000000000000000000000600052601160045260246000fd5b7f4e487b7100000000000000000000000000000000000000000000000000000000600052601260045260246000fd5b7f4e6f7420666f756e640000000000000000000000000000000000000000000000600082015250565b7f4661696c656420746f2073656e64204574686572000000000000000000000000600082015250565b7f506c65617365207375626d6974207468652061736b696e67207072696365206960008201527f6e206f7264657220746f20636f6d706c65746520746865207075726368617365602082015250565b7f496e76616c696420506167650000000000000000000000000000000000000000600082015250565b7f5072696365206d75737420626520657175616c20746f206c697374696e67207060008201527f7269636500000000000000000000000000000000000000000000000000000000602082015250565b7f5265656e7472616e637947756172643a207265656e7472616e742063616c6c00600082015250565b7f5072696365206d757374206265206174206c6561737420312077656900000000600082015250565b6128a18161262c565b81146128ac57600080fd5b50565b6128b88161267c565b81146128c357600080fd5b5056fea26469706673582212202ba05e89b17eb93747099388deed6307804c0f8228581be85f1517b00a955b0364736f6c63430008040033",
  "linkReferences": {},
  "deployedLinkReferences": {}
}