{
  "_format": "hh-sol-artifact-1",
  "contractName": "NFTMarket",
  "sourceName": "contracts/NFTMarket.sol",
  "abi": [
    {
      "inputs": [],
      "stateMutability": "nonpayable",
      "type": "constructor"
    },
    {
      "anonymous": false,
      "inputs": [
        {
          "indexed": true,
          "internalType": "uint256",
          "name": "itemID",
          "type": "uint256"
        },
        {
          "indexed": true,
          "internalType": "address",
          "name": "nftContract",
          "type": "address"
        },
        {
          "indexed": true,
          "internalType": "uint256",
          "name": "tokenID",
          "type": "uint256"
        },
        {
          "indexed": false,
          "internalType": "address payable",
          "name": "seller",
          "type": "address"
        },
        {
          "indexed": false,
          "internalType": "address payable",
          "name": "owner",
          "type": "address"
        },
        {
          "indexed": false,
          "internalType": "address",
          "name": "creator",
          "type": "address"
        },
        {
          "indexed": false,
          "internalType": "uint256",
          "name": "price",
          "type": "uint256"
        },
        {
          "indexed": false,
          "internalType": "bool",
          "name": "sold",
          "type": "bool"
        }
      ],
      "name": "MarketItemCreated",
      "type": "event"
    },
    {
      "inputs": [
        {
          "internalType": "address",
          "name": "nftContract",
          "type": "address"
        },
        {
          "internalType": "uint256",
          "name": "tokenID",
          "type": "uint256"
        },
        {
          "internalType": "uint256",
          "name": "price",
          "type": "uint256"
        }
      ],
      "name": "createMarketItem",
      "outputs": [],
      "stateMutability": "payable",
      "type": "function"
    },
    {
      "inputs": [
        {
          "internalType": "address",
          "name": "nftContract",
          "type": "address"
        },
        {
          "internalType": "uint256",
          "name": "itemID",
          "type": "uint256"
        }
      ],
      "name": "createMarketSale",
      "outputs": [],
      "stateMutability": "payable",
      "type": "function"
    },
    {
      "inputs": [
        {
          "internalType": "address",
          "name": "signerAddress",
          "type": "address"
        }
      ],
      "name": "fetchCreatedItems",
      "outputs": [
        {
          "components": [
            {
              "internalType": "uint256",
              "name": "itemID",
              "type": "uint256"
            },
            {
              "internalType": "address",
              "name": "nftContract",
              "type": "address"
            },
            {
              "internalType": "uint256",
              "name": "tokenID",
              "type": "uint256"
            },
            {
              "internalType": "address payable",
              "name": "seller",
              "type": "address"
            },
            {
              "internalType": "address payable",
              "name": "owner",
              "type": "address"
            },
            {
              "internalType": "address",
              "name": "creator",
              "type": "address"
            },
            {
              "internalType": "uint256",
              "name": "price",
              "type": "uint256"
            },
            {
              "internalType": "bool",
              "name": "sold",
              "type": "bool"
            }
          ],
          "internalType": "struct NFTMarket.MarketItem[]",
          "name": "",
          "type": "tuple[]"
        }
      ],
      "stateMutability": "view",
      "type": "function"
    },
    {
      "inputs": [
        {
          "internalType": "address",
          "name": "signerAddress",
          "type": "address"
        }
      ],
      "name": "fetchMarketItems",
      "outputs": [
        {
          "components": [
            {
              "internalType": "uint256",
              "name": "itemID",
              "type": "uint256"
            },
            {
              "internalType": "address",
              "name": "nftContract",
              "type": "address"
            },
            {
              "internalType": "uint256",
              "name": "tokenID",
              "type": "uint256"
            },
            {
              "internalType": "address payable",
              "name": "seller",
              "type": "address"
            },
            {
              "internalType": "address payable",
              "name": "owner",
              "type": "address"
            },
            {
              "internalType": "address",
              "name": "creator",
              "type": "address"
            },
            {
              "internalType": "uint256",
              "name": "price",
              "type": "uint256"
            },
            {
              "internalType": "bool",
              "name": "sold",
              "type": "bool"
            }
          ],
          "internalType": "struct NFTMarket.MarketItem[]",
          "name": "",
          "type": "tuple[]"
        }
      ],
      "stateMutability": "view",
      "type": "function"
    },
    {
      "inputs": [
        {
          "internalType": "address",
          "name": "signerAddress",
          "type": "address"
        }
      ],
      "name": "fetchMyNFTs",
      "outputs": [
        {
          "components": [
            {
              "internalType": "uint256",
              "name": "itemID",
              "type": "uint256"
            },
            {
              "internalType": "address",
              "name": "nftContract",
              "type": "address"
            },
            {
              "internalType": "uint256",
              "name": "tokenID",
              "type": "uint256"
            },
            {
              "internalType": "address payable",
              "name": "seller",
              "type": "address"
            },
            {
              "internalType": "address payable",
              "name": "owner",
              "type": "address"
            },
            {
              "internalType": "address",
              "name": "creator",
              "type": "address"
            },
            {
              "internalType": "uint256",
              "name": "price",
              "type": "uint256"
            },
            {
              "internalType": "bool",
              "name": "sold",
              "type": "bool"
            }
          ],
          "internalType": "struct NFTMarket.MarketItem[]",
          "name": "",
          "type": "tuple[]"
        }
      ],
      "stateMutability": "view",
      "type": "function"
    },
    {
      "inputs": [
        {
          "internalType": "uint256",
          "name": "itemID",
          "type": "uint256"
        }
      ],
      "name": "fetchNFT",
      "outputs": [
        {
          "components": [
            {
              "internalType": "uint256",
              "name": "itemID",
              "type": "uint256"
            },
            {
              "internalType": "address",
              "name": "nftContract",
              "type": "address"
            },
            {
              "internalType": "uint256",
              "name": "tokenID",
              "type": "uint256"
            },
            {
              "internalType": "address payable",
              "name": "seller",
              "type": "address"
            },
            {
              "internalType": "address payable",
              "name": "owner",
              "type": "address"
            },
            {
              "internalType": "address",
              "name": "creator",
              "type": "address"
            },
            {
              "internalType": "uint256",
              "name": "price",
              "type": "uint256"
            },
            {
              "internalType": "bool",
              "name": "sold",
              "type": "bool"
            }
          ],
          "internalType": "struct NFTMarket.MarketItem",
          "name": "",
          "type": "tuple"
        }
      ],
      "stateMutability": "view",
      "type": "function"
    },
    {
      "inputs": [
        {
          "internalType": "address",
          "name": "signerAddress",
          "type": "address"
        }
      ],
      "name": "fetchSoldItems",
      "outputs": [
        {
          "components": [
            {
              "internalType": "uint256",
              "name": "itemID",
              "type": "uint256"
            },
            {
              "internalType": "address",
              "name": "nftContract",
              "type": "address"
            },
            {
              "internalType": "uint256",
              "name": "tokenID",
              "type": "uint256"
            },
            {
              "internalType": "address payable",
              "name": "seller",
              "type": "address"
            },
            {
              "internalType": "address payable",
              "name": "owner",
              "type": "address"
            },
            {
              "internalType": "address",
              "name": "creator",
              "type": "address"
            },
            {
              "internalType": "uint256",
              "name": "price",
              "type": "uint256"
            },
            {
              "internalType": "bool",
              "name": "sold",
              "type": "bool"
            }
          ],
          "internalType": "struct NFTMarket.MarketItem[]",
          "name": "",
          "type": "tuple[]"
        }
      ],
      "stateMutability": "view",
      "type": "function"
    },
    {
      "inputs": [
        {
          "internalType": "uint256",
          "name": "price",
          "type": "uint256"
        }
      ],
      "name": "getListingPrice",
      "outputs": [
        {
          "internalType": "uint256",
          "name": "",
          "type": "uint256"
        }
      ],
      "stateMutability": "pure",
      "type": "function"
    },
    {
      "inputs": [],
      "name": "getTokenValue",
      "outputs": [
        {
          "internalType": "uint256",
          "name": "",
          "type": "uint256"
        }
      ],
      "stateMutability": "view",
      "type": "function"
    }
  ],
  "bytecode": "0x6080604052738626f6940e2eb28930efb4cef49b2d1f2c9c1199600460006101000a81548173ffffffffffffffffffffffffffffffffffffffff021916908373ffffffffffffffffffffffffffffffffffffffff1602179055507395401dc811bb5740090279ba06cfa8fcf6113778600560006101000a81548173ffffffffffffffffffffffffffffffffffffffff021916908373ffffffffffffffffffffffffffffffffffffffff1602179055503480156100ba57600080fd5b50600160008190555033600360006101000a81548173ffffffffffffffffffffffffffffffffffffffff021916908373ffffffffffffffffffffffffffffffffffffffff16021790555061297e806101136000396000f3fe6080604052600436106100865760003560e01c806364a37ccc1161005957806364a37ccc1461014c578063b4cfb07f14610189578063c23b139e146101c6578063d6077fbf146101e2578063deb1250d1461021f57610086565b806306ffce531461008b57806310afee1e146100b65780631f10e57a146100f357806358eb2df514610130575b600080fd5b34801561009757600080fd5b506100a061025c565b6040516100ad919061259c565b60405180910390f35b3480156100c257600080fd5b506100dd60048036038101906100d89190611fc9565b6102e1565b6040516100ea919061246e565b60405180910390f35b3480156100ff57600080fd5b5061011a60048036038101906101159190611fc9565b6106ea565b604051610127919061246e565b60405180910390f35b61014a6004803603810190610145919061202e565b610c5b565b005b34801561015857600080fd5b50610173600480360381019061016e9190611fc9565b6110cd565b604051610180919061246e565b60405180910390f35b34801561019557600080fd5b506101b060048036038101906101ab9190611fc9565b611546565b6040516101bd919061246e565b60405180910390f35b6101e060048036038101906101db9190611ff2565b61194f565b005b3480156101ee57600080fd5b506102096004803603810190610204919061207d565b611b9d565b604051610216919061259c565b60405180910390f35b34801561022b57600080fd5b506102466004803603810190610241919061207d565b611bb3565b6040516102539190612580565b60405180910390f35b600080600460009054906101000a900473ffffffffffffffffffffffffffffffffffffffff1673ffffffffffffffffffffffffffffffffffffffff163190506102da6040518060400160405280600d81526020017f3e3e3e2062616c616e63653a200000000000000000000000000000000000000081525082611e17565b8091505090565b606060006102ef6001611eb3565b905060008060005b83811015610398578573ffffffffffffffffffffffffffffffffffffffff1660066000600184610327919061260c565b815260200190815260200160002060040160009054906101000a900473ffffffffffffffffffffffffffffffffffffffff1673ffffffffffffffffffffffffffffffffffffffff16141561038557600183610382919061260c565b92505b808061039090612720565b9150506102f7565b5060008267ffffffffffffffff8111156103db577f4e487b7100000000000000000000000000000000000000000000000000000000600052604160045260246000fd5b60405190808252806020026020018201604052801561041457816020015b610401611f00565b8152602001906001900390816103f95790505b50905060005b848110156106dd578673ffffffffffffffffffffffffffffffffffffffff166006600060018461044a919061260c565b815260200190815260200160002060040160009054906101000a900473ffffffffffffffffffffffffffffffffffffffff1673ffffffffffffffffffffffffffffffffffffffff1614156106ca576000600660006001846104ab919061260c565b815260200190815260200160002060000154905060006006600083815260200190815260200160002090508060405180610100016040529081600082015481526020016001820160009054906101000a900473ffffffffffffffffffffffffffffffffffffffff1673ffffffffffffffffffffffffffffffffffffffff1673ffffffffffffffffffffffffffffffffffffffff168152602001600282015481526020016003820160009054906101000a900473ffffffffffffffffffffffffffffffffffffffff1673ffffffffffffffffffffffffffffffffffffffff1673ffffffffffffffffffffffffffffffffffffffff1681526020016004820160009054906101000a900473ffffffffffffffffffffffffffffffffffffffff1673ffffffffffffffffffffffffffffffffffffffff1673ffffffffffffffffffffffffffffffffffffffff1681526020016005820160009054906101000a900473ffffffffffffffffffffffffffffffffffffffff1673ffffffffffffffffffffffffffffffffffffffff1673ffffffffffffffffffffffffffffffffffffffff168152602001600682015481526020016007820160009054906101000a900460ff1615151515815250508486815181106106ad577f4e487b7100000000000000000000000000000000000000000000000000000000600052603260045260246000fd5b60200260200101819052506001856106c5919061260c565b945050505b80806106d590612720565b91505061041a565b5080945050505050919050565b606060006106f86001611eb3565b905060008060005b8381101561085557600073ffffffffffffffffffffffffffffffffffffffff1660066000600184610731919061260c565b815260200190815260200160002060040160009054906101000a900473ffffffffffffffffffffffffffffffffffffffff1673ffffffffffffffffffffffffffffffffffffffff161480156107f457508573ffffffffffffffffffffffffffffffffffffffff16600660006001846107a9919061260c565b815260200190815260200160002060050160009054906101000a900473ffffffffffffffffffffffffffffffffffffffff1673ffffffffffffffffffffffffffffffffffffffff1614155b801561082d57506006600060018361080c919061260c565b815260200190815260200160002060070160009054906101000a900460ff16155b156108425760018361083f919061260c565b92505b808061084d90612720565b915050610700565b5060008267ffffffffffffffff811115610898577f4e487b7100000000000000000000000000000000000000000000000000000000600052604160045260246000fd5b6040519080825280602002602001820160405280156108d157816020015b6108be611f00565b8152602001906001900390816108b65790505b50905060005b84811015610c4e57600073ffffffffffffffffffffffffffffffffffffffff1660066000600184610908919061260c565b815260200190815260200160002060040160009054906101000a900473ffffffffffffffffffffffffffffffffffffffff1673ffffffffffffffffffffffffffffffffffffffff161480156109cb57508673ffffffffffffffffffffffffffffffffffffffff1660066000600184610980919061260c565b815260200190815260200160002060050160009054906101000a900473ffffffffffffffffffffffffffffffffffffffff1673ffffffffffffffffffffffffffffffffffffffff1614155b8015610a045750600660006001836109e3919061260c565b815260200190815260200160002060070160009054906101000a900460ff16155b15610c3b57600060066000600184610a1c919061260c565b815260200190815260200160002060000154905060006006600083815260200190815260200160002090508060405180610100016040529081600082015481526020016001820160009054906101000a900473ffffffffffffffffffffffffffffffffffffffff1673ffffffffffffffffffffffffffffffffffffffff1673ffffffffffffffffffffffffffffffffffffffff168152602001600282015481526020016003820160009054906101000a900473ffffffffffffffffffffffffffffffffffffffff1673ffffffffffffffffffffffffffffffffffffffff1673ffffffffffffffffffffffffffffffffffffffff1681526020016004820160009054906101000a900473ffffffffffffffffffffffffffffffffffffffff1673ffffffffffffffffffffffffffffffffffffffff1673ffffffffffffffffffffffffffffffffffffffff1681526020016005820160009054906101000a900473ffffffffffffffffffffffffffffffffffffffff1673ffffffffffffffffffffffffffffffffffffffff1673ffffffffffffffffffffffffffffffffffffffff168152602001600682015481526020016007820160009054906101000a900460ff161515151581525050848681518110610c1e577f4e487b7100000000000000000000000000000000000000000000000000000000600052603260045260246000fd5b6020026020010181905250600185610c36919061260c565b945050505b8080610c4690612720565b9150506108d7565b5080945050505050919050565b60026000541415610ca1576040517f08c379a0000000000000000000000000000000000000000000000000000000008152600401610c9890612540565b60405180910390fd5b600260008190555060008111610cec576040517f08c379a0000000000000000000000000000000000000000000000000000000008152600401610ce390612560565b60405180910390fd5b6000610cf782611b9d565b9050803414610d3b576040517f08c379a0000000000000000000000000000000000000000000000000000000008152600401610d3290612520565b60405180910390fd5b6000600460009054906101000a900473ffffffffffffffffffffffffffffffffffffffff1673ffffffffffffffffffffffffffffffffffffffff166108fc839081150290604051600060405180830381858888f19350505050905080610dd6576040517f08c379a0000000000000000000000000000000000000000000000000000000008152600401610dcd906124e0565b60405180910390fd5b610de06001611ec1565b6000610dec6001611eb3565b90506040518061010001604052808281526020018773ffffffffffffffffffffffffffffffffffffffff1681526020018681526020013373ffffffffffffffffffffffffffffffffffffffff168152602001600073ffffffffffffffffffffffffffffffffffffffff1681526020013373ffffffffffffffffffffffffffffffffffffffff16815260200185815260200160001515815250600660008381526020019081526020016000206000820151816000015560208201518160010160006101000a81548173ffffffffffffffffffffffffffffffffffffffff021916908373ffffffffffffffffffffffffffffffffffffffff1602179055506040820151816002015560608201518160030160006101000a81548173ffffffffffffffffffffffffffffffffffffffff021916908373ffffffffffffffffffffffffffffffffffffffff16021790555060808201518160040160006101000a81548173ffffffffffffffffffffffffffffffffffffffff021916908373ffffffffffffffffffffffffffffffffffffffff16021790555060a08201518160050160006101000a81548173ffffffffffffffffffffffffffffffffffffffff021916908373ffffffffffffffffffffffffffffffffffffffff16021790555060c0820151816006015560e08201518160070160006101000a81548160ff0219169083151502179055509050508573ffffffffffffffffffffffffffffffffffffffff166323b872dd3330886040518463ffffffff1660e01b815260040161103193929190612437565b600060405180830381600087803b15801561104b57600080fd5b505af115801561105f573d6000803e3d6000fd5b50505050848673ffffffffffffffffffffffffffffffffffffffff16827ff6a6e998cdb71a54614f951c87c07828d557c9d2d501f61d4183e344a06445c5336000338a60006040516110b59594939291906123e4565b60405180910390a45050506001600081905550505050565b606060006110db6001611eb3565b905060008060005b838110156111bc578573ffffffffffffffffffffffffffffffffffffffff1660066000600184611113919061260c565b815260200190815260200160002060050160009054906101000a900473ffffffffffffffffffffffffffffffffffffffff1673ffffffffffffffffffffffffffffffffffffffff16148015611194575060066000600183611174919061260c565b815260200190815260200160002060070160009054906101000a900460ff165b156111a9576001836111a6919061260c565b92505b80806111b490612720565b9150506110e3565b5060008267ffffffffffffffff8111156111ff577f4e487b7100000000000000000000000000000000000000000000000000000000600052604160045260246000fd5b60405190808252806020026020018201604052801561123857816020015b611225611f00565b81526020019060019003908161121d5790505b50905060005b84811015611539578673ffffffffffffffffffffffffffffffffffffffff166006600060018461126e919061260c565b815260200190815260200160002060050160009054906101000a900473ffffffffffffffffffffffffffffffffffffffff1673ffffffffffffffffffffffffffffffffffffffff161480156112ef5750600660006001836112cf919061260c565b815260200190815260200160002060070160009054906101000a900460ff165b1561152657600060066000600184611307919061260c565b815260200190815260200160002060000154905060006006600083815260200190815260200160002090508060405180610100016040529081600082015481526020016001820160009054906101000a900473ffffffffffffffffffffffffffffffffffffffff1673ffffffffffffffffffffffffffffffffffffffff1673ffffffffffffffffffffffffffffffffffffffff168152602001600282015481526020016003820160009054906101000a900473ffffffffffffffffffffffffffffffffffffffff1673ffffffffffffffffffffffffffffffffffffffff1673ffffffffffffffffffffffffffffffffffffffff1681526020016004820160009054906101000a900473ffffffffffffffffffffffffffffffffffffffff1673ffffffffffffffffffffffffffffffffffffffff1673ffffffffffffffffffffffffffffffffffffffff1681526020016005820160009054906101000a900473ffffffffffffffffffffffffffffffffffffffff1673ffffffffffffffffffffffffffffffffffffffff1673ffffffffffffffffffffffffffffffffffffffff168152602001600682015481526020016007820160009054906101000a900460ff161515151581525050848681518110611509577f4e487b7100000000000000000000000000000000000000000000000000000000600052603260045260246000fd5b6020026020010181905250600185611521919061260c565b945050505b808061153190612720565b91505061123e565b5080945050505050919050565b606060006115546001611eb3565b905060008060005b838110156115fd578573ffffffffffffffffffffffffffffffffffffffff166006600060018461158c919061260c565b815260200190815260200160002060050160009054906101000a900473ffffffffffffffffffffffffffffffffffffffff1673ffffffffffffffffffffffffffffffffffffffff1614156115ea576001836115e7919061260c565b92505b80806115f590612720565b91505061155c565b5060008267ffffffffffffffff811115611640577f4e487b7100000000000000000000000000000000000000000000000000000000600052604160045260246000fd5b60405190808252806020026020018201604052801561167957816020015b611666611f00565b81526020019060019003908161165e5790505b50905060005b84811015611942578673ffffffffffffffffffffffffffffffffffffffff16600660006001846116af919061260c565b815260200190815260200160002060050160009054906101000a900473ffffffffffffffffffffffffffffffffffffffff1673ffffffffffffffffffffffffffffffffffffffff16141561192f57600060066000600184611710919061260c565b815260200190815260200160002060000154905060006006600083815260200190815260200160002090508060405180610100016040529081600082015481526020016001820160009054906101000a900473ffffffffffffffffffffffffffffffffffffffff1673ffffffffffffffffffffffffffffffffffffffff1673ffffffffffffffffffffffffffffffffffffffff168152602001600282015481526020016003820160009054906101000a900473ffffffffffffffffffffffffffffffffffffffff1673ffffffffffffffffffffffffffffffffffffffff1673ffffffffffffffffffffffffffffffffffffffff1681526020016004820160009054906101000a900473ffffffffffffffffffffffffffffffffffffffff1673ffffffffffffffffffffffffffffffffffffffff1673ffffffffffffffffffffffffffffffffffffffff1681526020016005820160009054906101000a900473ffffffffffffffffffffffffffffffffffffffff1673ffffffffffffffffffffffffffffffffffffffff1673ffffffffffffffffffffffffffffffffffffffff168152602001600682015481526020016007820160009054906101000a900460ff161515151581525050848681518110611912577f4e487b7100000000000000000000000000000000000000000000000000000000600052603260045260246000fd5b602002602001018190525060018561192a919061260c565b945050505b808061193a90612720565b91505061167f565b5080945050505050919050565b60026000541415611995576040517f08c379a000000000000000000000000000000000000000000000000000000000815260040161198c90612540565b60405180910390fd5b6002600081905550600060066000838152602001908152602001600020600601549050600060066000848152602001908152602001600020600201549050813414611a15576040517f08c379a0000000000000000000000000000000000000000000000000000000008152600401611a0c90612500565b60405180910390fd5b6006600084815260200190815260200160002060030160009054906101000a900473ffffffffffffffffffffffffffffffffffffffff1673ffffffffffffffffffffffffffffffffffffffff166108fc349081150290604051600060405180830381858888f19350505050158015611a91573d6000803e3d6000fd5b508373ffffffffffffffffffffffffffffffffffffffff166323b872dd3033846040518463ffffffff1660e01b8152600401611acf93929190612437565b600060405180830381600087803b158015611ae957600080fd5b505af1158015611afd573d6000803e3d6000fd5b50505050336006600085815260200190815260200160002060040160006101000a81548173ffffffffffffffffffffffffffffffffffffffff021916908373ffffffffffffffffffffffffffffffffffffffff16021790555060016006600085815260200190815260200160002060070160006101000a81548160ff021916908315150217905550611b8f6002611ec1565b505060016000819055505050565b6000606482611bac9190612662565b9050919050565b611bbb611f00565b6000611bc76001611eb3565b905060005b81811015611dd6578360066000600184611be6919061260c565b8152602001908152602001600020600001541415611dc35760066000600183611c0f919061260c565b815260200190815260200160002060405180610100016040529081600082015481526020016001820160009054906101000a900473ffffffffffffffffffffffffffffffffffffffff1673ffffffffffffffffffffffffffffffffffffffff1673ffffffffffffffffffffffffffffffffffffffff168152602001600282015481526020016003820160009054906101000a900473ffffffffffffffffffffffffffffffffffffffff1673ffffffffffffffffffffffffffffffffffffffff1673ffffffffffffffffffffffffffffffffffffffff1681526020016004820160009054906101000a900473ffffffffffffffffffffffffffffffffffffffff1673ffffffffffffffffffffffffffffffffffffffff1673ffffffffffffffffffffffffffffffffffffffff1681526020016005820160009054906101000a900473ffffffffffffffffffffffffffffffffffffffff1673ffffffffffffffffffffffffffffffffffffffff1673ffffffffffffffffffffffffffffffffffffffff168152602001600682015481526020016007820160009054906101000a900460ff16151515158152505092505050611e12565b8080611dce90612720565b915050611bcc565b506040517f08c379a0000000000000000000000000000000000000000000000000000000008152600401611e09906124c0565b60405180910390fd5b919050565b611eaf8282604051602401611e2d929190612490565b6040516020818303038152906040527f9710a9d0000000000000000000000000000000000000000000000000000000007bffffffffffffffffffffffffffffffffffffffffffffffffffffffff19166020820180517bffffffffffffffffffffffffffffffffffffffffffffffffffffffff8381831617835250505050611ed7565b5050565b600081600001549050919050565b6001816000016000828254019250508190555050565b60008151905060006a636f6e736f6c652e6c6f679050602083016000808483855afa5050505050565b60405180610100016040528060008152602001600073ffffffffffffffffffffffffffffffffffffffff16815260200160008152602001600073ffffffffffffffffffffffffffffffffffffffff168152602001600073ffffffffffffffffffffffffffffffffffffffff168152602001600073ffffffffffffffffffffffffffffffffffffffff168152602001600081526020016000151581525090565b600081359050611fae8161291a565b92915050565b600081359050611fc381612931565b92915050565b600060208284031215611fdb57600080fd5b6000611fe984828501611f9f565b91505092915050565b6000806040838503121561200557600080fd5b600061201385828601611f9f565b925050602061202485828601611fb4565b9150509250929050565b60008060006060848603121561204357600080fd5b600061205186828701611f9f565b935050602061206286828701611fb4565b925050604061207386828701611fb4565b9150509250925092565b60006020828403121561208f57600080fd5b600061209d84828501611fb4565b91505092915050565b60006120b28383612282565b6101008301905092915050565b6120c8816126a5565b82525050565b6120d7816126a5565b82525050565b6120e681612693565b82525050565b6120f581612693565b82525050565b6000612106826125c7565b61211081856125ea565b935061211b836125b7565b8060005b8381101561214c57815161213388826120a6565b975061213e836125dd565b92505060018101905061211f565b5085935050505092915050565b612162816126b7565b82525050565b612171816126b7565b82525050565b6000612182826125d2565b61218c81856125fb565b935061219c8185602086016126ed565b6121a5816127c7565b840191505092915050565b60006121bd6009836125fb565b91506121c8826127d8565b602082019050919050565b60006121e06014836125fb565b91506121eb82612801565b602082019050919050565b60006122036040836125fb565b915061220e8261282a565b604082019050919050565b60006122266024836125fb565b915061223182612879565b604082019050919050565b6000612249601f836125fb565b9150612254826128c8565b602082019050919050565b600061226c601c836125fb565b9150612277826128f1565b602082019050919050565b6101008201600082015161229960008501826123c6565b5060208201516122ac60208501826120dd565b5060408201516122bf60408501826123c6565b5060608201516122d260608501826120bf565b5060808201516122e560808501826120bf565b5060a08201516122f860a08501826120dd565b5060c082015161230b60c08501826123c6565b5060e082015161231e60e0850182612159565b50505050565b6101008201600082015161233b60008501826123c6565b50602082015161234e60208501826120dd565b50604082015161236160408501826123c6565b50606082015161237460608501826120bf565b50608082015161238760808501826120bf565b5060a082015161239a60a08501826120dd565b5060c08201516123ad60c08501826123c6565b5060e08201516123c060e0850182612159565b50505050565b6123cf816126e3565b82525050565b6123de816126e3565b82525050565b600060a0820190506123f960008301886120ce565b61240660208301876120ce565b61241360408301866120ec565b61242060608301856123d5565b61242d6080830184612168565b9695505050505050565b600060608201905061244c60008301866120ec565b61245960208301856120ec565b61246660408301846123d5565b949350505050565b6000602082019050818103600083015261248881846120fb565b905092915050565b600060408201905081810360008301526124aa8185612177565b90506124b960208301846123d5565b9392505050565b600060208201905081810360008301526124d9816121b0565b9050919050565b600060208201905081810360008301526124f9816121d3565b9050919050565b60006020820190508181036000830152612519816121f6565b9050919050565b6000602082019050818103600083015261253981612219565b9050919050565b600060208201905081810360008301526125598161223c565b9050919050565b600060208201905081810360008301526125798161225f565b9050919050565b6000610100820190506125966000830184612324565b92915050565b60006020820190506125b160008301846123d5565b92915050565b6000819050602082019050919050565b600081519050919050565b600081519050919050565b6000602082019050919050565b600082825260208201905092915050565b600082825260208201905092915050565b6000612617826126e3565b9150612622836126e3565b9250827fffffffffffffffffffffffffffffffffffffffffffffffffffffffffffffffff0382111561265757612656612769565b5b828201905092915050565b600061266d826126e3565b9150612678836126e3565b92508261268857612687612798565b5b828204905092915050565b600061269e826126c3565b9050919050565b60006126b0826126c3565b9050919050565b60008115159050919050565b600073ffffffffffffffffffffffffffffffffffffffff82169050919050565b6000819050919050565b60005b8381101561270b5780820151818401526020810190506126f0565b8381111561271a576000848401525b50505050565b600061272b826126e3565b91507fffffffffffffffffffffffffffffffffffffffffffffffffffffffffffffffff82141561275e5761275d612769565b5b600182019050919050565b7f4e487b7100000000000000000000000000000000000000000000000000000000600052601160045260246000fd5b7f4e487b7100000000000000000000000000000000000000000000000000000000600052601260045260246000fd5b6000601f19601f8301169050919050565b7f4e6f7420666f756e640000000000000000000000000000000000000000000000600082015250565b7f4661696c656420746f2073656e64204574686572000000000000000000000000600082015250565b7f506c65617365207375626d6974207468652061736b696e67207072696365206960008201527f6e206f7264657220746f20636f6d706c65746520746865207075726368617365602082015250565b7f5072696365206d75737420626520657175616c20746f206c697374696e67207060008201527f7269636500000000000000000000000000000000000000000000000000000000602082015250565b7f5265656e7472616e637947756172643a207265656e7472616e742063616c6c00600082015250565b7f5072696365206d757374206265206174206c6561737420312077656900000000600082015250565b61292381612693565b811461292e57600080fd5b50565b61293a816126e3565b811461294557600080fd5b5056fea26469706673582212203a81ea5d76c78b0ccb3999d3636140b1c8e05e135e8594dc78e2330c667e113664736f6c63430008040033",
  "linkReferences": {},
  "deployedLinkReferences": {}
}