{
  "_format": "hh-sol-artifact-1",
  "contractName": "NFTMarket",
  "sourceName": "contracts/NFTMarket.sol",
  "abi": [
    {
      "inputs": [],
      "stateMutability": "nonpayable",
      "type": "constructor"
    },
    {
      "anonymous": false,
      "inputs": [
        {
          "indexed": true,
          "internalType": "uint256",
          "name": "itemId",
          "type": "uint256"
        },
        {
          "indexed": true,
          "internalType": "address",
          "name": "nftContract",
          "type": "address"
        },
        {
          "indexed": true,
          "internalType": "uint256",
          "name": "tokenId",
          "type": "uint256"
        },
        {
          "indexed": false,
          "internalType": "address payable",
          "name": "seller",
          "type": "address"
        },
        {
          "indexed": false,
          "internalType": "address payable",
          "name": "owner",
          "type": "address"
        },
        {
          "indexed": false,
          "internalType": "address",
          "name": "creator",
          "type": "address"
        },
        {
          "indexed": false,
          "internalType": "uint256",
          "name": "price",
          "type": "uint256"
        },
        {
          "indexed": false,
          "internalType": "bool",
          "name": "sold",
          "type": "bool"
        }
      ],
      "name": "MarketItemCreated",
      "type": "event"
    },
    {
      "inputs": [
        {
          "internalType": "address",
          "name": "nftContract",
          "type": "address"
        },
        {
          "internalType": "uint256",
          "name": "tokenId",
          "type": "uint256"
        },
        {
          "internalType": "uint256",
          "name": "price",
          "type": "uint256"
        }
      ],
      "name": "createMarketItem",
      "outputs": [],
      "stateMutability": "payable",
      "type": "function"
    },
    {
      "inputs": [
        {
          "internalType": "address",
          "name": "nftContract",
          "type": "address"
        },
        {
          "internalType": "uint256",
          "name": "itemId",
          "type": "uint256"
        }
      ],
      "name": "createMarketSale",
      "outputs": [],
      "stateMutability": "payable",
      "type": "function"
    },
    {
      "inputs": [
        {
          "internalType": "address",
          "name": "signerAddress",
          "type": "address"
        }
      ],
      "name": "fetchCreatedItems",
      "outputs": [
        {
          "components": [
            {
              "internalType": "uint256",
              "name": "itemId",
              "type": "uint256"
            },
            {
              "internalType": "address",
              "name": "nftContract",
              "type": "address"
            },
            {
              "internalType": "uint256",
              "name": "tokenId",
              "type": "uint256"
            },
            {
              "internalType": "address payable",
              "name": "seller",
              "type": "address"
            },
            {
              "internalType": "address payable",
              "name": "owner",
              "type": "address"
            },
            {
              "internalType": "address",
              "name": "creator",
              "type": "address"
            },
            {
              "internalType": "uint256",
              "name": "price",
              "type": "uint256"
            },
            {
              "internalType": "bool",
              "name": "sold",
              "type": "bool"
            }
          ],
          "internalType": "struct NFTMarket.MarketItem[]",
          "name": "",
          "type": "tuple[]"
        }
      ],
      "stateMutability": "view",
      "type": "function"
    },
    {
      "inputs": [
        {
          "internalType": "address",
          "name": "signerAddress",
          "type": "address"
        }
      ],
      "name": "fetchMarketItems",
      "outputs": [
        {
          "components": [
            {
              "internalType": "uint256",
              "name": "itemId",
              "type": "uint256"
            },
            {
              "internalType": "address",
              "name": "nftContract",
              "type": "address"
            },
            {
              "internalType": "uint256",
              "name": "tokenId",
              "type": "uint256"
            },
            {
              "internalType": "address payable",
              "name": "seller",
              "type": "address"
            },
            {
              "internalType": "address payable",
              "name": "owner",
              "type": "address"
            },
            {
              "internalType": "address",
              "name": "creator",
              "type": "address"
            },
            {
              "internalType": "uint256",
              "name": "price",
              "type": "uint256"
            },
            {
              "internalType": "bool",
              "name": "sold",
              "type": "bool"
            }
          ],
          "internalType": "struct NFTMarket.MarketItem[]",
          "name": "",
          "type": "tuple[]"
        }
      ],
      "stateMutability": "view",
      "type": "function"
    },
    {
      "inputs": [
        {
          "internalType": "address",
          "name": "signerAddress",
          "type": "address"
        }
      ],
      "name": "fetchMyNFTs",
      "outputs": [
        {
          "components": [
            {
              "internalType": "uint256",
              "name": "itemId",
              "type": "uint256"
            },
            {
              "internalType": "address",
              "name": "nftContract",
              "type": "address"
            },
            {
              "internalType": "uint256",
              "name": "tokenId",
              "type": "uint256"
            },
            {
              "internalType": "address payable",
              "name": "seller",
              "type": "address"
            },
            {
              "internalType": "address payable",
              "name": "owner",
              "type": "address"
            },
            {
              "internalType": "address",
              "name": "creator",
              "type": "address"
            },
            {
              "internalType": "uint256",
              "name": "price",
              "type": "uint256"
            },
            {
              "internalType": "bool",
              "name": "sold",
              "type": "bool"
            }
          ],
          "internalType": "struct NFTMarket.MarketItem[]",
          "name": "",
          "type": "tuple[]"
        }
      ],
      "stateMutability": "view",
      "type": "function"
    },
    {
      "inputs": [
        {
          "internalType": "uint256",
          "name": "itemId",
          "type": "uint256"
        }
      ],
      "name": "fetchNFT",
      "outputs": [
        {
          "components": [
            {
              "internalType": "uint256",
              "name": "itemId",
              "type": "uint256"
            },
            {
              "internalType": "address",
              "name": "nftContract",
              "type": "address"
            },
            {
              "internalType": "uint256",
              "name": "tokenId",
              "type": "uint256"
            },
            {
              "internalType": "address payable",
              "name": "seller",
              "type": "address"
            },
            {
              "internalType": "address payable",
              "name": "owner",
              "type": "address"
            },
            {
              "internalType": "address",
              "name": "creator",
              "type": "address"
            },
            {
              "internalType": "uint256",
              "name": "price",
              "type": "uint256"
            },
            {
              "internalType": "bool",
              "name": "sold",
              "type": "bool"
            }
          ],
          "internalType": "struct NFTMarket.MarketItem",
          "name": "",
          "type": "tuple"
        }
      ],
      "stateMutability": "view",
      "type": "function"
    },
    {
      "inputs": [
        {
          "internalType": "address",
          "name": "signerAddress",
          "type": "address"
        }
      ],
      "name": "fetchSoldItems",
      "outputs": [
        {
          "components": [
            {
              "internalType": "uint256",
              "name": "itemId",
              "type": "uint256"
            },
            {
              "internalType": "address",
              "name": "nftContract",
              "type": "address"
            },
            {
              "internalType": "uint256",
              "name": "tokenId",
              "type": "uint256"
            },
            {
              "internalType": "address payable",
              "name": "seller",
              "type": "address"
            },
            {
              "internalType": "address payable",
              "name": "owner",
              "type": "address"
            },
            {
              "internalType": "address",
              "name": "creator",
              "type": "address"
            },
            {
              "internalType": "uint256",
              "name": "price",
              "type": "uint256"
            },
            {
              "internalType": "bool",
              "name": "sold",
              "type": "bool"
            }
          ],
          "internalType": "struct NFTMarket.MarketItem[]",
          "name": "",
          "type": "tuple[]"
        }
      ],
      "stateMutability": "view",
      "type": "function"
    },
    {
      "inputs": [
        {
          "internalType": "uint256",
          "name": "price",
          "type": "uint256"
        }
      ],
      "name": "getListingPrice",
      "outputs": [
        {
          "internalType": "uint256",
          "name": "",
          "type": "uint256"
        }
      ],
      "stateMutability": "pure",
      "type": "function"
    }
  ],
  "bytecode": "0x6080604052738626f6940e2eb28930efb4cef49b2d1f2c9c1199600460006101000a81548173ffffffffffffffffffffffffffffffffffffffff021916908373ffffffffffffffffffffffffffffffffffffffff16021790555034801561006557600080fd5b50600160008190555033600360006101000a81548173ffffffffffffffffffffffffffffffffffffffff021916908373ffffffffffffffffffffffffffffffffffffffff16021790555061281c806100be6000396000f3fe60806040526004361061007b5760003560e01c8063b4cfb07f1161004e578063b4cfb07f14610153578063c23b139e14610190578063d6077fbf146101ac578063deb1250d146101e95761007b565b806310afee1e146100805780631f10e57a146100bd57806358eb2df5146100fa57806364a37ccc14610116575b600080fd5b34801561008c57600080fd5b506100a760048036038101906100a29190611eb3565b610226565b6040516100b49190612342565b60405180910390f35b3480156100c957600080fd5b506100e460048036038101906100df9190611eb3565b61062f565b6040516100f19190612342565b60405180910390f35b610114600480360381019061010f9190611f18565b610ba0565b005b34801561012257600080fd5b5061013d60048036038101906101389190611eb3565b611012565b60405161014a9190612342565b60405180910390f35b34801561015f57600080fd5b5061017a60048036038101906101759190611eb3565b61148b565b6040516101879190612342565b60405180910390f35b6101aa60048036038101906101a59190611edc565b611894565b005b3480156101b857600080fd5b506101d360048036038101906101ce9190611f67565b611ae2565b6040516101e09190612460565b60405180910390f35b3480156101f557600080fd5b50610210600480360381019061020b9190611f67565b611af8565b60405161021d9190612444565b60405180910390f35b606060006102346001611dc6565b905060008060005b838110156102dd578573ffffffffffffffffffffffffffffffffffffffff166005600060018461026c91906124c5565b815260200190815260200160002060040160009054906101000a900473ffffffffffffffffffffffffffffffffffffffff1673ffffffffffffffffffffffffffffffffffffffff1614156102ca576001836102c791906124c5565b92505b80806102d5906125a6565b91505061023c565b5060008267ffffffffffffffff811115610320577f4e487b7100000000000000000000000000000000000000000000000000000000600052604160045260246000fd5b60405190808252806020026020018201604052801561035957816020015b610346611dea565b81526020019060019003908161033e5790505b50905060005b84811015610622578673ffffffffffffffffffffffffffffffffffffffff166005600060018461038f91906124c5565b815260200190815260200160002060040160009054906101000a900473ffffffffffffffffffffffffffffffffffffffff1673ffffffffffffffffffffffffffffffffffffffff16141561060f576000600560006001846103f091906124c5565b815260200190815260200160002060000154905060006005600083815260200190815260200160002090508060405180610100016040529081600082015481526020016001820160009054906101000a900473ffffffffffffffffffffffffffffffffffffffff1673ffffffffffffffffffffffffffffffffffffffff1673ffffffffffffffffffffffffffffffffffffffff168152602001600282015481526020016003820160009054906101000a900473ffffffffffffffffffffffffffffffffffffffff1673ffffffffffffffffffffffffffffffffffffffff1673ffffffffffffffffffffffffffffffffffffffff1681526020016004820160009054906101000a900473ffffffffffffffffffffffffffffffffffffffff1673ffffffffffffffffffffffffffffffffffffffff1673ffffffffffffffffffffffffffffffffffffffff1681526020016005820160009054906101000a900473ffffffffffffffffffffffffffffffffffffffff1673ffffffffffffffffffffffffffffffffffffffff1673ffffffffffffffffffffffffffffffffffffffff168152602001600682015481526020016007820160009054906101000a900460ff1615151515815250508486815181106105f2577f4e487b7100000000000000000000000000000000000000000000000000000000600052603260045260246000fd5b602002602001018190525060018561060a91906124c5565b945050505b808061061a906125a6565b91505061035f565b5080945050505050919050565b6060600061063d6001611dc6565b905060008060005b8381101561079a57600073ffffffffffffffffffffffffffffffffffffffff166005600060018461067691906124c5565b815260200190815260200160002060040160009054906101000a900473ffffffffffffffffffffffffffffffffffffffff1673ffffffffffffffffffffffffffffffffffffffff1614801561073957508573ffffffffffffffffffffffffffffffffffffffff16600560006001846106ee91906124c5565b815260200190815260200160002060050160009054906101000a900473ffffffffffffffffffffffffffffffffffffffff1673ffffffffffffffffffffffffffffffffffffffff1614155b801561077257506005600060018361075191906124c5565b815260200190815260200160002060070160009054906101000a900460ff16155b156107875760018361078491906124c5565b92505b8080610792906125a6565b915050610645565b5060008267ffffffffffffffff8111156107dd577f4e487b7100000000000000000000000000000000000000000000000000000000600052604160045260246000fd5b60405190808252806020026020018201604052801561081657816020015b610803611dea565b8152602001906001900390816107fb5790505b50905060005b84811015610b9357600073ffffffffffffffffffffffffffffffffffffffff166005600060018461084d91906124c5565b815260200190815260200160002060040160009054906101000a900473ffffffffffffffffffffffffffffffffffffffff1673ffffffffffffffffffffffffffffffffffffffff1614801561091057508673ffffffffffffffffffffffffffffffffffffffff16600560006001846108c591906124c5565b815260200190815260200160002060050160009054906101000a900473ffffffffffffffffffffffffffffffffffffffff1673ffffffffffffffffffffffffffffffffffffffff1614155b801561094957506005600060018361092891906124c5565b815260200190815260200160002060070160009054906101000a900460ff16155b15610b805760006005600060018461096191906124c5565b815260200190815260200160002060000154905060006005600083815260200190815260200160002090508060405180610100016040529081600082015481526020016001820160009054906101000a900473ffffffffffffffffffffffffffffffffffffffff1673ffffffffffffffffffffffffffffffffffffffff1673ffffffffffffffffffffffffffffffffffffffff168152602001600282015481526020016003820160009054906101000a900473ffffffffffffffffffffffffffffffffffffffff1673ffffffffffffffffffffffffffffffffffffffff1673ffffffffffffffffffffffffffffffffffffffff1681526020016004820160009054906101000a900473ffffffffffffffffffffffffffffffffffffffff1673ffffffffffffffffffffffffffffffffffffffff1673ffffffffffffffffffffffffffffffffffffffff1681526020016005820160009054906101000a900473ffffffffffffffffffffffffffffffffffffffff1673ffffffffffffffffffffffffffffffffffffffff1673ffffffffffffffffffffffffffffffffffffffff168152602001600682015481526020016007820160009054906101000a900460ff161515151581525050848681518110610b63577f4e487b7100000000000000000000000000000000000000000000000000000000600052603260045260246000fd5b6020026020010181905250600185610b7b91906124c5565b945050505b8080610b8b906125a6565b91505061081c565b5080945050505050919050565b60026000541415610be6576040517f08c379a0000000000000000000000000000000000000000000000000000000008152600401610bdd90612404565b60405180910390fd5b600260008190555060008111610c31576040517f08c379a0000000000000000000000000000000000000000000000000000000008152600401610c2890612424565b60405180910390fd5b6000610c3c82611ae2565b9050803414610c80576040517f08c379a0000000000000000000000000000000000000000000000000000000008152600401610c77906123e4565b60405180910390fd5b6000600460009054906101000a900473ffffffffffffffffffffffffffffffffffffffff1673ffffffffffffffffffffffffffffffffffffffff166108fc839081150290604051600060405180830381858888f19350505050905080610d1b576040517f08c379a0000000000000000000000000000000000000000000000000000000008152600401610d1290612384565b60405180910390fd5b610d256001611dd4565b6000610d316001611dc6565b90506040518061010001604052808281526020018773ffffffffffffffffffffffffffffffffffffffff1681526020018681526020013373ffffffffffffffffffffffffffffffffffffffff168152602001600073ffffffffffffffffffffffffffffffffffffffff1681526020013373ffffffffffffffffffffffffffffffffffffffff16815260200185815260200160001515815250600560008381526020019081526020016000206000820151816000015560208201518160010160006101000a81548173ffffffffffffffffffffffffffffffffffffffff021916908373ffffffffffffffffffffffffffffffffffffffff1602179055506040820151816002015560608201518160030160006101000a81548173ffffffffffffffffffffffffffffffffffffffff021916908373ffffffffffffffffffffffffffffffffffffffff16021790555060808201518160040160006101000a81548173ffffffffffffffffffffffffffffffffffffffff021916908373ffffffffffffffffffffffffffffffffffffffff16021790555060a08201518160050160006101000a81548173ffffffffffffffffffffffffffffffffffffffff021916908373ffffffffffffffffffffffffffffffffffffffff16021790555060c0820151816006015560e08201518160070160006101000a81548160ff0219169083151502179055509050508573ffffffffffffffffffffffffffffffffffffffff166323b872dd3330886040518463ffffffff1660e01b8152600401610f769392919061230b565b600060405180830381600087803b158015610f9057600080fd5b505af1158015610fa4573d6000803e3d6000fd5b50505050848673ffffffffffffffffffffffffffffffffffffffff16827ff6a6e998cdb71a54614f951c87c07828d557c9d2d501f61d4183e344a06445c5336000338a6000604051610ffa9594939291906122b8565b60405180910390a45050506001600081905550505050565b606060006110206001611dc6565b905060008060005b83811015611101578573ffffffffffffffffffffffffffffffffffffffff166005600060018461105891906124c5565b815260200190815260200160002060050160009054906101000a900473ffffffffffffffffffffffffffffffffffffffff1673ffffffffffffffffffffffffffffffffffffffff161480156110d95750600560006001836110b991906124c5565b815260200190815260200160002060070160009054906101000a900460ff165b156110ee576001836110eb91906124c5565b92505b80806110f9906125a6565b915050611028565b5060008267ffffffffffffffff811115611144577f4e487b7100000000000000000000000000000000000000000000000000000000600052604160045260246000fd5b60405190808252806020026020018201604052801561117d57816020015b61116a611dea565b8152602001906001900390816111625790505b50905060005b8481101561147e578673ffffffffffffffffffffffffffffffffffffffff16600560006001846111b391906124c5565b815260200190815260200160002060050160009054906101000a900473ffffffffffffffffffffffffffffffffffffffff1673ffffffffffffffffffffffffffffffffffffffff1614801561123457506005600060018361121491906124c5565b815260200190815260200160002060070160009054906101000a900460ff165b1561146b5760006005600060018461124c91906124c5565b815260200190815260200160002060000154905060006005600083815260200190815260200160002090508060405180610100016040529081600082015481526020016001820160009054906101000a900473ffffffffffffffffffffffffffffffffffffffff1673ffffffffffffffffffffffffffffffffffffffff1673ffffffffffffffffffffffffffffffffffffffff168152602001600282015481526020016003820160009054906101000a900473ffffffffffffffffffffffffffffffffffffffff1673ffffffffffffffffffffffffffffffffffffffff1673ffffffffffffffffffffffffffffffffffffffff1681526020016004820160009054906101000a900473ffffffffffffffffffffffffffffffffffffffff1673ffffffffffffffffffffffffffffffffffffffff1673ffffffffffffffffffffffffffffffffffffffff1681526020016005820160009054906101000a900473ffffffffffffffffffffffffffffffffffffffff1673ffffffffffffffffffffffffffffffffffffffff1673ffffffffffffffffffffffffffffffffffffffff168152602001600682015481526020016007820160009054906101000a900460ff16151515158152505084868151811061144e577f4e487b7100000000000000000000000000000000000000000000000000000000600052603260045260246000fd5b602002602001018190525060018561146691906124c5565b945050505b8080611476906125a6565b915050611183565b5080945050505050919050565b606060006114996001611dc6565b905060008060005b83811015611542578573ffffffffffffffffffffffffffffffffffffffff16600560006001846114d191906124c5565b815260200190815260200160002060050160009054906101000a900473ffffffffffffffffffffffffffffffffffffffff1673ffffffffffffffffffffffffffffffffffffffff16141561152f5760018361152c91906124c5565b92505b808061153a906125a6565b9150506114a1565b5060008267ffffffffffffffff811115611585577f4e487b7100000000000000000000000000000000000000000000000000000000600052604160045260246000fd5b6040519080825280602002602001820160405280156115be57816020015b6115ab611dea565b8152602001906001900390816115a35790505b50905060005b84811015611887578673ffffffffffffffffffffffffffffffffffffffff16600560006001846115f491906124c5565b815260200190815260200160002060050160009054906101000a900473ffffffffffffffffffffffffffffffffffffffff1673ffffffffffffffffffffffffffffffffffffffff1614156118745760006005600060018461165591906124c5565b815260200190815260200160002060000154905060006005600083815260200190815260200160002090508060405180610100016040529081600082015481526020016001820160009054906101000a900473ffffffffffffffffffffffffffffffffffffffff1673ffffffffffffffffffffffffffffffffffffffff1673ffffffffffffffffffffffffffffffffffffffff168152602001600282015481526020016003820160009054906101000a900473ffffffffffffffffffffffffffffffffffffffff1673ffffffffffffffffffffffffffffffffffffffff1673ffffffffffffffffffffffffffffffffffffffff1681526020016004820160009054906101000a900473ffffffffffffffffffffffffffffffffffffffff1673ffffffffffffffffffffffffffffffffffffffff1673ffffffffffffffffffffffffffffffffffffffff1681526020016005820160009054906101000a900473ffffffffffffffffffffffffffffffffffffffff1673ffffffffffffffffffffffffffffffffffffffff1673ffffffffffffffffffffffffffffffffffffffff168152602001600682015481526020016007820160009054906101000a900460ff161515151581525050848681518110611857577f4e487b7100000000000000000000000000000000000000000000000000000000600052603260045260246000fd5b602002602001018190525060018561186f91906124c5565b945050505b808061187f906125a6565b9150506115c4565b5080945050505050919050565b600260005414156118da576040517f08c379a00000000000000000000000000000000000000000000000000000000081526004016118d190612404565b60405180910390fd5b600260008190555060006005600083815260200190815260200160002060060154905060006005600084815260200190815260200160002060020154905081341461195a576040517f08c379a0000000000000000000000000000000000000000000000000000000008152600401611951906123a4565b60405180910390fd5b6005600084815260200190815260200160002060030160009054906101000a900473ffffffffffffffffffffffffffffffffffffffff1673ffffffffffffffffffffffffffffffffffffffff166108fc349081150290604051600060405180830381858888f193505050501580156119d6573d6000803e3d6000fd5b508373ffffffffffffffffffffffffffffffffffffffff166323b872dd3033846040518463ffffffff1660e01b8152600401611a149392919061230b565b600060405180830381600087803b158015611a2e57600080fd5b505af1158015611a42573d6000803e3d6000fd5b50505050336005600085815260200190815260200160002060040160006101000a81548173ffffffffffffffffffffffffffffffffffffffff021916908373ffffffffffffffffffffffffffffffffffffffff16021790555060016005600085815260200190815260200160002060070160006101000a81548160ff021916908315150217905550611ad46002611dd4565b505060016000819055505050565b6000606482611af1919061251b565b9050919050565b611b00611dea565b6000611b0c6001611dc6565b905060006005600085815260200190815260200160002060070160009054906101000a900460ff1690508015611b77576040517f08c379a0000000000000000000000000000000000000000000000000000000008152600401611b6e906123c4565b60405180910390fd5b60005b82811015611d85578460056000600184611b9491906124c5565b8152602001908152602001600020600001541415611d725760056000600183611bbd91906124c5565b815260200190815260200160002060405180610100016040529081600082015481526020016001820160009054906101000a900473ffffffffffffffffffffffffffffffffffffffff1673ffffffffffffffffffffffffffffffffffffffff1673ffffffffffffffffffffffffffffffffffffffff168152602001600282015481526020016003820160009054906101000a900473ffffffffffffffffffffffffffffffffffffffff1673ffffffffffffffffffffffffffffffffffffffff1673ffffffffffffffffffffffffffffffffffffffff1681526020016004820160009054906101000a900473ffffffffffffffffffffffffffffffffffffffff1673ffffffffffffffffffffffffffffffffffffffff1673ffffffffffffffffffffffffffffffffffffffff1681526020016005820160009054906101000a900473ffffffffffffffffffffffffffffffffffffffff1673ffffffffffffffffffffffffffffffffffffffff1673ffffffffffffffffffffffffffffffffffffffff168152602001600682015481526020016007820160009054906101000a900460ff1615151515815250509350505050611dc1565b8080611d7d906125a6565b915050611b7a565b506040517f08c379a0000000000000000000000000000000000000000000000000000000008152600401611db890612364565b60405180910390fd5b919050565b600081600001549050919050565b6001816000016000828254019250508190555050565b60405180610100016040528060008152602001600073ffffffffffffffffffffffffffffffffffffffff16815260200160008152602001600073ffffffffffffffffffffffffffffffffffffffff168152602001600073ffffffffffffffffffffffffffffffffffffffff168152602001600073ffffffffffffffffffffffffffffffffffffffff168152602001600081526020016000151581525090565b600081359050611e98816127b8565b92915050565b600081359050611ead816127cf565b92915050565b600060208284031215611ec557600080fd5b6000611ed384828501611e89565b91505092915050565b60008060408385031215611eef57600080fd5b6000611efd85828601611e89565b9250506020611f0e85828601611e9e565b9150509250929050565b600080600060608486031215611f2d57600080fd5b6000611f3b86828701611e89565b9350506020611f4c86828701611e9e565b9250506040611f5d86828701611e9e565b9150509250925092565b600060208284031215611f7957600080fd5b6000611f8784828501611e9e565b91505092915050565b6000611f9c8383612156565b6101008301905092915050565b611fb28161255e565b82525050565b611fc18161255e565b82525050565b611fd08161254c565b82525050565b611fdf8161254c565b82525050565b6000611ff08261248b565b611ffa81856124a3565b93506120058361247b565b8060005b8381101561203657815161201d8882611f90565b975061202883612496565b925050600181019050612009565b5085935050505092915050565b61204c81612570565b82525050565b61205b81612570565b82525050565b600061206e6009836124b4565b91506120798261264d565b602082019050919050565b60006120916014836124b4565b915061209c82612676565b602082019050919050565b60006120b46040836124b4565b91506120bf8261269f565b604082019050919050565b60006120d7601b836124b4565b91506120e2826126ee565b602082019050919050565b60006120fa6024836124b4565b915061210582612717565b604082019050919050565b600061211d601f836124b4565b915061212882612766565b602082019050919050565b6000612140601c836124b4565b915061214b8261278f565b602082019050919050565b6101008201600082015161216d600085018261229a565b5060208201516121806020850182611fc7565b506040820151612193604085018261229a565b5060608201516121a66060850182611fa9565b5060808201516121b96080850182611fa9565b5060a08201516121cc60a0850182611fc7565b5060c08201516121df60c085018261229a565b5060e08201516121f260e0850182612043565b50505050565b6101008201600082015161220f600085018261229a565b5060208201516122226020850182611fc7565b506040820151612235604085018261229a565b5060608201516122486060850182611fa9565b50608082015161225b6080850182611fa9565b5060a082015161226e60a0850182611fc7565b5060c082015161228160c085018261229a565b5060e082015161229460e0850182612043565b50505050565b6122a38161259c565b82525050565b6122b28161259c565b82525050565b600060a0820190506122cd6000830188611fb8565b6122da6020830187611fb8565b6122e76040830186611fd6565b6122f460608301856122a9565b6123016080830184612052565b9695505050505050565b60006060820190506123206000830186611fd6565b61232d6020830185611fd6565b61233a60408301846122a9565b949350505050565b6000602082019050818103600083015261235c8184611fe5565b905092915050565b6000602082019050818103600083015261237d81612061565b9050919050565b6000602082019050818103600083015261239d81612084565b9050919050565b600060208201905081810360008301526123bd816120a7565b9050919050565b600060208201905081810360008301526123dd816120ca565b9050919050565b600060208201905081810360008301526123fd816120ed565b9050919050565b6000602082019050818103600083015261241d81612110565b9050919050565b6000602082019050818103600083015261243d81612133565b9050919050565b60006101008201905061245a60008301846121f8565b92915050565b600060208201905061247560008301846122a9565b92915050565b6000819050602082019050919050565b600081519050919050565b6000602082019050919050565b600082825260208201905092915050565b600082825260208201905092915050565b60006124d08261259c565b91506124db8361259c565b9250827fffffffffffffffffffffffffffffffffffffffffffffffffffffffffffffffff038211156125105761250f6125ef565b5b828201905092915050565b60006125268261259c565b91506125318361259c565b9250826125415761254061261e565b5b828204905092915050565b60006125578261257c565b9050919050565b60006125698261257c565b9050919050565b60008115159050919050565b600073ffffffffffffffffffffffffffffffffffffffff82169050919050565b6000819050919050565b60006125b18261259c565b91507fffffffffffffffffffffffffffffffffffffffffffffffffffffffffffffffff8214156125e4576125e36125ef565b5b600182019050919050565b7f4e487b7100000000000000000000000000000000000000000000000000000000600052601160045260246000fd5b7f4e487b7100000000000000000000000000000000000000000000000000000000600052601260045260246000fd5b7f4e6f7420666f756e640000000000000000000000000000000000000000000000600082015250565b7f4661696c656420746f2073656e64204574686572000000000000000000000000600082015250565b7f506c65617365207375626d6974207468652061736b696e67207072696365206960008201527f6e206f7264657220746f20636f6d706c65746520746865207075726368617365602082015250565b7f4974656d2068617320616c7265616479206265656e20736f6c642e0000000000600082015250565b7f5072696365206d75737420626520657175616c20746f206c697374696e67207060008201527f7269636500000000000000000000000000000000000000000000000000000000602082015250565b7f5265656e7472616e637947756172643a207265656e7472616e742063616c6c00600082015250565b7f5072696365206d757374206265206174206c6561737420312077656900000000600082015250565b6127c18161254c565b81146127cc57600080fd5b50565b6127d88161259c565b81146127e357600080fd5b5056fea26469706673582212208d8507e3a1fccded97b9a56f98781adf9cfada7d929c504b14901417a2de487a64736f6c63430008040033",
  "linkReferences": {},
  "deployedLinkReferences": {}
}