{
  "_format": "hh-sol-artifact-1",
  "contractName": "NFTMarket",
  "sourceName": "contracts/NFTMarket.sol",
  "abi": [
    {
      "inputs": [],
      "stateMutability": "nonpayable",
      "type": "constructor"
    },
    {
      "anonymous": false,
      "inputs": [
        {
          "indexed": true,
          "internalType": "uint256",
          "name": "itemID",
          "type": "uint256"
        },
        {
          "indexed": true,
          "internalType": "address",
          "name": "nftContract",
          "type": "address"
        },
        {
          "indexed": true,
          "internalType": "uint256",
          "name": "tokenID",
          "type": "uint256"
        },
        {
          "indexed": false,
          "internalType": "address payable",
          "name": "seller",
          "type": "address"
        },
        {
          "indexed": false,
          "internalType": "address payable",
          "name": "owner",
          "type": "address"
        },
        {
          "indexed": false,
          "internalType": "address",
          "name": "creator",
          "type": "address"
        },
        {
          "indexed": false,
          "internalType": "uint256",
          "name": "price",
          "type": "uint256"
        },
        {
          "indexed": false,
          "internalType": "bool",
          "name": "sold",
          "type": "bool"
        }
      ],
      "name": "MarketItemCreated",
      "type": "event"
    },
    {
      "inputs": [
        {
          "internalType": "address",
          "name": "nftContract",
          "type": "address"
        },
        {
          "internalType": "uint256",
          "name": "tokenID",
          "type": "uint256"
        },
        {
          "internalType": "uint256",
          "name": "price",
          "type": "uint256"
        }
      ],
      "name": "createMarketItem",
      "outputs": [],
      "stateMutability": "payable",
      "type": "function"
    },
    {
      "inputs": [
        {
          "internalType": "address",
          "name": "nftContract",
          "type": "address"
        },
        {
          "internalType": "uint256",
          "name": "itemID",
          "type": "uint256"
        }
      ],
      "name": "createMarketSale",
      "outputs": [],
      "stateMutability": "payable",
      "type": "function"
    },
    {
      "inputs": [
        {
          "internalType": "address",
          "name": "signerAddress",
          "type": "address"
        }
      ],
      "name": "fetchCreatedItems",
      "outputs": [
        {
          "components": [
            {
              "internalType": "uint256",
              "name": "itemID",
              "type": "uint256"
            },
            {
              "internalType": "address",
              "name": "nftContract",
              "type": "address"
            },
            {
              "internalType": "uint256",
              "name": "tokenID",
              "type": "uint256"
            },
            {
              "internalType": "address payable",
              "name": "seller",
              "type": "address"
            },
            {
              "internalType": "address payable",
              "name": "owner",
              "type": "address"
            },
            {
              "internalType": "address",
              "name": "creator",
              "type": "address"
            },
            {
              "internalType": "uint256",
              "name": "price",
              "type": "uint256"
            },
            {
              "internalType": "bool",
              "name": "sold",
              "type": "bool"
            }
          ],
          "internalType": "struct NFTMarket.MarketItem[]",
          "name": "",
          "type": "tuple[]"
        }
      ],
      "stateMutability": "view",
      "type": "function"
    },
    {
      "inputs": [
        {
          "internalType": "address",
          "name": "signerAddress",
          "type": "address"
        },
        {
          "internalType": "uint256",
          "name": "page",
          "type": "uint256"
        }
      ],
      "name": "fetchMarketItems",
      "outputs": [
        {
          "components": [
            {
              "internalType": "uint256",
              "name": "itemID",
              "type": "uint256"
            },
            {
              "internalType": "address",
              "name": "nftContract",
              "type": "address"
            },
            {
              "internalType": "uint256",
              "name": "tokenID",
              "type": "uint256"
            },
            {
              "internalType": "address payable",
              "name": "seller",
              "type": "address"
            },
            {
              "internalType": "address payable",
              "name": "owner",
              "type": "address"
            },
            {
              "internalType": "address",
              "name": "creator",
              "type": "address"
            },
            {
              "internalType": "uint256",
              "name": "price",
              "type": "uint256"
            },
            {
              "internalType": "bool",
              "name": "sold",
              "type": "bool"
            }
          ],
          "internalType": "struct NFTMarket.MarketItem[]",
          "name": "",
          "type": "tuple[]"
        }
      ],
      "stateMutability": "view",
      "type": "function"
    },
    {
      "inputs": [
        {
          "internalType": "address",
          "name": "signerAddress",
          "type": "address"
        }
      ],
      "name": "fetchMyNFTs",
      "outputs": [
        {
          "components": [
            {
              "internalType": "uint256",
              "name": "itemID",
              "type": "uint256"
            },
            {
              "internalType": "address",
              "name": "nftContract",
              "type": "address"
            },
            {
              "internalType": "uint256",
              "name": "tokenID",
              "type": "uint256"
            },
            {
              "internalType": "address payable",
              "name": "seller",
              "type": "address"
            },
            {
              "internalType": "address payable",
              "name": "owner",
              "type": "address"
            },
            {
              "internalType": "address",
              "name": "creator",
              "type": "address"
            },
            {
              "internalType": "uint256",
              "name": "price",
              "type": "uint256"
            },
            {
              "internalType": "bool",
              "name": "sold",
              "type": "bool"
            }
          ],
          "internalType": "struct NFTMarket.MarketItem[]",
          "name": "",
          "type": "tuple[]"
        }
      ],
      "stateMutability": "view",
      "type": "function"
    },
    {
      "inputs": [
        {
          "internalType": "uint256",
          "name": "itemID",
          "type": "uint256"
        }
      ],
      "name": "fetchNFT",
      "outputs": [
        {
          "components": [
            {
              "internalType": "uint256",
              "name": "itemID",
              "type": "uint256"
            },
            {
              "internalType": "address",
              "name": "nftContract",
              "type": "address"
            },
            {
              "internalType": "uint256",
              "name": "tokenID",
              "type": "uint256"
            },
            {
              "internalType": "address payable",
              "name": "seller",
              "type": "address"
            },
            {
              "internalType": "address payable",
              "name": "owner",
              "type": "address"
            },
            {
              "internalType": "address",
              "name": "creator",
              "type": "address"
            },
            {
              "internalType": "uint256",
              "name": "price",
              "type": "uint256"
            },
            {
              "internalType": "bool",
              "name": "sold",
              "type": "bool"
            }
          ],
          "internalType": "struct NFTMarket.MarketItem",
          "name": "",
          "type": "tuple"
        }
      ],
      "stateMutability": "view",
      "type": "function"
    },
    {
      "inputs": [
        {
          "internalType": "address",
          "name": "signerAddress",
          "type": "address"
        }
      ],
      "name": "fetchSoldItems",
      "outputs": [
        {
          "components": [
            {
              "internalType": "uint256",
              "name": "itemID",
              "type": "uint256"
            },
            {
              "internalType": "address",
              "name": "nftContract",
              "type": "address"
            },
            {
              "internalType": "uint256",
              "name": "tokenID",
              "type": "uint256"
            },
            {
              "internalType": "address payable",
              "name": "seller",
              "type": "address"
            },
            {
              "internalType": "address payable",
              "name": "owner",
              "type": "address"
            },
            {
              "internalType": "address",
              "name": "creator",
              "type": "address"
            },
            {
              "internalType": "uint256",
              "name": "price",
              "type": "uint256"
            },
            {
              "internalType": "bool",
              "name": "sold",
              "type": "bool"
            }
          ],
          "internalType": "struct NFTMarket.MarketItem[]",
          "name": "",
          "type": "tuple[]"
        }
      ],
      "stateMutability": "view",
      "type": "function"
    },
    {
      "inputs": [
        {
          "internalType": "uint256",
          "name": "price",
          "type": "uint256"
        }
      ],
      "name": "getListingPrice",
      "outputs": [
        {
          "internalType": "uint256",
          "name": "",
          "type": "uint256"
        }
      ],
      "stateMutability": "pure",
      "type": "function"
    },
    {
      "inputs": [
        {
          "internalType": "address",
          "name": "signerAddress",
          "type": "address"
        }
      ],
      "name": "getPageCount",
      "outputs": [
        {
          "internalType": "uint256",
          "name": "",
          "type": "uint256"
        }
      ],
      "stateMutability": "view",
      "type": "function"
    }
  ],
  "bytecode": "0x6080604052733c44cdddb6a900fa2b585dd299e03d12fa4293bc600460006101000a81548173ffffffffffffffffffffffffffffffffffffffff021916908373ffffffffffffffffffffffffffffffffffffffff16021790555034801561006557600080fd5b50600160008190555033600360006101000a81548173ffffffffffffffffffffffffffffffffffffffff021916908373ffffffffffffffffffffffffffffffffffffffff160217905550612ce9806100be6000396000f3fe6080604052600436106100865760003560e01c8063b4cfb07f11610059578063b4cfb07f1461015e578063c23b139e1461019b578063d6077fbf146101b7578063deb1250d146101f4578063fc8610161461023157610086565b806310afee1e1461008b5780632195aa8f146100c857806358eb2df51461010557806364a37ccc14610121575b600080fd5b34801561009757600080fd5b506100b260048036038101906100ad9190612255565b61026e565b6040516100bf9190612707565b60405180910390f35b3480156100d457600080fd5b506100ef60048036038101906100ea919061227e565b610677565b6040516100fc9190612707565b60405180910390f35b61011f600480360381019061011a91906122ba565b610d3c565b005b34801561012d57600080fd5b5061014860048036038101906101439190612255565b6111ae565b6040516101559190612707565b60405180910390f35b34801561016a57600080fd5b5061018560048036038101906101809190612255565b611627565b6040516101929190612707565b60405180910390f35b6101b560048036038101906101b0919061227e565b611a30565b005b3480156101c357600080fd5b506101de60048036038101906101d99190612309565b611c7e565b6040516101eb9190612845565b60405180910390f35b34801561020057600080fd5b5061021b60048036038101906102169190612309565b611c94565b6040516102289190612829565b60405180910390f35b34801561023d57600080fd5b5061025860048036038101906102539190612255565b611ef8565b6040516102659190612845565b60405180910390f35b6060600061027c60016120a6565b905060008060005b83811015610325578573ffffffffffffffffffffffffffffffffffffffff16600560006001846102b491906128aa565b815260200190815260200160002060040160009054906101000a900473ffffffffffffffffffffffffffffffffffffffff1673ffffffffffffffffffffffffffffffffffffffff1614156103125760018361030f91906128aa565b92505b808061031d90612a19565b915050610284565b5060008267ffffffffffffffff811115610368577f4e487b7100000000000000000000000000000000000000000000000000000000600052604160045260246000fd5b6040519080825280602002602001820160405280156103a157816020015b61038e61218c565b8152602001906001900390816103865790505b50905060005b8481101561066a578673ffffffffffffffffffffffffffffffffffffffff16600560006001846103d791906128aa565b815260200190815260200160002060040160009054906101000a900473ffffffffffffffffffffffffffffffffffffffff1673ffffffffffffffffffffffffffffffffffffffff1614156106575760006005600060018461043891906128aa565b815260200190815260200160002060000154905060006005600083815260200190815260200160002090508060405180610100016040529081600082015481526020016001820160009054906101000a900473ffffffffffffffffffffffffffffffffffffffff1673ffffffffffffffffffffffffffffffffffffffff1673ffffffffffffffffffffffffffffffffffffffff168152602001600282015481526020016003820160009054906101000a900473ffffffffffffffffffffffffffffffffffffffff1673ffffffffffffffffffffffffffffffffffffffff1673ffffffffffffffffffffffffffffffffffffffff1681526020016004820160009054906101000a900473ffffffffffffffffffffffffffffffffffffffff1673ffffffffffffffffffffffffffffffffffffffff1673ffffffffffffffffffffffffffffffffffffffff1681526020016005820160009054906101000a900473ffffffffffffffffffffffffffffffffffffffff1673ffffffffffffffffffffffffffffffffffffffff1673ffffffffffffffffffffffffffffffffffffffff168152602001600682015481526020016007820160009054906101000a900460ff16151515158152505084868151811061063a577f4e487b7100000000000000000000000000000000000000000000000000000000600052603260045260246000fd5b602002602001018190525060018561065291906128aa565b945050505b808061066290612a19565b9150506103a7565b5080945050505050919050565b606060008210156106bd576040517f08c379a00000000000000000000000000000000000000000000000000000000081526004016106b490612769565b60405180910390fd5b60006106c960016120a6565b905060008060006002905060005b8481101561082c57600073ffffffffffffffffffffffffffffffffffffffff166005600060018461070891906128aa565b815260200190815260200160002060040160009054906101000a900473ffffffffffffffffffffffffffffffffffffffff1673ffffffffffffffffffffffffffffffffffffffff161480156107cb57508773ffffffffffffffffffffffffffffffffffffffff166005600060018461078091906128aa565b815260200190815260200160002060050160009054906101000a900473ffffffffffffffffffffffffffffffffffffffff1673ffffffffffffffffffffffffffffffffffffffff1614155b80156108045750600560006001836107e391906128aa565b815260200190815260200160002060070160009054906101000a900460ff16155b156108195760018461081691906128aa565b93505b808061082490612a19565b9150506106d7565b506000818461083b9190612900565b905081846108499190612931565b8110156108605760018161085d91906128aa565b90505b808711156108a3576040517f08c379a000000000000000000000000000000000000000000000000000000000815260040161089a906127a9565b60405180910390fd5b6000806000808711156109205760018a14156108d857868510156108cc578491508490506108d3565b8691508690505b61091b565b60018a6108e5919061298b565b856108f09190612931565b925089856108fe9190612931565b91508682111561090c578691505b8282610918919061298b565b90505b610925565b600094505b60008167ffffffffffffffff811115610967577f4e487b7100000000000000000000000000000000000000000000000000000000600052604160045260246000fd5b6040519080825280602002602001820160405280156109a057816020015b61098d61218c565b8152602001906001900390816109855790505b50905060008490505b83811015610d29576109ba816120b4565b600073ffffffffffffffffffffffffffffffffffffffff16600560006001846109e391906128aa565b815260200190815260200160002060040160009054906101000a900473ffffffffffffffffffffffffffffffffffffffff1673ffffffffffffffffffffffffffffffffffffffff16148015610aa657508c73ffffffffffffffffffffffffffffffffffffffff1660056000600184610a5b91906128aa565b815260200190815260200160002060050160009054906101000a900473ffffffffffffffffffffffffffffffffffffffff1673ffffffffffffffffffffffffffffffffffffffff1614155b8015610adf575060056000600183610abe91906128aa565b815260200190815260200160002060070160009054906101000a900460ff16155b15610d1657600060056000600184610af791906128aa565b815260200190815260200160002060000154905060006005600083815260200190815260200160002090508060405180610100016040529081600082015481526020016001820160009054906101000a900473ffffffffffffffffffffffffffffffffffffffff1673ffffffffffffffffffffffffffffffffffffffff1673ffffffffffffffffffffffffffffffffffffffff168152602001600282015481526020016003820160009054906101000a900473ffffffffffffffffffffffffffffffffffffffff1673ffffffffffffffffffffffffffffffffffffffff1673ffffffffffffffffffffffffffffffffffffffff1681526020016004820160009054906101000a900473ffffffffffffffffffffffffffffffffffffffff1673ffffffffffffffffffffffffffffffffffffffff1673ffffffffffffffffffffffffffffffffffffffff1681526020016005820160009054906101000a900473ffffffffffffffffffffffffffffffffffffffff1673ffffffffffffffffffffffffffffffffffffffff1673ffffffffffffffffffffffffffffffffffffffff168152602001600682015481526020016007820160009054906101000a900460ff161515151581525050848b81518110610cf9577f4e487b7100000000000000000000000000000000000000000000000000000000600052603260045260246000fd5b602002602001018190525060018a610d1191906128aa565b995050505b8080610d2190612a19565b9150506109a9565b5080995050505050505050505092915050565b60026000541415610d82576040517f08c379a0000000000000000000000000000000000000000000000000000000008152600401610d79906127e9565b60405180910390fd5b600260008190555060008111610dcd576040517f08c379a0000000000000000000000000000000000000000000000000000000008152600401610dc490612809565b60405180910390fd5b6000610dd882611c7e565b9050803414610e1c576040517f08c379a0000000000000000000000000000000000000000000000000000000008152600401610e13906127c9565b60405180910390fd5b6000600460009054906101000a900473ffffffffffffffffffffffffffffffffffffffff1673ffffffffffffffffffffffffffffffffffffffff166108fc839081150290604051600060405180830381858888f19350505050905080610eb7576040517f08c379a0000000000000000000000000000000000000000000000000000000008152600401610eae90612749565b60405180910390fd5b610ec1600161214d565b6000610ecd60016120a6565b90506040518061010001604052808281526020018773ffffffffffffffffffffffffffffffffffffffff1681526020018681526020013373ffffffffffffffffffffffffffffffffffffffff168152602001600073ffffffffffffffffffffffffffffffffffffffff1681526020013373ffffffffffffffffffffffffffffffffffffffff16815260200185815260200160001515815250600560008381526020019081526020016000206000820151816000015560208201518160010160006101000a81548173ffffffffffffffffffffffffffffffffffffffff021916908373ffffffffffffffffffffffffffffffffffffffff1602179055506040820151816002015560608201518160030160006101000a81548173ffffffffffffffffffffffffffffffffffffffff021916908373ffffffffffffffffffffffffffffffffffffffff16021790555060808201518160040160006101000a81548173ffffffffffffffffffffffffffffffffffffffff021916908373ffffffffffffffffffffffffffffffffffffffff16021790555060a08201518160050160006101000a81548173ffffffffffffffffffffffffffffffffffffffff021916908373ffffffffffffffffffffffffffffffffffffffff16021790555060c0820151816006015560e08201518160070160006101000a81548160ff0219169083151502179055509050508573ffffffffffffffffffffffffffffffffffffffff166323b872dd3330886040518463ffffffff1660e01b8152600401611112939291906126d0565b600060405180830381600087803b15801561112c57600080fd5b505af1158015611140573d6000803e3d6000fd5b50505050848673ffffffffffffffffffffffffffffffffffffffff16827ff6a6e998cdb71a54614f951c87c07828d557c9d2d501f61d4183e344a06445c5336000338a600060405161119695949392919061267d565b60405180910390a45050506001600081905550505050565b606060006111bc60016120a6565b905060008060005b8381101561129d578573ffffffffffffffffffffffffffffffffffffffff16600560006001846111f491906128aa565b815260200190815260200160002060050160009054906101000a900473ffffffffffffffffffffffffffffffffffffffff1673ffffffffffffffffffffffffffffffffffffffff1614801561127557506005600060018361125591906128aa565b815260200190815260200160002060070160009054906101000a900460ff165b1561128a5760018361128791906128aa565b92505b808061129590612a19565b9150506111c4565b5060008267ffffffffffffffff8111156112e0577f4e487b7100000000000000000000000000000000000000000000000000000000600052604160045260246000fd5b60405190808252806020026020018201604052801561131957816020015b61130661218c565b8152602001906001900390816112fe5790505b50905060005b8481101561161a578673ffffffffffffffffffffffffffffffffffffffff166005600060018461134f91906128aa565b815260200190815260200160002060050160009054906101000a900473ffffffffffffffffffffffffffffffffffffffff1673ffffffffffffffffffffffffffffffffffffffff161480156113d05750600560006001836113b091906128aa565b815260200190815260200160002060070160009054906101000a900460ff165b15611607576000600560006001846113e891906128aa565b815260200190815260200160002060000154905060006005600083815260200190815260200160002090508060405180610100016040529081600082015481526020016001820160009054906101000a900473ffffffffffffffffffffffffffffffffffffffff1673ffffffffffffffffffffffffffffffffffffffff1673ffffffffffffffffffffffffffffffffffffffff168152602001600282015481526020016003820160009054906101000a900473ffffffffffffffffffffffffffffffffffffffff1673ffffffffffffffffffffffffffffffffffffffff1673ffffffffffffffffffffffffffffffffffffffff1681526020016004820160009054906101000a900473ffffffffffffffffffffffffffffffffffffffff1673ffffffffffffffffffffffffffffffffffffffff1673ffffffffffffffffffffffffffffffffffffffff1681526020016005820160009054906101000a900473ffffffffffffffffffffffffffffffffffffffff1673ffffffffffffffffffffffffffffffffffffffff1673ffffffffffffffffffffffffffffffffffffffff168152602001600682015481526020016007820160009054906101000a900460ff1615151515815250508486815181106115ea577f4e487b7100000000000000000000000000000000000000000000000000000000600052603260045260246000fd5b602002602001018190525060018561160291906128aa565b945050505b808061161290612a19565b91505061131f565b5080945050505050919050565b6060600061163560016120a6565b905060008060005b838110156116de578573ffffffffffffffffffffffffffffffffffffffff166005600060018461166d91906128aa565b815260200190815260200160002060050160009054906101000a900473ffffffffffffffffffffffffffffffffffffffff1673ffffffffffffffffffffffffffffffffffffffff1614156116cb576001836116c891906128aa565b92505b80806116d690612a19565b91505061163d565b5060008267ffffffffffffffff811115611721577f4e487b7100000000000000000000000000000000000000000000000000000000600052604160045260246000fd5b60405190808252806020026020018201604052801561175a57816020015b61174761218c565b81526020019060019003908161173f5790505b50905060005b84811015611a23578673ffffffffffffffffffffffffffffffffffffffff166005600060018461179091906128aa565b815260200190815260200160002060050160009054906101000a900473ffffffffffffffffffffffffffffffffffffffff1673ffffffffffffffffffffffffffffffffffffffff161415611a10576000600560006001846117f191906128aa565b815260200190815260200160002060000154905060006005600083815260200190815260200160002090508060405180610100016040529081600082015481526020016001820160009054906101000a900473ffffffffffffffffffffffffffffffffffffffff1673ffffffffffffffffffffffffffffffffffffffff1673ffffffffffffffffffffffffffffffffffffffff168152602001600282015481526020016003820160009054906101000a900473ffffffffffffffffffffffffffffffffffffffff1673ffffffffffffffffffffffffffffffffffffffff1673ffffffffffffffffffffffffffffffffffffffff1681526020016004820160009054906101000a900473ffffffffffffffffffffffffffffffffffffffff1673ffffffffffffffffffffffffffffffffffffffff1673ffffffffffffffffffffffffffffffffffffffff1681526020016005820160009054906101000a900473ffffffffffffffffffffffffffffffffffffffff1673ffffffffffffffffffffffffffffffffffffffff1673ffffffffffffffffffffffffffffffffffffffff168152602001600682015481526020016007820160009054906101000a900460ff1615151515815250508486815181106119f3577f4e487b7100000000000000000000000000000000000000000000000000000000600052603260045260246000fd5b6020026020010181905250600185611a0b91906128aa565b945050505b8080611a1b90612a19565b915050611760565b5080945050505050919050565b60026000541415611a76576040517f08c379a0000000000000000000000000000000000000000000000000000000008152600401611a6d906127e9565b60405180910390fd5b6002600081905550600060056000838152602001908152602001600020600601549050600060056000848152602001908152602001600020600201549050813414611af6576040517f08c379a0000000000000000000000000000000000000000000000000000000008152600401611aed90612789565b60405180910390fd5b6005600084815260200190815260200160002060030160009054906101000a900473ffffffffffffffffffffffffffffffffffffffff1673ffffffffffffffffffffffffffffffffffffffff166108fc349081150290604051600060405180830381858888f19350505050158015611b72573d6000803e3d6000fd5b508373ffffffffffffffffffffffffffffffffffffffff166323b872dd3033846040518463ffffffff1660e01b8152600401611bb0939291906126d0565b600060405180830381600087803b158015611bca57600080fd5b505af1158015611bde573d6000803e3d6000fd5b50505050336005600085815260200190815260200160002060040160006101000a81548173ffffffffffffffffffffffffffffffffffffffff021916908373ffffffffffffffffffffffffffffffffffffffff16021790555060016005600085815260200190815260200160002060070160006101000a81548160ff021916908315150217905550611c70600261214d565b505060016000819055505050565b6000606482611c8d9190612900565b9050919050565b611c9c61218c565b6000611ca860016120a6565b905060005b81811015611eb7578360056000600184611cc791906128aa565b8152602001908152602001600020600001541415611ea45760056000600183611cf091906128aa565b815260200190815260200160002060405180610100016040529081600082015481526020016001820160009054906101000a900473ffffffffffffffffffffffffffffffffffffffff1673ffffffffffffffffffffffffffffffffffffffff1673ffffffffffffffffffffffffffffffffffffffff168152602001600282015481526020016003820160009054906101000a900473ffffffffffffffffffffffffffffffffffffffff1673ffffffffffffffffffffffffffffffffffffffff1673ffffffffffffffffffffffffffffffffffffffff1681526020016004820160009054906101000a900473ffffffffffffffffffffffffffffffffffffffff1673ffffffffffffffffffffffffffffffffffffffff1673ffffffffffffffffffffffffffffffffffffffff1681526020016005820160009054906101000a900473ffffffffffffffffffffffffffffffffffffffff1673ffffffffffffffffffffffffffffffffffffffff1673ffffffffffffffffffffffffffffffffffffffff168152602001600682015481526020016007820160009054906101000a900460ff16151515158152505092505050611ef3565b8080611eaf90612a19565b915050611cad565b506040517f08c379a0000000000000000000000000000000000000000000000000000000008152600401611eea90612729565b60405180910390fd5b919050565b600080611f0560016120a6565b90506000806002905060005b8381101561206657600073ffffffffffffffffffffffffffffffffffffffff1660056000600184611f4291906128aa565b815260200190815260200160002060040160009054906101000a900473ffffffffffffffffffffffffffffffffffffffff1673ffffffffffffffffffffffffffffffffffffffff1614801561200557508573ffffffffffffffffffffffffffffffffffffffff1660056000600184611fba91906128aa565b815260200190815260200160002060050160009054906101000a900473ffffffffffffffffffffffffffffffffffffffff1673ffffffffffffffffffffffffffffffffffffffff1614155b801561203e57506005600060018361201d91906128aa565b815260200190815260200160002060070160009054906101000a900460ff16155b156120535760018361205091906128aa565b92505b808061205e90612a19565b915050611f11565b50600081836120759190612900565b9050600082846120859190612a62565b1461209a5760018161209791906128aa565b90505b80945050505050919050565b600081600001549050919050565b61214a816040516024016120c89190612845565b6040516020818303038152906040527ff5b1bba9000000000000000000000000000000000000000000000000000000007bffffffffffffffffffffffffffffffffffffffffffffffffffffffff19166020820180517bffffffffffffffffffffffffffffffffffffffffffffffffffffffff8381831617835250505050612163565b50565b6001816000016000828254019250508190555050565b60008151905060006a636f6e736f6c652e6c6f679050602083016000808483855afa5050505050565b60405180610100016040528060008152602001600073ffffffffffffffffffffffffffffffffffffffff16815260200160008152602001600073ffffffffffffffffffffffffffffffffffffffff168152602001600073ffffffffffffffffffffffffffffffffffffffff168152602001600073ffffffffffffffffffffffffffffffffffffffff168152602001600081526020016000151581525090565b60008135905061223a81612c85565b92915050565b60008135905061224f81612c9c565b92915050565b60006020828403121561226757600080fd5b60006122758482850161222b565b91505092915050565b6000806040838503121561229157600080fd5b600061229f8582860161222b565b92505060206122b085828601612240565b9150509250929050565b6000806000606084860312156122cf57600080fd5b60006122dd8682870161222b565b93505060206122ee86828701612240565b92505060406122ff86828701612240565b9150509250925092565b60006020828403121561231b57600080fd5b600061232984828501612240565b91505092915050565b600061233e838361251b565b6101008301905092915050565b612354816129d1565b82525050565b612363816129d1565b82525050565b612372816129bf565b82525050565b612381816129bf565b82525050565b600061239282612870565b61239c8185612888565b93506123a783612860565b8060005b838110156123d85781516123bf8882612332565b97506123ca8361287b565b9250506001810190506123ab565b5085935050505092915050565b6123ee816129e3565b82525050565b6123fd816129e3565b82525050565b6000612410600983612899565b915061241b82612af1565b602082019050919050565b6000612433601483612899565b915061243e82612b1a565b602082019050919050565b6000612456600c83612899565b915061246182612b43565b602082019050919050565b6000612479604083612899565b915061248482612b6c565b604082019050919050565b600061249c601983612899565b91506124a782612bbb565b602082019050919050565b60006124bf602483612899565b91506124ca82612be4565b604082019050919050565b60006124e2601f83612899565b91506124ed82612c33565b602082019050919050565b6000612505601c83612899565b915061251082612c5c565b602082019050919050565b61010082016000820151612532600085018261265f565b5060208201516125456020850182612369565b506040820151612558604085018261265f565b50606082015161256b606085018261234b565b50608082015161257e608085018261234b565b5060a082015161259160a0850182612369565b5060c08201516125a460c085018261265f565b5060e08201516125b760e08501826123e5565b50505050565b610100820160008201516125d4600085018261265f565b5060208201516125e76020850182612369565b5060408201516125fa604085018261265f565b50606082015161260d606085018261234b565b506080820151612620608085018261234b565b5060a082015161263360a0850182612369565b5060c082015161264660c085018261265f565b5060e082015161265960e08501826123e5565b50505050565b61266881612a0f565b82525050565b61267781612a0f565b82525050565b600060a082019050612692600083018861235a565b61269f602083018761235a565b6126ac6040830186612378565b6126b9606083018561266e565b6126c660808301846123f4565b9695505050505050565b60006060820190506126e56000830186612378565b6126f26020830185612378565b6126ff604083018461266e565b949350505050565b600060208201905081810360008301526127218184612387565b905092915050565b6000602082019050818103600083015261274281612403565b9050919050565b6000602082019050818103600083015261276281612426565b9050919050565b6000602082019050818103600083015261278281612449565b9050919050565b600060208201905081810360008301526127a28161246c565b9050919050565b600060208201905081810360008301526127c28161248f565b9050919050565b600060208201905081810360008301526127e2816124b2565b9050919050565b60006020820190508181036000830152612802816124d5565b9050919050565b60006020820190508181036000830152612822816124f8565b9050919050565b60006101008201905061283f60008301846125bd565b92915050565b600060208201905061285a600083018461266e565b92915050565b6000819050602082019050919050565b600081519050919050565b6000602082019050919050565b600082825260208201905092915050565b600082825260208201905092915050565b60006128b582612a0f565b91506128c083612a0f565b9250827fffffffffffffffffffffffffffffffffffffffffffffffffffffffffffffffff038211156128f5576128f4612a93565b5b828201905092915050565b600061290b82612a0f565b915061291683612a0f565b92508261292657612925612ac2565b5b828204905092915050565b600061293c82612a0f565b915061294783612a0f565b9250817fffffffffffffffffffffffffffffffffffffffffffffffffffffffffffffffff04831182151516156129805761297f612a93565b5b828202905092915050565b600061299682612a0f565b91506129a183612a0f565b9250828210156129b4576129b3612a93565b5b828203905092915050565b60006129ca826129ef565b9050919050565b60006129dc826129ef565b9050919050565b60008115159050919050565b600073ffffffffffffffffffffffffffffffffffffffff82169050919050565b6000819050919050565b6000612a2482612a0f565b91507fffffffffffffffffffffffffffffffffffffffffffffffffffffffffffffffff821415612a5757612a56612a93565b5b600182019050919050565b6000612a6d82612a0f565b9150612a7883612a0f565b925082612a8857612a87612ac2565b5b828206905092915050565b7f4e487b7100000000000000000000000000000000000000000000000000000000600052601160045260246000fd5b7f4e487b7100000000000000000000000000000000000000000000000000000000600052601260045260246000fd5b7f4e6f7420666f756e640000000000000000000000000000000000000000000000600082015250565b7f4661696c656420746f2073656e64204574686572000000000000000000000000600082015250565b7f496e76616c696420706167650000000000000000000000000000000000000000600082015250565b7f506c65617365207375626d6974207468652061736b696e67207072696365206960008201527f6e206f7264657220746f20636f6d706c65746520746865207075726368617365602082015250565b7f54686174207061676520646f6573206e6f742065786973742e00000000000000600082015250565b7f5072696365206d75737420626520657175616c20746f206c697374696e67207060008201527f7269636500000000000000000000000000000000000000000000000000000000602082015250565b7f5265656e7472616e637947756172643a207265656e7472616e742063616c6c00600082015250565b7f5072696365206d757374206265206174206c6561737420312077656900000000600082015250565b612c8e816129bf565b8114612c9957600080fd5b50565b612ca581612a0f565b8114612cb057600080fd5b5056fea26469706673582212202e71ce3b19a3972e4f8b48c9691c535f9e333172575a68624fb39d802930343c64736f6c63430008040033",
  "linkReferences": {},
  "deployedLinkReferences": {}
}