{
  "_format": "hh-sol-artifact-1",
  "contractName": "NFTMarket",
  "sourceName": "contracts/NFTMarket.sol",
  "abi": [
    {
      "inputs": [],
      "stateMutability": "nonpayable",
      "type": "constructor"
    },
    {
      "anonymous": false,
      "inputs": [
        {
          "indexed": true,
          "internalType": "uint256",
          "name": "itemId",
          "type": "uint256"
        },
        {
          "indexed": true,
          "internalType": "address",
          "name": "nftContract",
          "type": "address"
        },
        {
          "indexed": true,
          "internalType": "uint256",
          "name": "tokenId",
          "type": "uint256"
        },
        {
          "indexed": false,
          "internalType": "address payable",
          "name": "seller",
          "type": "address"
        },
        {
          "indexed": false,
          "internalType": "address payable",
          "name": "owner",
          "type": "address"
        },
        {
          "indexed": false,
          "internalType": "address",
          "name": "creator",
          "type": "address"
        },
        {
          "indexed": false,
          "internalType": "uint256",
          "name": "price",
          "type": "uint256"
        },
        {
          "indexed": false,
          "internalType": "bool",
          "name": "sold",
          "type": "bool"
        }
      ],
      "name": "MarketItemCreated",
      "type": "event"
    },
    {
      "inputs": [
        {
          "internalType": "address",
          "name": "nftContract",
          "type": "address"
        },
        {
          "internalType": "uint256",
          "name": "tokenId",
          "type": "uint256"
        },
        {
          "internalType": "uint256",
          "name": "price",
          "type": "uint256"
        }
      ],
      "name": "createMarketItem",
      "outputs": [],
      "stateMutability": "payable",
      "type": "function"
    },
    {
      "inputs": [
        {
          "internalType": "address",
          "name": "nftContract",
          "type": "address"
        },
        {
          "internalType": "uint256",
          "name": "itemId",
          "type": "uint256"
        }
      ],
      "name": "createMarketSale",
      "outputs": [],
      "stateMutability": "payable",
      "type": "function"
    },
    {
      "inputs": [
        {
          "internalType": "address",
          "name": "signerAddress",
          "type": "address"
        }
      ],
      "name": "fetchCreatedItems",
      "outputs": [
        {
          "components": [
            {
              "internalType": "uint256",
              "name": "itemId",
              "type": "uint256"
            },
            {
              "internalType": "address",
              "name": "nftContract",
              "type": "address"
            },
            {
              "internalType": "uint256",
              "name": "tokenId",
              "type": "uint256"
            },
            {
              "internalType": "address payable",
              "name": "seller",
              "type": "address"
            },
            {
              "internalType": "address payable",
              "name": "owner",
              "type": "address"
            },
            {
              "internalType": "address",
              "name": "creator",
              "type": "address"
            },
            {
              "internalType": "uint256",
              "name": "price",
              "type": "uint256"
            },
            {
              "internalType": "bool",
              "name": "sold",
              "type": "bool"
            }
          ],
          "internalType": "struct NFTMarket.MarketItem[]",
          "name": "",
          "type": "tuple[]"
        }
      ],
      "stateMutability": "view",
      "type": "function"
    },
    {
      "inputs": [
        {
          "internalType": "address",
          "name": "signerAddress",
          "type": "address"
        }
      ],
      "name": "fetchMarketItems",
      "outputs": [
        {
          "components": [
            {
              "internalType": "uint256",
              "name": "itemId",
              "type": "uint256"
            },
            {
              "internalType": "address",
              "name": "nftContract",
              "type": "address"
            },
            {
              "internalType": "uint256",
              "name": "tokenId",
              "type": "uint256"
            },
            {
              "internalType": "address payable",
              "name": "seller",
              "type": "address"
            },
            {
              "internalType": "address payable",
              "name": "owner",
              "type": "address"
            },
            {
              "internalType": "address",
              "name": "creator",
              "type": "address"
            },
            {
              "internalType": "uint256",
              "name": "price",
              "type": "uint256"
            },
            {
              "internalType": "bool",
              "name": "sold",
              "type": "bool"
            }
          ],
          "internalType": "struct NFTMarket.MarketItem[]",
          "name": "",
          "type": "tuple[]"
        }
      ],
      "stateMutability": "view",
      "type": "function"
    },
    {
      "inputs": [
        {
          "internalType": "address",
          "name": "signerAddress",
          "type": "address"
        }
      ],
      "name": "fetchMyNFTs",
      "outputs": [
        {
          "components": [
            {
              "internalType": "uint256",
              "name": "itemId",
              "type": "uint256"
            },
            {
              "internalType": "address",
              "name": "nftContract",
              "type": "address"
            },
            {
              "internalType": "uint256",
              "name": "tokenId",
              "type": "uint256"
            },
            {
              "internalType": "address payable",
              "name": "seller",
              "type": "address"
            },
            {
              "internalType": "address payable",
              "name": "owner",
              "type": "address"
            },
            {
              "internalType": "address",
              "name": "creator",
              "type": "address"
            },
            {
              "internalType": "uint256",
              "name": "price",
              "type": "uint256"
            },
            {
              "internalType": "bool",
              "name": "sold",
              "type": "bool"
            }
          ],
          "internalType": "struct NFTMarket.MarketItem[]",
          "name": "",
          "type": "tuple[]"
        }
      ],
      "stateMutability": "view",
      "type": "function"
    },
    {
      "inputs": [
        {
          "internalType": "uint256",
          "name": "itemId",
          "type": "uint256"
        }
      ],
      "name": "fetchNFT",
      "outputs": [
        {
          "components": [
            {
              "internalType": "uint256",
              "name": "itemId",
              "type": "uint256"
            },
            {
              "internalType": "address",
              "name": "nftContract",
              "type": "address"
            },
            {
              "internalType": "uint256",
              "name": "tokenId",
              "type": "uint256"
            },
            {
              "internalType": "address payable",
              "name": "seller",
              "type": "address"
            },
            {
              "internalType": "address payable",
              "name": "owner",
              "type": "address"
            },
            {
              "internalType": "address",
              "name": "creator",
              "type": "address"
            },
            {
              "internalType": "uint256",
              "name": "price",
              "type": "uint256"
            },
            {
              "internalType": "bool",
              "name": "sold",
              "type": "bool"
            }
          ],
          "internalType": "struct NFTMarket.MarketItem",
          "name": "",
          "type": "tuple"
        }
      ],
      "stateMutability": "view",
      "type": "function"
    },
    {
      "inputs": [
        {
          "internalType": "address",
          "name": "signerAddress",
          "type": "address"
        }
      ],
      "name": "fetchSoldItems",
      "outputs": [
        {
          "components": [
            {
              "internalType": "uint256",
              "name": "itemId",
              "type": "uint256"
            },
            {
              "internalType": "address",
              "name": "nftContract",
              "type": "address"
            },
            {
              "internalType": "uint256",
              "name": "tokenId",
              "type": "uint256"
            },
            {
              "internalType": "address payable",
              "name": "seller",
              "type": "address"
            },
            {
              "internalType": "address payable",
              "name": "owner",
              "type": "address"
            },
            {
              "internalType": "address",
              "name": "creator",
              "type": "address"
            },
            {
              "internalType": "uint256",
              "name": "price",
              "type": "uint256"
            },
            {
              "internalType": "bool",
              "name": "sold",
              "type": "bool"
            }
          ],
          "internalType": "struct NFTMarket.MarketItem[]",
          "name": "",
          "type": "tuple[]"
        }
      ],
      "stateMutability": "view",
      "type": "function"
    },
    {
      "inputs": [
        {
          "internalType": "uint256",
          "name": "price",
          "type": "uint256"
        }
      ],
      "name": "getListingPrice",
      "outputs": [
        {
          "internalType": "uint256",
          "name": "",
          "type": "uint256"
        }
      ],
      "stateMutability": "pure",
      "type": "function"
    }
  ],
  "bytecode": "0x608060405234801561001057600080fd5b50600160008190555033600360006101000a81548173ffffffffffffffffffffffffffffffffffffffff021916908373ffffffffffffffffffffffffffffffffffffffff160217905550612b25806100696000396000f3fe60806040526004361061007b5760003560e01c8063b4cfb07f1161004e578063b4cfb07f14610153578063c23b139e14610190578063d6077fbf146101ac578063deb1250d146101e95761007b565b806310afee1e146100805780631f10e57a146100bd57806358eb2df5146100fa57806364a37ccc14610116575b600080fd5b34801561008c57600080fd5b506100a760048036038101906100a29190612125565b610226565b6040516100b491906125ca565b60405180910390f35b3480156100c957600080fd5b506100e460048036038101906100df9190612125565b61062f565b6040516100f191906125ca565b60405180910390f35b610114600480360381019061010f919061218a565b610ba0565b005b34801561012257600080fd5b5061013d60048036038101906101389190612125565b611081565b60405161014a91906125ca565b60405180910390f35b34801561015f57600080fd5b5061017a60048036038101906101759190612125565b6114fa565b60405161018791906125ca565b60405180910390f35b6101aa60048036038101906101a5919061214e565b611903565b005b3480156101b857600080fd5b506101d360048036038101906101ce91906121d9565b611b51565b6040516101e09190612743565b60405180910390f35b3480156101f557600080fd5b50610210600480360381019061020b91906121d9565b611b67565b60405161021d9190612727565b60405180910390f35b606060006102346001611e3e565b905060008060005b838110156102dd578573ffffffffffffffffffffffffffffffffffffffff166004600060018461026c91906127b3565b815260200190815260200160002060040160009054906101000a900473ffffffffffffffffffffffffffffffffffffffff1673ffffffffffffffffffffffffffffffffffffffff1614156102ca576001836102c791906127b3565b92505b80806102d5906128c7565b91505061023c565b5060008267ffffffffffffffff811115610320577f4e487b7100000000000000000000000000000000000000000000000000000000600052604160045260246000fd5b60405190808252806020026020018201604052801561035957816020015b61034661205c565b81526020019060019003908161033e5790505b50905060005b84811015610622578673ffffffffffffffffffffffffffffffffffffffff166004600060018461038f91906127b3565b815260200190815260200160002060040160009054906101000a900473ffffffffffffffffffffffffffffffffffffffff1673ffffffffffffffffffffffffffffffffffffffff16141561060f576000600460006001846103f091906127b3565b815260200190815260200160002060000154905060006004600083815260200190815260200160002090508060405180610100016040529081600082015481526020016001820160009054906101000a900473ffffffffffffffffffffffffffffffffffffffff1673ffffffffffffffffffffffffffffffffffffffff1673ffffffffffffffffffffffffffffffffffffffff168152602001600282015481526020016003820160009054906101000a900473ffffffffffffffffffffffffffffffffffffffff1673ffffffffffffffffffffffffffffffffffffffff1673ffffffffffffffffffffffffffffffffffffffff1681526020016004820160009054906101000a900473ffffffffffffffffffffffffffffffffffffffff1673ffffffffffffffffffffffffffffffffffffffff1673ffffffffffffffffffffffffffffffffffffffff1681526020016005820160009054906101000a900473ffffffffffffffffffffffffffffffffffffffff1673ffffffffffffffffffffffffffffffffffffffff1673ffffffffffffffffffffffffffffffffffffffff168152602001600682015481526020016007820160009054906101000a900460ff1615151515815250508486815181106105f2577f4e487b7100000000000000000000000000000000000000000000000000000000600052603260045260246000fd5b602002602001018190525060018561060a91906127b3565b945050505b808061061a906128c7565b91505061035f565b5080945050505050919050565b6060600061063d6001611e3e565b905060008060005b8381101561079a57600073ffffffffffffffffffffffffffffffffffffffff166004600060018461067691906127b3565b815260200190815260200160002060040160009054906101000a900473ffffffffffffffffffffffffffffffffffffffff1673ffffffffffffffffffffffffffffffffffffffff1614801561073957508573ffffffffffffffffffffffffffffffffffffffff16600460006001846106ee91906127b3565b815260200190815260200160002060050160009054906101000a900473ffffffffffffffffffffffffffffffffffffffff1673ffffffffffffffffffffffffffffffffffffffff1614155b801561077257506004600060018361075191906127b3565b815260200190815260200160002060070160009054906101000a900460ff16155b156107875760018361078491906127b3565b92505b8080610792906128c7565b915050610645565b5060008267ffffffffffffffff8111156107dd577f4e487b7100000000000000000000000000000000000000000000000000000000600052604160045260246000fd5b60405190808252806020026020018201604052801561081657816020015b61080361205c565b8152602001906001900390816107fb5790505b50905060005b84811015610b9357600073ffffffffffffffffffffffffffffffffffffffff166004600060018461084d91906127b3565b815260200190815260200160002060040160009054906101000a900473ffffffffffffffffffffffffffffffffffffffff1673ffffffffffffffffffffffffffffffffffffffff1614801561091057508673ffffffffffffffffffffffffffffffffffffffff16600460006001846108c591906127b3565b815260200190815260200160002060050160009054906101000a900473ffffffffffffffffffffffffffffffffffffffff1673ffffffffffffffffffffffffffffffffffffffff1614155b801561094957506004600060018361092891906127b3565b815260200190815260200160002060070160009054906101000a900460ff16155b15610b805760006004600060018461096191906127b3565b815260200190815260200160002060000154905060006004600083815260200190815260200160002090508060405180610100016040529081600082015481526020016001820160009054906101000a900473ffffffffffffffffffffffffffffffffffffffff1673ffffffffffffffffffffffffffffffffffffffff1673ffffffffffffffffffffffffffffffffffffffff168152602001600282015481526020016003820160009054906101000a900473ffffffffffffffffffffffffffffffffffffffff1673ffffffffffffffffffffffffffffffffffffffff1673ffffffffffffffffffffffffffffffffffffffff1681526020016004820160009054906101000a900473ffffffffffffffffffffffffffffffffffffffff1673ffffffffffffffffffffffffffffffffffffffff1673ffffffffffffffffffffffffffffffffffffffff1681526020016005820160009054906101000a900473ffffffffffffffffffffffffffffffffffffffff1673ffffffffffffffffffffffffffffffffffffffff1673ffffffffffffffffffffffffffffffffffffffff168152602001600682015481526020016007820160009054906101000a900460ff161515151581525050848681518110610b63577f4e487b7100000000000000000000000000000000000000000000000000000000600052603260045260246000fd5b6020026020010181905250600185610b7b91906127b3565b945050505b8080610b8b906128c7565b91505061081c565b5080945050505050919050565b60026000541415610be6576040517f08c379a0000000000000000000000000000000000000000000000000000000008152600401610bdd906126e7565b60405180910390fd5b600260008190555060008111610c31576040517f08c379a0000000000000000000000000000000000000000000000000000000008152600401610c2890612707565b60405180910390fd5b6000610c3c82611b51565b9050803414610c80576040517f08c379a0000000000000000000000000000000000000000000000000000000008152600401610c77906126c7565b60405180910390fd5b610cbf6040518060400160405280600b81526020017f3e3e3e2070726963653a2000000000000000000000000000000000000000000081525083611e4c565b610cfe6040518060400160405280601181526020017f3e3e3e203125206f662070726963653a2000000000000000000000000000000081525082611e4c565b6000738626f6940e2eb28930efb4cef49b2d1f2c9c119973ffffffffffffffffffffffffffffffffffffffff166108fc839081150290604051600060405180830381858888f193505050509050610d8a6040518060400160405280601881526020017f3e3e3e2073656e7420746f206665654163636f756e743a20000000000000000081525082611ee8565b610d946001611f84565b6000610da06001611e3e565b90506040518061010001604052808281526020018773ffffffffffffffffffffffffffffffffffffffff1681526020018681526020013373ffffffffffffffffffffffffffffffffffffffff168152602001600073ffffffffffffffffffffffffffffffffffffffff1681526020013373ffffffffffffffffffffffffffffffffffffffff16815260200185815260200160001515815250600460008381526020019081526020016000206000820151816000015560208201518160010160006101000a81548173ffffffffffffffffffffffffffffffffffffffff021916908373ffffffffffffffffffffffffffffffffffffffff1602179055506040820151816002015560608201518160030160006101000a81548173ffffffffffffffffffffffffffffffffffffffff021916908373ffffffffffffffffffffffffffffffffffffffff16021790555060808201518160040160006101000a81548173ffffffffffffffffffffffffffffffffffffffff021916908373ffffffffffffffffffffffffffffffffffffffff16021790555060a08201518160050160006101000a81548173ffffffffffffffffffffffffffffffffffffffff021916908373ffffffffffffffffffffffffffffffffffffffff16021790555060c0820151816006015560e08201518160070160006101000a81548160ff0219169083151502179055509050508573ffffffffffffffffffffffffffffffffffffffff166323b872dd3330886040518463ffffffff1660e01b8152600401610fe593929190612593565b600060405180830381600087803b158015610fff57600080fd5b505af1158015611013573d6000803e3d6000fd5b50505050848673ffffffffffffffffffffffffffffffffffffffff16827ff6a6e998cdb71a54614f951c87c07828d557c9d2d501f61d4183e344a06445c5336000338a6000604051611069959493929190612540565b60405180910390a45050506001600081905550505050565b6060600061108f6001611e3e565b905060008060005b83811015611170578573ffffffffffffffffffffffffffffffffffffffff16600460006001846110c791906127b3565b815260200190815260200160002060050160009054906101000a900473ffffffffffffffffffffffffffffffffffffffff1673ffffffffffffffffffffffffffffffffffffffff1614801561114857506004600060018361112891906127b3565b815260200190815260200160002060070160009054906101000a900460ff165b1561115d5760018361115a91906127b3565b92505b8080611168906128c7565b915050611097565b5060008267ffffffffffffffff8111156111b3577f4e487b7100000000000000000000000000000000000000000000000000000000600052604160045260246000fd5b6040519080825280602002602001820160405280156111ec57816020015b6111d961205c565b8152602001906001900390816111d15790505b50905060005b848110156114ed578673ffffffffffffffffffffffffffffffffffffffff166004600060018461122291906127b3565b815260200190815260200160002060050160009054906101000a900473ffffffffffffffffffffffffffffffffffffffff1673ffffffffffffffffffffffffffffffffffffffff161480156112a357506004600060018361128391906127b3565b815260200190815260200160002060070160009054906101000a900460ff165b156114da576000600460006001846112bb91906127b3565b815260200190815260200160002060000154905060006004600083815260200190815260200160002090508060405180610100016040529081600082015481526020016001820160009054906101000a900473ffffffffffffffffffffffffffffffffffffffff1673ffffffffffffffffffffffffffffffffffffffff1673ffffffffffffffffffffffffffffffffffffffff168152602001600282015481526020016003820160009054906101000a900473ffffffffffffffffffffffffffffffffffffffff1673ffffffffffffffffffffffffffffffffffffffff1673ffffffffffffffffffffffffffffffffffffffff1681526020016004820160009054906101000a900473ffffffffffffffffffffffffffffffffffffffff1673ffffffffffffffffffffffffffffffffffffffff1673ffffffffffffffffffffffffffffffffffffffff1681526020016005820160009054906101000a900473ffffffffffffffffffffffffffffffffffffffff1673ffffffffffffffffffffffffffffffffffffffff1673ffffffffffffffffffffffffffffffffffffffff168152602001600682015481526020016007820160009054906101000a900460ff1615151515815250508486815181106114bd577f4e487b7100000000000000000000000000000000000000000000000000000000600052603260045260246000fd5b60200260200101819052506001856114d591906127b3565b945050505b80806114e5906128c7565b9150506111f2565b5080945050505050919050565b606060006115086001611e3e565b905060008060005b838110156115b1578573ffffffffffffffffffffffffffffffffffffffff166004600060018461154091906127b3565b815260200190815260200160002060050160009054906101000a900473ffffffffffffffffffffffffffffffffffffffff1673ffffffffffffffffffffffffffffffffffffffff16141561159e5760018361159b91906127b3565b92505b80806115a9906128c7565b915050611510565b5060008267ffffffffffffffff8111156115f4577f4e487b7100000000000000000000000000000000000000000000000000000000600052604160045260246000fd5b60405190808252806020026020018201604052801561162d57816020015b61161a61205c565b8152602001906001900390816116125790505b50905060005b848110156118f6578673ffffffffffffffffffffffffffffffffffffffff166004600060018461166391906127b3565b815260200190815260200160002060050160009054906101000a900473ffffffffffffffffffffffffffffffffffffffff1673ffffffffffffffffffffffffffffffffffffffff1614156118e3576000600460006001846116c491906127b3565b815260200190815260200160002060000154905060006004600083815260200190815260200160002090508060405180610100016040529081600082015481526020016001820160009054906101000a900473ffffffffffffffffffffffffffffffffffffffff1673ffffffffffffffffffffffffffffffffffffffff1673ffffffffffffffffffffffffffffffffffffffff168152602001600282015481526020016003820160009054906101000a900473ffffffffffffffffffffffffffffffffffffffff1673ffffffffffffffffffffffffffffffffffffffff1673ffffffffffffffffffffffffffffffffffffffff1681526020016004820160009054906101000a900473ffffffffffffffffffffffffffffffffffffffff1673ffffffffffffffffffffffffffffffffffffffff1673ffffffffffffffffffffffffffffffffffffffff1681526020016005820160009054906101000a900473ffffffffffffffffffffffffffffffffffffffff1673ffffffffffffffffffffffffffffffffffffffff1673ffffffffffffffffffffffffffffffffffffffff168152602001600682015481526020016007820160009054906101000a900460ff1615151515815250508486815181106118c6577f4e487b7100000000000000000000000000000000000000000000000000000000600052603260045260246000fd5b60200260200101819052506001856118de91906127b3565b945050505b80806118ee906128c7565b915050611633565b5080945050505050919050565b60026000541415611949576040517f08c379a0000000000000000000000000000000000000000000000000000000008152600401611940906126e7565b60405180910390fd5b60026000819055506000600460008381526020019081526020016000206006015490506000600460008481526020019081526020016000206002015490508134146119c9576040517f08c379a00000000000000000000000000000000000000000000000000000000081526004016119c090612687565b60405180910390fd5b6004600084815260200190815260200160002060030160009054906101000a900473ffffffffffffffffffffffffffffffffffffffff1673ffffffffffffffffffffffffffffffffffffffff166108fc349081150290604051600060405180830381858888f19350505050158015611a45573d6000803e3d6000fd5b508373ffffffffffffffffffffffffffffffffffffffff166323b872dd3033846040518463ffffffff1660e01b8152600401611a8393929190612593565b600060405180830381600087803b158015611a9d57600080fd5b505af1158015611ab1573d6000803e3d6000fd5b50505050336004600085815260200190815260200160002060040160006101000a81548173ffffffffffffffffffffffffffffffffffffffff021916908373ffffffffffffffffffffffffffffffffffffffff16021790555060016004600085815260200190815260200160002060070160006101000a81548160ff021916908315150217905550611b436002611f84565b505060016000819055505050565b6000606482611b609190612809565b9050919050565b611b6f61205c565b6000611b7b6001611e3e565b905060006004600085815260200190815260200160002060070160009054906101000a900460ff1690508015611be6576040517f08c379a0000000000000000000000000000000000000000000000000000000008152600401611bdd906126a7565b60405180910390fd5b611bef81611f9a565b60005b82811015611dfd578460046000600184611c0c91906127b3565b8152602001908152602001600020600001541415611dea5760046000600183611c3591906127b3565b815260200190815260200160002060405180610100016040529081600082015481526020016001820160009054906101000a900473ffffffffffffffffffffffffffffffffffffffff1673ffffffffffffffffffffffffffffffffffffffff1673ffffffffffffffffffffffffffffffffffffffff168152602001600282015481526020016003820160009054906101000a900473ffffffffffffffffffffffffffffffffffffffff1673ffffffffffffffffffffffffffffffffffffffff1673ffffffffffffffffffffffffffffffffffffffff1681526020016004820160009054906101000a900473ffffffffffffffffffffffffffffffffffffffff1673ffffffffffffffffffffffffffffffffffffffff1673ffffffffffffffffffffffffffffffffffffffff1681526020016005820160009054906101000a900473ffffffffffffffffffffffffffffffffffffffff1673ffffffffffffffffffffffffffffffffffffffff1673ffffffffffffffffffffffffffffffffffffffff168152602001600682015481526020016007820160009054906101000a900460ff1615151515815250509350505050611e39565b8080611df5906128c7565b915050611bf2565b506040517f08c379a0000000000000000000000000000000000000000000000000000000008152600401611e3090612667565b60405180910390fd5b919050565b600081600001549050919050565b611ee48282604051602401611e62929190612637565b6040516020818303038152906040527f9710a9d0000000000000000000000000000000000000000000000000000000007bffffffffffffffffffffffffffffffffffffffffffffffffffffffff19166020820180517bffffffffffffffffffffffffffffffffffffffffffffffffffffffff8381831617835250505050612033565b5050565b611f808282604051602401611efe929190612607565b6040516020818303038152906040527fc3b55635000000000000000000000000000000000000000000000000000000007bffffffffffffffffffffffffffffffffffffffffffffffffffffffff19166020820180517bffffffffffffffffffffffffffffffffffffffffffffffffffffffff8381831617835250505050612033565b5050565b6001816000016000828254019250508190555050565b61203081604051602401611fae91906125ec565b6040516020818303038152906040527f32458eed000000000000000000000000000000000000000000000000000000007bffffffffffffffffffffffffffffffffffffffffffffffffffffffff19166020820180517bffffffffffffffffffffffffffffffffffffffffffffffffffffffff8381831617835250505050612033565b50565b60008151905060006a636f6e736f6c652e6c6f679050602083016000808483855afa5050505050565b60405180610100016040528060008152602001600073ffffffffffffffffffffffffffffffffffffffff16815260200160008152602001600073ffffffffffffffffffffffffffffffffffffffff168152602001600073ffffffffffffffffffffffffffffffffffffffff168152602001600073ffffffffffffffffffffffffffffffffffffffff168152602001600081526020016000151581525090565b60008135905061210a81612ac1565b92915050565b60008135905061211f81612ad8565b92915050565b60006020828403121561213757600080fd5b6000612145848285016120fb565b91505092915050565b6000806040838503121561216157600080fd5b600061216f858286016120fb565b925050602061218085828601612110565b9150509250929050565b60008060006060848603121561219f57600080fd5b60006121ad868287016120fb565b93505060206121be86828701612110565b92505060406121cf86828701612110565b9150509250925092565b6000602082840312156121eb57600080fd5b60006121f984828501612110565b91505092915050565b600061220e83836123de565b6101008301905092915050565b6122248161284c565b82525050565b6122338161284c565b82525050565b6122428161283a565b82525050565b6122518161283a565b82525050565b60006122628261276e565b61226c8185612791565b93506122778361275e565b8060005b838110156122a857815161228f8882612202565b975061229a83612784565b92505060018101905061227b565b5085935050505092915050565b6122be8161285e565b82525050565b6122cd8161285e565b82525050565b60006122de82612779565b6122e881856127a2565b93506122f8818560208601612894565b6123018161296e565b840191505092915050565b60006123196009836127a2565b91506123248261297f565b602082019050919050565b600061233c6040836127a2565b9150612347826129a8565b604082019050919050565b600061235f601b836127a2565b915061236a826129f7565b602082019050919050565b60006123826024836127a2565b915061238d82612a20565b604082019050919050565b60006123a5601f836127a2565b91506123b082612a6f565b602082019050919050565b60006123c8601c836127a2565b91506123d382612a98565b602082019050919050565b610100820160008201516123f56000850182612522565b5060208201516124086020850182612239565b50604082015161241b6040850182612522565b50606082015161242e606085018261221b565b506080820151612441608085018261221b565b5060a082015161245460a0850182612239565b5060c082015161246760c0850182612522565b5060e082015161247a60e08501826122b5565b50505050565b610100820160008201516124976000850182612522565b5060208201516124aa6020850182612239565b5060408201516124bd6040850182612522565b5060608201516124d0606085018261221b565b5060808201516124e3608085018261221b565b5060a08201516124f660a0850182612239565b5060c082015161250960c0850182612522565b5060e082015161251c60e08501826122b5565b50505050565b61252b8161288a565b82525050565b61253a8161288a565b82525050565b600060a082019050612555600083018861222a565b612562602083018761222a565b61256f6040830186612248565b61257c6060830185612531565b61258960808301846122c4565b9695505050505050565b60006060820190506125a86000830186612248565b6125b56020830185612248565b6125c26040830184612531565b949350505050565b600060208201905081810360008301526125e48184612257565b905092915050565b600060208201905061260160008301846122c4565b92915050565b6000604082019050818103600083015261262181856122d3565b905061263060208301846122c4565b9392505050565b6000604082019050818103600083015261265181856122d3565b90506126606020830184612531565b9392505050565b600060208201905081810360008301526126808161230c565b9050919050565b600060208201905081810360008301526126a08161232f565b9050919050565b600060208201905081810360008301526126c081612352565b9050919050565b600060208201905081810360008301526126e081612375565b9050919050565b6000602082019050818103600083015261270081612398565b9050919050565b60006020820190508181036000830152612720816123bb565b9050919050565b60006101008201905061273d6000830184612480565b92915050565b60006020820190506127586000830184612531565b92915050565b6000819050602082019050919050565b600081519050919050565b600081519050919050565b6000602082019050919050565b600082825260208201905092915050565b600082825260208201905092915050565b60006127be8261288a565b91506127c98361288a565b9250827fffffffffffffffffffffffffffffffffffffffffffffffffffffffffffffffff038211156127fe576127fd612910565b5b828201905092915050565b60006128148261288a565b915061281f8361288a565b92508261282f5761282e61293f565b5b828204905092915050565b60006128458261286a565b9050919050565b60006128578261286a565b9050919050565b60008115159050919050565b600073ffffffffffffffffffffffffffffffffffffffff82169050919050565b6000819050919050565b60005b838110156128b2578082015181840152602081019050612897565b838111156128c1576000848401525b50505050565b60006128d28261288a565b91507fffffffffffffffffffffffffffffffffffffffffffffffffffffffffffffffff82141561290557612904612910565b5b600182019050919050565b7f4e487b7100000000000000000000000000000000000000000000000000000000600052601160045260246000fd5b7f4e487b7100000000000000000000000000000000000000000000000000000000600052601260045260246000fd5b6000601f19601f8301169050919050565b7f4e6f7420666f756e640000000000000000000000000000000000000000000000600082015250565b7f506c65617365207375626d6974207468652061736b696e67207072696365206960008201527f6e206f7264657220746f20636f6d706c65746520746865207075726368617365602082015250565b7f4974656d2068617320616c7265616479206265656e20736f6c642e0000000000600082015250565b7f5072696365206d75737420626520657175616c20746f206c697374696e67207060008201527f7269636500000000000000000000000000000000000000000000000000000000602082015250565b7f5265656e7472616e637947756172643a207265656e7472616e742063616c6c00600082015250565b7f5072696365206d757374206265206174206c6561737420312077656900000000600082015250565b612aca8161283a565b8114612ad557600080fd5b50565b612ae18161288a565b8114612aec57600080fd5b5056fea2646970667358221220d1575bb1044373be3148df4f5f24334c2500dd59cf7f267f3a45789526a8e20a64736f6c63430008040033",
  "linkReferences": {},
  "deployedLinkReferences": {}
}