{
  "_format": "hh-sol-artifact-1",
  "contractName": "NFTMarket",
  "sourceName": "contracts/NFTMarket.sol",
  "abi": [
    {
      "inputs": [],
      "stateMutability": "nonpayable",
      "type": "constructor"
    },
    {
      "anonymous": false,
      "inputs": [
        {
          "indexed": true,
          "internalType": "uint256",
          "name": "itemId",
          "type": "uint256"
        },
        {
          "indexed": true,
          "internalType": "address",
          "name": "nftContract",
          "type": "address"
        },
        {
          "indexed": true,
          "internalType": "uint256",
          "name": "tokenId",
          "type": "uint256"
        },
        {
          "indexed": false,
          "internalType": "address payable",
          "name": "seller",
          "type": "address"
        },
        {
          "indexed": false,
          "internalType": "address payable",
          "name": "owner",
          "type": "address"
        },
        {
          "indexed": false,
          "internalType": "address",
          "name": "creator",
          "type": "address"
        },
        {
          "indexed": false,
          "internalType": "uint256",
          "name": "price",
          "type": "uint256"
        },
        {
          "indexed": false,
          "internalType": "bool",
          "name": "sold",
          "type": "bool"
        }
      ],
      "name": "MarketItemCreated",
      "type": "event"
    },
    {
      "inputs": [
        {
          "internalType": "address",
          "name": "nftContract",
          "type": "address"
        },
        {
          "internalType": "uint256",
          "name": "tokenId",
          "type": "uint256"
        },
        {
          "internalType": "uint256",
          "name": "price",
          "type": "uint256"
        }
      ],
      "name": "createMarketItem",
      "outputs": [],
      "stateMutability": "payable",
      "type": "function"
    },
    {
      "inputs": [
        {
          "internalType": "address",
          "name": "nftContract",
          "type": "address"
        },
        {
          "internalType": "uint256",
          "name": "itemId",
          "type": "uint256"
        }
      ],
      "name": "createMarketSale",
      "outputs": [],
      "stateMutability": "payable",
      "type": "function"
    },
    {
      "inputs": [
        {
          "internalType": "address",
          "name": "signerAddress",
          "type": "address"
        }
      ],
      "name": "fetchCreatedItems",
      "outputs": [
        {
          "components": [
            {
              "internalType": "uint256",
              "name": "itemId",
              "type": "uint256"
            },
            {
              "internalType": "address",
              "name": "nftContract",
              "type": "address"
            },
            {
              "internalType": "uint256",
              "name": "tokenId",
              "type": "uint256"
            },
            {
              "internalType": "address payable",
              "name": "seller",
              "type": "address"
            },
            {
              "internalType": "address payable",
              "name": "owner",
              "type": "address"
            },
            {
              "internalType": "address",
              "name": "creator",
              "type": "address"
            },
            {
              "internalType": "uint256",
              "name": "price",
              "type": "uint256"
            },
            {
              "internalType": "bool",
              "name": "sold",
              "type": "bool"
            }
          ],
          "internalType": "struct NFTMarket.MarketItem[]",
          "name": "",
          "type": "tuple[]"
        }
      ],
      "stateMutability": "view",
      "type": "function"
    },
    {
      "inputs": [
        {
          "internalType": "address",
          "name": "signerAddress",
          "type": "address"
        }
      ],
      "name": "fetchMarketItems",
      "outputs": [
        {
          "components": [
            {
              "internalType": "uint256",
              "name": "itemId",
              "type": "uint256"
            },
            {
              "internalType": "address",
              "name": "nftContract",
              "type": "address"
            },
            {
              "internalType": "uint256",
              "name": "tokenId",
              "type": "uint256"
            },
            {
              "internalType": "address payable",
              "name": "seller",
              "type": "address"
            },
            {
              "internalType": "address payable",
              "name": "owner",
              "type": "address"
            },
            {
              "internalType": "address",
              "name": "creator",
              "type": "address"
            },
            {
              "internalType": "uint256",
              "name": "price",
              "type": "uint256"
            },
            {
              "internalType": "bool",
              "name": "sold",
              "type": "bool"
            }
          ],
          "internalType": "struct NFTMarket.MarketItem[]",
          "name": "",
          "type": "tuple[]"
        }
      ],
      "stateMutability": "view",
      "type": "function"
    },
    {
      "inputs": [
        {
          "internalType": "address",
          "name": "signerAddress",
          "type": "address"
        }
      ],
      "name": "fetchMyNFTs",
      "outputs": [
        {
          "components": [
            {
              "internalType": "uint256",
              "name": "itemId",
              "type": "uint256"
            },
            {
              "internalType": "address",
              "name": "nftContract",
              "type": "address"
            },
            {
              "internalType": "uint256",
              "name": "tokenId",
              "type": "uint256"
            },
            {
              "internalType": "address payable",
              "name": "seller",
              "type": "address"
            },
            {
              "internalType": "address payable",
              "name": "owner",
              "type": "address"
            },
            {
              "internalType": "address",
              "name": "creator",
              "type": "address"
            },
            {
              "internalType": "uint256",
              "name": "price",
              "type": "uint256"
            },
            {
              "internalType": "bool",
              "name": "sold",
              "type": "bool"
            }
          ],
          "internalType": "struct NFTMarket.MarketItem[]",
          "name": "",
          "type": "tuple[]"
        }
      ],
      "stateMutability": "view",
      "type": "function"
    },
    {
      "inputs": [
        {
          "internalType": "uint256",
          "name": "itemId",
          "type": "uint256"
        }
      ],
      "name": "fetchNFT",
      "outputs": [
        {
          "components": [
            {
              "internalType": "uint256",
              "name": "itemId",
              "type": "uint256"
            },
            {
              "internalType": "address",
              "name": "nftContract",
              "type": "address"
            },
            {
              "internalType": "uint256",
              "name": "tokenId",
              "type": "uint256"
            },
            {
              "internalType": "address payable",
              "name": "seller",
              "type": "address"
            },
            {
              "internalType": "address payable",
              "name": "owner",
              "type": "address"
            },
            {
              "internalType": "address",
              "name": "creator",
              "type": "address"
            },
            {
              "internalType": "uint256",
              "name": "price",
              "type": "uint256"
            },
            {
              "internalType": "bool",
              "name": "sold",
              "type": "bool"
            }
          ],
          "internalType": "struct NFTMarket.MarketItem",
          "name": "",
          "type": "tuple"
        }
      ],
      "stateMutability": "view",
      "type": "function"
    },
    {
      "inputs": [
        {
          "internalType": "address",
          "name": "signerAddress",
          "type": "address"
        }
      ],
      "name": "fetchSoldItems",
      "outputs": [
        {
          "components": [
            {
              "internalType": "uint256",
              "name": "itemId",
              "type": "uint256"
            },
            {
              "internalType": "address",
              "name": "nftContract",
              "type": "address"
            },
            {
              "internalType": "uint256",
              "name": "tokenId",
              "type": "uint256"
            },
            {
              "internalType": "address payable",
              "name": "seller",
              "type": "address"
            },
            {
              "internalType": "address payable",
              "name": "owner",
              "type": "address"
            },
            {
              "internalType": "address",
              "name": "creator",
              "type": "address"
            },
            {
              "internalType": "uint256",
              "name": "price",
              "type": "uint256"
            },
            {
              "internalType": "bool",
              "name": "sold",
              "type": "bool"
            }
          ],
          "internalType": "struct NFTMarket.MarketItem[]",
          "name": "",
          "type": "tuple[]"
        }
      ],
      "stateMutability": "view",
      "type": "function"
    },
    {
      "inputs": [],
      "name": "getListingPrice",
      "outputs": [
        {
          "internalType": "uint256",
          "name": "",
          "type": "uint256"
        }
      ],
      "stateMutability": "view",
      "type": "function"
    }
  ],
  "bytecode": "0x60806040526658d15e1762800060045534801561001b57600080fd5b50600160008190555033600360006101000a81548173ffffffffffffffffffffffffffffffffffffffff021916908373ffffffffffffffffffffffffffffffffffffffff16021790555061261f806100746000396000f3fe60806040526004361061007b5760003560e01c806364a37ccc1161004e57806364a37ccc14610141578063b4cfb07f1461017e578063c23b139e146101bb578063deb1250d146101d75761007b565b806310afee1e1461008057806312e85585146100bd5780631f10e57a146100e857806358eb2df514610125575b600080fd5b34801561008c57600080fd5b506100a760048036038101906100a29190611dee565b610214565b6040516100b49190612237565b60405180910390f35b3480156100c957600080fd5b506100d261061d565b6040516100df9190612315565b60405180910390f35b3480156100f457600080fd5b5061010f600480360381019061010a9190611dee565b610627565b60405161011c9190612237565b60405180910390f35b61013f600480360381019061013a9190611e53565b610b98565b005b34801561014d57600080fd5b5061016860048036038101906101639190611dee565b610f62565b6040516101759190612237565b60405180910390f35b34801561018a57600080fd5b506101a560048036038101906101a09190611dee565b6113db565b6040516101b29190612237565b60405180910390f35b6101d560048036038101906101d09190611e17565b6117e4565b005b3480156101e357600080fd5b506101fe60048036038101906101f99190611ea2565b611a9d565b60405161020b91906122f9565b60405180910390f35b606060006102226001611d01565b905060008060005b838110156102cb578573ffffffffffffffffffffffffffffffffffffffff166005600060018461025a919061237a565b815260200190815260200160002060040160009054906101000a900473ffffffffffffffffffffffffffffffffffffffff1673ffffffffffffffffffffffffffffffffffffffff1614156102b8576001836102b5919061237a565b92505b80806102c39061242a565b91505061022a565b5060008267ffffffffffffffff81111561030e577f4e487b7100000000000000000000000000000000000000000000000000000000600052604160045260246000fd5b60405190808252806020026020018201604052801561034757816020015b610334611d25565b81526020019060019003908161032c5790505b50905060005b84811015610610578673ffffffffffffffffffffffffffffffffffffffff166005600060018461037d919061237a565b815260200190815260200160002060040160009054906101000a900473ffffffffffffffffffffffffffffffffffffffff1673ffffffffffffffffffffffffffffffffffffffff1614156105fd576000600560006001846103de919061237a565b815260200190815260200160002060000154905060006005600083815260200190815260200160002090508060405180610100016040529081600082015481526020016001820160009054906101000a900473ffffffffffffffffffffffffffffffffffffffff1673ffffffffffffffffffffffffffffffffffffffff1673ffffffffffffffffffffffffffffffffffffffff168152602001600282015481526020016003820160009054906101000a900473ffffffffffffffffffffffffffffffffffffffff1673ffffffffffffffffffffffffffffffffffffffff1673ffffffffffffffffffffffffffffffffffffffff1681526020016004820160009054906101000a900473ffffffffffffffffffffffffffffffffffffffff1673ffffffffffffffffffffffffffffffffffffffff1673ffffffffffffffffffffffffffffffffffffffff1681526020016005820160009054906101000a900473ffffffffffffffffffffffffffffffffffffffff1673ffffffffffffffffffffffffffffffffffffffff1673ffffffffffffffffffffffffffffffffffffffff168152602001600682015481526020016007820160009054906101000a900460ff1615151515815250508486815181106105e0577f4e487b7100000000000000000000000000000000000000000000000000000000600052603260045260246000fd5b60200260200101819052506001856105f8919061237a565b945050505b80806106089061242a565b91505061034d565b5080945050505050919050565b6000600454905090565b606060006106356001611d01565b905060008060005b8381101561079257600073ffffffffffffffffffffffffffffffffffffffff166005600060018461066e919061237a565b815260200190815260200160002060040160009054906101000a900473ffffffffffffffffffffffffffffffffffffffff1673ffffffffffffffffffffffffffffffffffffffff1614801561073157508573ffffffffffffffffffffffffffffffffffffffff16600560006001846106e6919061237a565b815260200190815260200160002060050160009054906101000a900473ffffffffffffffffffffffffffffffffffffffff1673ffffffffffffffffffffffffffffffffffffffff1614155b801561076a575060056000600183610749919061237a565b815260200190815260200160002060070160009054906101000a900460ff16155b1561077f5760018361077c919061237a565b92505b808061078a9061242a565b91505061063d565b5060008267ffffffffffffffff8111156107d5577f4e487b7100000000000000000000000000000000000000000000000000000000600052604160045260246000fd5b60405190808252806020026020018201604052801561080e57816020015b6107fb611d25565b8152602001906001900390816107f35790505b50905060005b84811015610b8b57600073ffffffffffffffffffffffffffffffffffffffff1660056000600184610845919061237a565b815260200190815260200160002060040160009054906101000a900473ffffffffffffffffffffffffffffffffffffffff1673ffffffffffffffffffffffffffffffffffffffff1614801561090857508673ffffffffffffffffffffffffffffffffffffffff16600560006001846108bd919061237a565b815260200190815260200160002060050160009054906101000a900473ffffffffffffffffffffffffffffffffffffffff1673ffffffffffffffffffffffffffffffffffffffff1614155b8015610941575060056000600183610920919061237a565b815260200190815260200160002060070160009054906101000a900460ff16155b15610b7857600060056000600184610959919061237a565b815260200190815260200160002060000154905060006005600083815260200190815260200160002090508060405180610100016040529081600082015481526020016001820160009054906101000a900473ffffffffffffffffffffffffffffffffffffffff1673ffffffffffffffffffffffffffffffffffffffff1673ffffffffffffffffffffffffffffffffffffffff168152602001600282015481526020016003820160009054906101000a900473ffffffffffffffffffffffffffffffffffffffff1673ffffffffffffffffffffffffffffffffffffffff1673ffffffffffffffffffffffffffffffffffffffff1681526020016004820160009054906101000a900473ffffffffffffffffffffffffffffffffffffffff1673ffffffffffffffffffffffffffffffffffffffff1673ffffffffffffffffffffffffffffffffffffffff1681526020016005820160009054906101000a900473ffffffffffffffffffffffffffffffffffffffff1673ffffffffffffffffffffffffffffffffffffffff1673ffffffffffffffffffffffffffffffffffffffff168152602001600682015481526020016007820160009054906101000a900460ff161515151581525050848681518110610b5b577f4e487b7100000000000000000000000000000000000000000000000000000000600052603260045260246000fd5b6020026020010181905250600185610b73919061237a565b945050505b8080610b839061242a565b915050610814565b5080945050505050919050565b60026000541415610bde576040517f08c379a0000000000000000000000000000000000000000000000000000000008152600401610bd5906122b9565b60405180910390fd5b600260008190555060008111610c29576040517f08c379a0000000000000000000000000000000000000000000000000000000008152600401610c20906122d9565b60405180910390fd5b6004543414610c6d576040517f08c379a0000000000000000000000000000000000000000000000000000000008152600401610c6490612299565b60405180910390fd5b610c776001611d0f565b6000610c836001611d01565b90506040518061010001604052808281526020018573ffffffffffffffffffffffffffffffffffffffff1681526020018481526020013373ffffffffffffffffffffffffffffffffffffffff168152602001600073ffffffffffffffffffffffffffffffffffffffff1681526020013373ffffffffffffffffffffffffffffffffffffffff16815260200183815260200160001515815250600560008381526020019081526020016000206000820151816000015560208201518160010160006101000a81548173ffffffffffffffffffffffffffffffffffffffff021916908373ffffffffffffffffffffffffffffffffffffffff1602179055506040820151816002015560608201518160030160006101000a81548173ffffffffffffffffffffffffffffffffffffffff021916908373ffffffffffffffffffffffffffffffffffffffff16021790555060808201518160040160006101000a81548173ffffffffffffffffffffffffffffffffffffffff021916908373ffffffffffffffffffffffffffffffffffffffff16021790555060a08201518160050160006101000a81548173ffffffffffffffffffffffffffffffffffffffff021916908373ffffffffffffffffffffffffffffffffffffffff16021790555060c0820151816006015560e08201518160070160006101000a81548160ff0219169083151502179055509050508373ffffffffffffffffffffffffffffffffffffffff166323b872dd3330866040518463ffffffff1660e01b8152600401610ec893929190612200565b600060405180830381600087803b158015610ee257600080fd5b505af1158015610ef6573d6000803e3d6000fd5b50505050828473ffffffffffffffffffffffffffffffffffffffff16827ff6a6e998cdb71a54614f951c87c07828d557c9d2d501f61d4183e344a06445c533600033886000604051610f4c9594939291906121ad565b60405180910390a4506001600081905550505050565b60606000610f706001611d01565b905060008060005b83811015611051578573ffffffffffffffffffffffffffffffffffffffff1660056000600184610fa8919061237a565b815260200190815260200160002060050160009054906101000a900473ffffffffffffffffffffffffffffffffffffffff1673ffffffffffffffffffffffffffffffffffffffff16148015611029575060056000600183611009919061237a565b815260200190815260200160002060070160009054906101000a900460ff165b1561103e5760018361103b919061237a565b92505b80806110499061242a565b915050610f78565b5060008267ffffffffffffffff811115611094577f4e487b7100000000000000000000000000000000000000000000000000000000600052604160045260246000fd5b6040519080825280602002602001820160405280156110cd57816020015b6110ba611d25565b8152602001906001900390816110b25790505b50905060005b848110156113ce578673ffffffffffffffffffffffffffffffffffffffff1660056000600184611103919061237a565b815260200190815260200160002060050160009054906101000a900473ffffffffffffffffffffffffffffffffffffffff1673ffffffffffffffffffffffffffffffffffffffff16148015611184575060056000600183611164919061237a565b815260200190815260200160002060070160009054906101000a900460ff165b156113bb5760006005600060018461119c919061237a565b815260200190815260200160002060000154905060006005600083815260200190815260200160002090508060405180610100016040529081600082015481526020016001820160009054906101000a900473ffffffffffffffffffffffffffffffffffffffff1673ffffffffffffffffffffffffffffffffffffffff1673ffffffffffffffffffffffffffffffffffffffff168152602001600282015481526020016003820160009054906101000a900473ffffffffffffffffffffffffffffffffffffffff1673ffffffffffffffffffffffffffffffffffffffff1673ffffffffffffffffffffffffffffffffffffffff1681526020016004820160009054906101000a900473ffffffffffffffffffffffffffffffffffffffff1673ffffffffffffffffffffffffffffffffffffffff1673ffffffffffffffffffffffffffffffffffffffff1681526020016005820160009054906101000a900473ffffffffffffffffffffffffffffffffffffffff1673ffffffffffffffffffffffffffffffffffffffff1673ffffffffffffffffffffffffffffffffffffffff168152602001600682015481526020016007820160009054906101000a900460ff16151515158152505084868151811061139e577f4e487b7100000000000000000000000000000000000000000000000000000000600052603260045260246000fd5b60200260200101819052506001856113b6919061237a565b945050505b80806113c69061242a565b9150506110d3565b5080945050505050919050565b606060006113e96001611d01565b905060008060005b83811015611492578573ffffffffffffffffffffffffffffffffffffffff1660056000600184611421919061237a565b815260200190815260200160002060050160009054906101000a900473ffffffffffffffffffffffffffffffffffffffff1673ffffffffffffffffffffffffffffffffffffffff16141561147f5760018361147c919061237a565b92505b808061148a9061242a565b9150506113f1565b5060008267ffffffffffffffff8111156114d5577f4e487b7100000000000000000000000000000000000000000000000000000000600052604160045260246000fd5b60405190808252806020026020018201604052801561150e57816020015b6114fb611d25565b8152602001906001900390816114f35790505b50905060005b848110156117d7578673ffffffffffffffffffffffffffffffffffffffff1660056000600184611544919061237a565b815260200190815260200160002060050160009054906101000a900473ffffffffffffffffffffffffffffffffffffffff1673ffffffffffffffffffffffffffffffffffffffff1614156117c4576000600560006001846115a5919061237a565b815260200190815260200160002060000154905060006005600083815260200190815260200160002090508060405180610100016040529081600082015481526020016001820160009054906101000a900473ffffffffffffffffffffffffffffffffffffffff1673ffffffffffffffffffffffffffffffffffffffff1673ffffffffffffffffffffffffffffffffffffffff168152602001600282015481526020016003820160009054906101000a900473ffffffffffffffffffffffffffffffffffffffff1673ffffffffffffffffffffffffffffffffffffffff1673ffffffffffffffffffffffffffffffffffffffff1681526020016004820160009054906101000a900473ffffffffffffffffffffffffffffffffffffffff1673ffffffffffffffffffffffffffffffffffffffff1673ffffffffffffffffffffffffffffffffffffffff1681526020016005820160009054906101000a900473ffffffffffffffffffffffffffffffffffffffff1673ffffffffffffffffffffffffffffffffffffffff1673ffffffffffffffffffffffffffffffffffffffff168152602001600682015481526020016007820160009054906101000a900460ff1615151515815250508486815181106117a7577f4e487b7100000000000000000000000000000000000000000000000000000000600052603260045260246000fd5b60200260200101819052506001856117bf919061237a565b945050505b80806117cf9061242a565b915050611514565b5080945050505050919050565b6002600054141561182a576040517f08c379a0000000000000000000000000000000000000000000000000000000008152600401611821906122b9565b60405180910390fd5b60026000819055506000600560008381526020019081526020016000206006015490506000600560008481526020019081526020016000206002015490508134146118aa576040517f08c379a00000000000000000000000000000000000000000000000000000000081526004016118a190612279565b60405180910390fd5b6005600084815260200190815260200160002060030160009054906101000a900473ffffffffffffffffffffffffffffffffffffffff1673ffffffffffffffffffffffffffffffffffffffff166108fc349081150290604051600060405180830381858888f19350505050158015611926573d6000803e3d6000fd5b508373ffffffffffffffffffffffffffffffffffffffff166323b872dd3033846040518463ffffffff1660e01b815260040161196493929190612200565b600060405180830381600087803b15801561197e57600080fd5b505af1158015611992573d6000803e3d6000fd5b50505050336005600085815260200190815260200160002060040160006101000a81548173ffffffffffffffffffffffffffffffffffffffff021916908373ffffffffffffffffffffffffffffffffffffffff16021790555060016005600085815260200190815260200160002060070160006101000a81548160ff021916908315150217905550611a246002611d0f565b600360009054906101000a900473ffffffffffffffffffffffffffffffffffffffff1673ffffffffffffffffffffffffffffffffffffffff166108fc6004549081150290604051600060405180830381858888f19350505050158015611a8e573d6000803e3d6000fd5b50505060016000819055505050565b611aa5611d25565b6000611ab16001611d01565b905060005b81811015611cc0578360056000600184611ad0919061237a565b8152602001908152602001600020600001541415611cad5760056000600183611af9919061237a565b815260200190815260200160002060405180610100016040529081600082015481526020016001820160009054906101000a900473ffffffffffffffffffffffffffffffffffffffff1673ffffffffffffffffffffffffffffffffffffffff1673ffffffffffffffffffffffffffffffffffffffff168152602001600282015481526020016003820160009054906101000a900473ffffffffffffffffffffffffffffffffffffffff1673ffffffffffffffffffffffffffffffffffffffff1673ffffffffffffffffffffffffffffffffffffffff1681526020016004820160009054906101000a900473ffffffffffffffffffffffffffffffffffffffff1673ffffffffffffffffffffffffffffffffffffffff1673ffffffffffffffffffffffffffffffffffffffff1681526020016005820160009054906101000a900473ffffffffffffffffffffffffffffffffffffffff1673ffffffffffffffffffffffffffffffffffffffff1673ffffffffffffffffffffffffffffffffffffffff168152602001600682015481526020016007820160009054906101000a900460ff16151515158152505092505050611cfc565b8080611cb89061242a565b915050611ab6565b506040517f08c379a0000000000000000000000000000000000000000000000000000000008152600401611cf390612259565b60405180910390fd5b919050565b600081600001549050919050565b6001816000016000828254019250508190555050565b60405180610100016040528060008152602001600073ffffffffffffffffffffffffffffffffffffffff16815260200160008152602001600073ffffffffffffffffffffffffffffffffffffffff168152602001600073ffffffffffffffffffffffffffffffffffffffff168152602001600073ffffffffffffffffffffffffffffffffffffffff168152602001600081526020016000151581525090565b600081359050611dd3816125bb565b92915050565b600081359050611de8816125d2565b92915050565b600060208284031215611e0057600080fd5b6000611e0e84828501611dc4565b91505092915050565b60008060408385031215611e2a57600080fd5b6000611e3885828601611dc4565b9250506020611e4985828601611dd9565b9150509250929050565b600080600060608486031215611e6857600080fd5b6000611e7686828701611dc4565b9350506020611e8786828701611dd9565b9250506040611e9886828701611dd9565b9150509250925092565b600060208284031215611eb457600080fd5b6000611ec284828501611dd9565b91505092915050565b6000611ed7838361204b565b6101008301905092915050565b611eed816123e2565b82525050565b611efc816123e2565b82525050565b611f0b816123d0565b82525050565b611f1a816123d0565b82525050565b6000611f2b82612340565b611f358185612358565b9350611f4083612330565b8060005b83811015611f71578151611f588882611ecb565b9750611f638361234b565b925050600181019050611f44565b5085935050505092915050565b611f87816123f4565b82525050565b611f96816123f4565b82525050565b6000611fa9600983612369565b9150611fb4826124a2565b602082019050919050565b6000611fcc604083612369565b9150611fd7826124cb565b604082019050919050565b6000611fef602483612369565b9150611ffa8261251a565b604082019050919050565b6000612012601f83612369565b915061201d82612569565b602082019050919050565b6000612035601c83612369565b915061204082612592565b602082019050919050565b61010082016000820151612062600085018261218f565b5060208201516120756020850182611f02565b506040820151612088604085018261218f565b50606082015161209b6060850182611ee4565b5060808201516120ae6080850182611ee4565b5060a08201516120c160a0850182611f02565b5060c08201516120d460c085018261218f565b5060e08201516120e760e0850182611f7e565b50505050565b61010082016000820151612104600085018261218f565b5060208201516121176020850182611f02565b50604082015161212a604085018261218f565b50606082015161213d6060850182611ee4565b5060808201516121506080850182611ee4565b5060a082015161216360a0850182611f02565b5060c082015161217660c085018261218f565b5060e082015161218960e0850182611f7e565b50505050565b61219881612420565b82525050565b6121a781612420565b82525050565b600060a0820190506121c26000830188611ef3565b6121cf6020830187611ef3565b6121dc6040830186611f11565b6121e9606083018561219e565b6121f66080830184611f8d565b9695505050505050565b60006060820190506122156000830186611f11565b6122226020830185611f11565b61222f604083018461219e565b949350505050565b600060208201905081810360008301526122518184611f20565b905092915050565b6000602082019050818103600083015261227281611f9c565b9050919050565b6000602082019050818103600083015261229281611fbf565b9050919050565b600060208201905081810360008301526122b281611fe2565b9050919050565b600060208201905081810360008301526122d281612005565b9050919050565b600060208201905081810360008301526122f281612028565b9050919050565b60006101008201905061230f60008301846120ed565b92915050565b600060208201905061232a600083018461219e565b92915050565b6000819050602082019050919050565b600081519050919050565b6000602082019050919050565b600082825260208201905092915050565b600082825260208201905092915050565b600061238582612420565b915061239083612420565b9250827fffffffffffffffffffffffffffffffffffffffffffffffffffffffffffffffff038211156123c5576123c4612473565b5b828201905092915050565b60006123db82612400565b9050919050565b60006123ed82612400565b9050919050565b60008115159050919050565b600073ffffffffffffffffffffffffffffffffffffffff82169050919050565b6000819050919050565b600061243582612420565b91507fffffffffffffffffffffffffffffffffffffffffffffffffffffffffffffffff82141561246857612467612473565b5b600182019050919050565b7f4e487b7100000000000000000000000000000000000000000000000000000000600052601160045260246000fd5b7f4e6f7420666f756e640000000000000000000000000000000000000000000000600082015250565b7f506c65617365207375626d6974207468652061736b696e67207072696365206960008201527f6e206f7264657220746f20636f6d706c65746520746865207075726368617365602082015250565b7f5072696365206d75737420626520657175616c20746f206c697374696e67207060008201527f7269636500000000000000000000000000000000000000000000000000000000602082015250565b7f5265656e7472616e637947756172643a207265656e7472616e742063616c6c00600082015250565b7f5072696365206d757374206265206174206c6561737420312077656900000000600082015250565b6125c4816123d0565b81146125cf57600080fd5b50565b6125db81612420565b81146125e657600080fd5b5056fea26469706673582212205cab1f07d80c17c353cae69b555f99555005a2d2e1965c6d4a8871bc01f83ab264736f6c63430008040033",
  "linkReferences": {},
  "deployedLinkReferences": {}
}