{
  "_format": "hh-sol-artifact-1",
  "contractName": "NFTMarket",
  "sourceName": "contracts/NFTMarket.sol",
  "abi": [
    {
      "inputs": [],
      "stateMutability": "nonpayable",
      "type": "constructor"
    },
    {
      "anonymous": false,
      "inputs": [
        {
          "indexed": true,
          "internalType": "uint256",
          "name": "itemID",
          "type": "uint256"
        },
        {
          "indexed": true,
          "internalType": "address",
          "name": "nftContract",
          "type": "address"
        },
        {
          "indexed": true,
          "internalType": "uint256",
          "name": "tokenID",
          "type": "uint256"
        },
        {
          "indexed": false,
          "internalType": "address payable",
          "name": "seller",
          "type": "address"
        },
        {
          "indexed": false,
          "internalType": "address payable",
          "name": "owner",
          "type": "address"
        },
        {
          "indexed": false,
          "internalType": "address",
          "name": "creator",
          "type": "address"
        },
        {
          "indexed": false,
          "internalType": "uint256",
          "name": "price",
          "type": "uint256"
        },
        {
          "indexed": false,
          "internalType": "bool",
          "name": "sold",
          "type": "bool"
        }
      ],
      "name": "MarketItemCreated",
      "type": "event"
    },
    {
      "inputs": [
        {
          "internalType": "address",
          "name": "nftContract",
          "type": "address"
        },
        {
          "internalType": "uint256",
          "name": "tokenID",
          "type": "uint256"
        },
        {
          "internalType": "uint256",
          "name": "price",
          "type": "uint256"
        }
      ],
      "name": "createMarketItem",
      "outputs": [],
      "stateMutability": "payable",
      "type": "function"
    },
    {
      "inputs": [
        {
          "internalType": "address",
          "name": "nftContract",
          "type": "address"
        },
        {
          "internalType": "uint256",
          "name": "itemID",
          "type": "uint256"
        }
      ],
      "name": "createMarketSale",
      "outputs": [],
      "stateMutability": "payable",
      "type": "function"
    },
    {
      "inputs": [
        {
          "internalType": "address",
          "name": "signerAddress",
          "type": "address"
        }
      ],
      "name": "fetchCreatedItems",
      "outputs": [
        {
          "components": [
            {
              "internalType": "uint256",
              "name": "itemID",
              "type": "uint256"
            },
            {
              "internalType": "address",
              "name": "nftContract",
              "type": "address"
            },
            {
              "internalType": "uint256",
              "name": "tokenID",
              "type": "uint256"
            },
            {
              "internalType": "address payable",
              "name": "seller",
              "type": "address"
            },
            {
              "internalType": "address payable",
              "name": "owner",
              "type": "address"
            },
            {
              "internalType": "address",
              "name": "creator",
              "type": "address"
            },
            {
              "internalType": "uint256",
              "name": "price",
              "type": "uint256"
            },
            {
              "internalType": "bool",
              "name": "sold",
              "type": "bool"
            }
          ],
          "internalType": "struct NFTMarket.MarketItem[]",
          "name": "",
          "type": "tuple[]"
        }
      ],
      "stateMutability": "view",
      "type": "function"
    },
    {
      "inputs": [
        {
          "internalType": "address",
          "name": "signerAddress",
          "type": "address"
        },
        {
          "internalType": "uint256",
          "name": "page",
          "type": "uint256"
        }
      ],
      "name": "fetchMarketItems",
      "outputs": [
        {
          "components": [
            {
              "internalType": "uint256",
              "name": "itemID",
              "type": "uint256"
            },
            {
              "internalType": "address",
              "name": "nftContract",
              "type": "address"
            },
            {
              "internalType": "uint256",
              "name": "tokenID",
              "type": "uint256"
            },
            {
              "internalType": "address payable",
              "name": "seller",
              "type": "address"
            },
            {
              "internalType": "address payable",
              "name": "owner",
              "type": "address"
            },
            {
              "internalType": "address",
              "name": "creator",
              "type": "address"
            },
            {
              "internalType": "uint256",
              "name": "price",
              "type": "uint256"
            },
            {
              "internalType": "bool",
              "name": "sold",
              "type": "bool"
            }
          ],
          "internalType": "struct NFTMarket.MarketItem[]",
          "name": "",
          "type": "tuple[]"
        }
      ],
      "stateMutability": "view",
      "type": "function"
    },
    {
      "inputs": [
        {
          "internalType": "address",
          "name": "signerAddress",
          "type": "address"
        }
      ],
      "name": "fetchMyNFTs",
      "outputs": [
        {
          "components": [
            {
              "internalType": "uint256",
              "name": "itemID",
              "type": "uint256"
            },
            {
              "internalType": "address",
              "name": "nftContract",
              "type": "address"
            },
            {
              "internalType": "uint256",
              "name": "tokenID",
              "type": "uint256"
            },
            {
              "internalType": "address payable",
              "name": "seller",
              "type": "address"
            },
            {
              "internalType": "address payable",
              "name": "owner",
              "type": "address"
            },
            {
              "internalType": "address",
              "name": "creator",
              "type": "address"
            },
            {
              "internalType": "uint256",
              "name": "price",
              "type": "uint256"
            },
            {
              "internalType": "bool",
              "name": "sold",
              "type": "bool"
            }
          ],
          "internalType": "struct NFTMarket.MarketItem[]",
          "name": "",
          "type": "tuple[]"
        }
      ],
      "stateMutability": "view",
      "type": "function"
    },
    {
      "inputs": [
        {
          "internalType": "uint256",
          "name": "itemID",
          "type": "uint256"
        }
      ],
      "name": "fetchNFT",
      "outputs": [
        {
          "components": [
            {
              "internalType": "uint256",
              "name": "itemID",
              "type": "uint256"
            },
            {
              "internalType": "address",
              "name": "nftContract",
              "type": "address"
            },
            {
              "internalType": "uint256",
              "name": "tokenID",
              "type": "uint256"
            },
            {
              "internalType": "address payable",
              "name": "seller",
              "type": "address"
            },
            {
              "internalType": "address payable",
              "name": "owner",
              "type": "address"
            },
            {
              "internalType": "address",
              "name": "creator",
              "type": "address"
            },
            {
              "internalType": "uint256",
              "name": "price",
              "type": "uint256"
            },
            {
              "internalType": "bool",
              "name": "sold",
              "type": "bool"
            }
          ],
          "internalType": "struct NFTMarket.MarketItem",
          "name": "",
          "type": "tuple"
        }
      ],
      "stateMutability": "view",
      "type": "function"
    },
    {
      "inputs": [
        {
          "internalType": "address",
          "name": "signerAddress",
          "type": "address"
        }
      ],
      "name": "fetchSoldItems",
      "outputs": [
        {
          "components": [
            {
              "internalType": "uint256",
              "name": "itemID",
              "type": "uint256"
            },
            {
              "internalType": "address",
              "name": "nftContract",
              "type": "address"
            },
            {
              "internalType": "uint256",
              "name": "tokenID",
              "type": "uint256"
            },
            {
              "internalType": "address payable",
              "name": "seller",
              "type": "address"
            },
            {
              "internalType": "address payable",
              "name": "owner",
              "type": "address"
            },
            {
              "internalType": "address",
              "name": "creator",
              "type": "address"
            },
            {
              "internalType": "uint256",
              "name": "price",
              "type": "uint256"
            },
            {
              "internalType": "bool",
              "name": "sold",
              "type": "bool"
            }
          ],
          "internalType": "struct NFTMarket.MarketItem[]",
          "name": "",
          "type": "tuple[]"
        }
      ],
      "stateMutability": "view",
      "type": "function"
    },
    {
      "inputs": [
        {
          "internalType": "uint256",
          "name": "price",
          "type": "uint256"
        }
      ],
      "name": "getListingPrice",
      "outputs": [
        {
          "internalType": "uint256",
          "name": "",
          "type": "uint256"
        }
      ],
      "stateMutability": "pure",
      "type": "function"
    },
    {
      "inputs": [
        {
          "internalType": "address",
          "name": "signerAddress",
          "type": "address"
        }
      ],
      "name": "getPageCount",
      "outputs": [
        {
          "internalType": "uint256",
          "name": "",
          "type": "uint256"
        }
      ],
      "stateMutability": "view",
      "type": "function"
    }
  ],
  "bytecode": "0x6080604052738626f6940e2eb28930efb4cef49b2d1f2c9c1199600460006101000a81548173ffffffffffffffffffffffffffffffffffffffff021916908373ffffffffffffffffffffffffffffffffffffffff16021790555034801561006557600080fd5b50600160008190555033600360006101000a81548173ffffffffffffffffffffffffffffffffffffffff021916908373ffffffffffffffffffffffffffffffffffffffff160217905550612c5c806100be6000396000f3fe6080604052600436106100865760003560e01c8063b4cfb07f11610059578063b4cfb07f1461015e578063c23b139e1461019b578063d6077fbf146101b7578063deb1250d146101f4578063fc8610161461023157610086565b806310afee1e1461008b5780632195aa8f146100c857806358eb2df51461010557806364a37ccc14610121575b600080fd5b34801561009757600080fd5b506100b260048036038101906100ad91906121f9565b61026e565b6040516100bf91906126ab565b60405180910390f35b3480156100d457600080fd5b506100ef60048036038101906100ea9190612222565b610677565b6040516100fc91906126ab565b60405180910390f35b61011f600480360381019061011a919061225e565b610d03565b005b34801561012d57600080fd5b50610148600480360381019061014391906121f9565b611175565b60405161015591906126ab565b60405180910390f35b34801561016a57600080fd5b50610185600480360381019061018091906121f9565b6115ee565b60405161019291906126ab565b60405180910390f35b6101b560048036038101906101b09190612222565b6119f7565b005b3480156101c357600080fd5b506101de60048036038101906101d991906122ad565b611c45565b6040516101eb91906127e9565b60405180910390f35b34801561020057600080fd5b5061021b600480360381019061021691906122ad565b611c5b565b60405161022891906127cd565b60405180910390f35b34801561023d57600080fd5b50610258600480360381019061025391906121f9565b611ebf565b60405161026591906127e9565b60405180910390f35b6060600061027c600161204a565b905060008060005b83811015610325578573ffffffffffffffffffffffffffffffffffffffff16600560006001846102b4919061284e565b815260200190815260200160002060040160009054906101000a900473ffffffffffffffffffffffffffffffffffffffff1673ffffffffffffffffffffffffffffffffffffffff1614156103125760018361030f919061284e565b92505b808061031d906129bd565b915050610284565b5060008267ffffffffffffffff811115610368577f4e487b7100000000000000000000000000000000000000000000000000000000600052604160045260246000fd5b6040519080825280602002602001820160405280156103a157816020015b61038e612130565b8152602001906001900390816103865790505b50905060005b8481101561066a578673ffffffffffffffffffffffffffffffffffffffff16600560006001846103d7919061284e565b815260200190815260200160002060040160009054906101000a900473ffffffffffffffffffffffffffffffffffffffff1673ffffffffffffffffffffffffffffffffffffffff16141561065757600060056000600184610438919061284e565b815260200190815260200160002060000154905060006005600083815260200190815260200160002090508060405180610100016040529081600082015481526020016001820160009054906101000a900473ffffffffffffffffffffffffffffffffffffffff1673ffffffffffffffffffffffffffffffffffffffff1673ffffffffffffffffffffffffffffffffffffffff168152602001600282015481526020016003820160009054906101000a900473ffffffffffffffffffffffffffffffffffffffff1673ffffffffffffffffffffffffffffffffffffffff1673ffffffffffffffffffffffffffffffffffffffff1681526020016004820160009054906101000a900473ffffffffffffffffffffffffffffffffffffffff1673ffffffffffffffffffffffffffffffffffffffff1673ffffffffffffffffffffffffffffffffffffffff1681526020016005820160009054906101000a900473ffffffffffffffffffffffffffffffffffffffff1673ffffffffffffffffffffffffffffffffffffffff1673ffffffffffffffffffffffffffffffffffffffff168152602001600682015481526020016007820160009054906101000a900460ff16151515158152505084868151811061063a577f4e487b7100000000000000000000000000000000000000000000000000000000600052603260045260246000fd5b6020026020010181905250600185610652919061284e565b945050505b8080610662906129bd565b9150506103a7565b5080945050505050919050565b606060008210156106bd576040517f08c379a00000000000000000000000000000000000000000000000000000000081526004016106b49061270d565b60405180910390fd5b60006106c9600161204a565b90506000806000600c905060005b8481101561082c57600073ffffffffffffffffffffffffffffffffffffffff1660056000600184610708919061284e565b815260200190815260200160002060040160009054906101000a900473ffffffffffffffffffffffffffffffffffffffff1673ffffffffffffffffffffffffffffffffffffffff161480156107cb57508773ffffffffffffffffffffffffffffffffffffffff1660056000600184610780919061284e565b815260200190815260200160002060050160009054906101000a900473ffffffffffffffffffffffffffffffffffffffff1673ffffffffffffffffffffffffffffffffffffffff1614155b80156108045750600560006001836107e3919061284e565b815260200190815260200160002060070160009054906101000a900460ff16155b1561081957600184610816919061284e565b93505b8080610824906129bd565b9150506106d7565b506000818461083b91906128a4565b905080871115610880576040517f08c379a00000000000000000000000000000000000000000000000000000000081526004016108779061274d565b60405180910390fd5b60008060008711156108e85760018914156108ae57868410156108a5578390506108a9565b8690505b6108e3565b6001896108bb919061292f565b846108c691906128d5565b915088846108d491906128d5565b9050868111156108e2578690505b5b6108ed565b600093505b60008467ffffffffffffffff81111561092f577f4e487b7100000000000000000000000000000000000000000000000000000000600052604160045260246000fd5b60405190808252806020026020018201604052801561096857816020015b610955612130565b81526020019060019003908161094d5790505b50905060008390505b82811015610cf15761098281612058565b600073ffffffffffffffffffffffffffffffffffffffff16600560006001846109ab919061284e565b815260200190815260200160002060040160009054906101000a900473ffffffffffffffffffffffffffffffffffffffff1673ffffffffffffffffffffffffffffffffffffffff16148015610a6e57508b73ffffffffffffffffffffffffffffffffffffffff1660056000600184610a23919061284e565b815260200190815260200160002060050160009054906101000a900473ffffffffffffffffffffffffffffffffffffffff1673ffffffffffffffffffffffffffffffffffffffff1614155b8015610aa7575060056000600183610a86919061284e565b815260200190815260200160002060070160009054906101000a900460ff16155b15610cde57600060056000600184610abf919061284e565b815260200190815260200160002060000154905060006005600083815260200190815260200160002090508060405180610100016040529081600082015481526020016001820160009054906101000a900473ffffffffffffffffffffffffffffffffffffffff1673ffffffffffffffffffffffffffffffffffffffff1673ffffffffffffffffffffffffffffffffffffffff168152602001600282015481526020016003820160009054906101000a900473ffffffffffffffffffffffffffffffffffffffff1673ffffffffffffffffffffffffffffffffffffffff1673ffffffffffffffffffffffffffffffffffffffff1681526020016004820160009054906101000a900473ffffffffffffffffffffffffffffffffffffffff1673ffffffffffffffffffffffffffffffffffffffff1673ffffffffffffffffffffffffffffffffffffffff1681526020016005820160009054906101000a900473ffffffffffffffffffffffffffffffffffffffff1673ffffffffffffffffffffffffffffffffffffffff1673ffffffffffffffffffffffffffffffffffffffff168152602001600682015481526020016007820160009054906101000a900460ff161515151581525050848a81518110610cc1577f4e487b7100000000000000000000000000000000000000000000000000000000600052603260045260246000fd5b6020026020010181905250600189610cd9919061284e565b985050505b8080610ce9906129bd565b915050610971565b50809850505050505050505092915050565b60026000541415610d49576040517f08c379a0000000000000000000000000000000000000000000000000000000008152600401610d409061278d565b60405180910390fd5b600260008190555060008111610d94576040517f08c379a0000000000000000000000000000000000000000000000000000000008152600401610d8b906127ad565b60405180910390fd5b6000610d9f82611c45565b9050803414610de3576040517f08c379a0000000000000000000000000000000000000000000000000000000008152600401610dda9061276d565b60405180910390fd5b6000600460009054906101000a900473ffffffffffffffffffffffffffffffffffffffff1673ffffffffffffffffffffffffffffffffffffffff166108fc839081150290604051600060405180830381858888f19350505050905080610e7e576040517f08c379a0000000000000000000000000000000000000000000000000000000008152600401610e75906126ed565b60405180910390fd5b610e8860016120f1565b6000610e94600161204a565b90506040518061010001604052808281526020018773ffffffffffffffffffffffffffffffffffffffff1681526020018681526020013373ffffffffffffffffffffffffffffffffffffffff168152602001600073ffffffffffffffffffffffffffffffffffffffff1681526020013373ffffffffffffffffffffffffffffffffffffffff16815260200185815260200160001515815250600560008381526020019081526020016000206000820151816000015560208201518160010160006101000a81548173ffffffffffffffffffffffffffffffffffffffff021916908373ffffffffffffffffffffffffffffffffffffffff1602179055506040820151816002015560608201518160030160006101000a81548173ffffffffffffffffffffffffffffffffffffffff021916908373ffffffffffffffffffffffffffffffffffffffff16021790555060808201518160040160006101000a81548173ffffffffffffffffffffffffffffffffffffffff021916908373ffffffffffffffffffffffffffffffffffffffff16021790555060a08201518160050160006101000a81548173ffffffffffffffffffffffffffffffffffffffff021916908373ffffffffffffffffffffffffffffffffffffffff16021790555060c0820151816006015560e08201518160070160006101000a81548160ff0219169083151502179055509050508573ffffffffffffffffffffffffffffffffffffffff166323b872dd3330886040518463ffffffff1660e01b81526004016110d993929190612674565b600060405180830381600087803b1580156110f357600080fd5b505af1158015611107573d6000803e3d6000fd5b50505050848673ffffffffffffffffffffffffffffffffffffffff16827ff6a6e998cdb71a54614f951c87c07828d557c9d2d501f61d4183e344a06445c5336000338a600060405161115d959493929190612621565b60405180910390a45050506001600081905550505050565b60606000611183600161204a565b905060008060005b83811015611264578573ffffffffffffffffffffffffffffffffffffffff16600560006001846111bb919061284e565b815260200190815260200160002060050160009054906101000a900473ffffffffffffffffffffffffffffffffffffffff1673ffffffffffffffffffffffffffffffffffffffff1614801561123c57506005600060018361121c919061284e565b815260200190815260200160002060070160009054906101000a900460ff165b156112515760018361124e919061284e565b92505b808061125c906129bd565b91505061118b565b5060008267ffffffffffffffff8111156112a7577f4e487b7100000000000000000000000000000000000000000000000000000000600052604160045260246000fd5b6040519080825280602002602001820160405280156112e057816020015b6112cd612130565b8152602001906001900390816112c55790505b50905060005b848110156115e1578673ffffffffffffffffffffffffffffffffffffffff1660056000600184611316919061284e565b815260200190815260200160002060050160009054906101000a900473ffffffffffffffffffffffffffffffffffffffff1673ffffffffffffffffffffffffffffffffffffffff16148015611397575060056000600183611377919061284e565b815260200190815260200160002060070160009054906101000a900460ff165b156115ce576000600560006001846113af919061284e565b815260200190815260200160002060000154905060006005600083815260200190815260200160002090508060405180610100016040529081600082015481526020016001820160009054906101000a900473ffffffffffffffffffffffffffffffffffffffff1673ffffffffffffffffffffffffffffffffffffffff1673ffffffffffffffffffffffffffffffffffffffff168152602001600282015481526020016003820160009054906101000a900473ffffffffffffffffffffffffffffffffffffffff1673ffffffffffffffffffffffffffffffffffffffff1673ffffffffffffffffffffffffffffffffffffffff1681526020016004820160009054906101000a900473ffffffffffffffffffffffffffffffffffffffff1673ffffffffffffffffffffffffffffffffffffffff1673ffffffffffffffffffffffffffffffffffffffff1681526020016005820160009054906101000a900473ffffffffffffffffffffffffffffffffffffffff1673ffffffffffffffffffffffffffffffffffffffff1673ffffffffffffffffffffffffffffffffffffffff168152602001600682015481526020016007820160009054906101000a900460ff1615151515815250508486815181106115b1577f4e487b7100000000000000000000000000000000000000000000000000000000600052603260045260246000fd5b60200260200101819052506001856115c9919061284e565b945050505b80806115d9906129bd565b9150506112e6565b5080945050505050919050565b606060006115fc600161204a565b905060008060005b838110156116a5578573ffffffffffffffffffffffffffffffffffffffff1660056000600184611634919061284e565b815260200190815260200160002060050160009054906101000a900473ffffffffffffffffffffffffffffffffffffffff1673ffffffffffffffffffffffffffffffffffffffff1614156116925760018361168f919061284e565b92505b808061169d906129bd565b915050611604565b5060008267ffffffffffffffff8111156116e8577f4e487b7100000000000000000000000000000000000000000000000000000000600052604160045260246000fd5b60405190808252806020026020018201604052801561172157816020015b61170e612130565b8152602001906001900390816117065790505b50905060005b848110156119ea578673ffffffffffffffffffffffffffffffffffffffff1660056000600184611757919061284e565b815260200190815260200160002060050160009054906101000a900473ffffffffffffffffffffffffffffffffffffffff1673ffffffffffffffffffffffffffffffffffffffff1614156119d7576000600560006001846117b8919061284e565b815260200190815260200160002060000154905060006005600083815260200190815260200160002090508060405180610100016040529081600082015481526020016001820160009054906101000a900473ffffffffffffffffffffffffffffffffffffffff1673ffffffffffffffffffffffffffffffffffffffff1673ffffffffffffffffffffffffffffffffffffffff168152602001600282015481526020016003820160009054906101000a900473ffffffffffffffffffffffffffffffffffffffff1673ffffffffffffffffffffffffffffffffffffffff1673ffffffffffffffffffffffffffffffffffffffff1681526020016004820160009054906101000a900473ffffffffffffffffffffffffffffffffffffffff1673ffffffffffffffffffffffffffffffffffffffff1673ffffffffffffffffffffffffffffffffffffffff1681526020016005820160009054906101000a900473ffffffffffffffffffffffffffffffffffffffff1673ffffffffffffffffffffffffffffffffffffffff1673ffffffffffffffffffffffffffffffffffffffff168152602001600682015481526020016007820160009054906101000a900460ff1615151515815250508486815181106119ba577f4e487b7100000000000000000000000000000000000000000000000000000000600052603260045260246000fd5b60200260200101819052506001856119d2919061284e565b945050505b80806119e2906129bd565b915050611727565b5080945050505050919050565b60026000541415611a3d576040517f08c379a0000000000000000000000000000000000000000000000000000000008152600401611a349061278d565b60405180910390fd5b6002600081905550600060056000838152602001908152602001600020600601549050600060056000848152602001908152602001600020600201549050813414611abd576040517f08c379a0000000000000000000000000000000000000000000000000000000008152600401611ab49061272d565b60405180910390fd5b6005600084815260200190815260200160002060030160009054906101000a900473ffffffffffffffffffffffffffffffffffffffff1673ffffffffffffffffffffffffffffffffffffffff166108fc349081150290604051600060405180830381858888f19350505050158015611b39573d6000803e3d6000fd5b508373ffffffffffffffffffffffffffffffffffffffff166323b872dd3033846040518463ffffffff1660e01b8152600401611b7793929190612674565b600060405180830381600087803b158015611b9157600080fd5b505af1158015611ba5573d6000803e3d6000fd5b50505050336005600085815260200190815260200160002060040160006101000a81548173ffffffffffffffffffffffffffffffffffffffff021916908373ffffffffffffffffffffffffffffffffffffffff16021790555060016005600085815260200190815260200160002060070160006101000a81548160ff021916908315150217905550611c3760026120f1565b505060016000819055505050565b6000606482611c5491906128a4565b9050919050565b611c63612130565b6000611c6f600161204a565b905060005b81811015611e7e578360056000600184611c8e919061284e565b8152602001908152602001600020600001541415611e6b5760056000600183611cb7919061284e565b815260200190815260200160002060405180610100016040529081600082015481526020016001820160009054906101000a900473ffffffffffffffffffffffffffffffffffffffff1673ffffffffffffffffffffffffffffffffffffffff1673ffffffffffffffffffffffffffffffffffffffff168152602001600282015481526020016003820160009054906101000a900473ffffffffffffffffffffffffffffffffffffffff1673ffffffffffffffffffffffffffffffffffffffff1673ffffffffffffffffffffffffffffffffffffffff1681526020016004820160009054906101000a900473ffffffffffffffffffffffffffffffffffffffff1673ffffffffffffffffffffffffffffffffffffffff1673ffffffffffffffffffffffffffffffffffffffff1681526020016005820160009054906101000a900473ffffffffffffffffffffffffffffffffffffffff1673ffffffffffffffffffffffffffffffffffffffff1673ffffffffffffffffffffffffffffffffffffffff168152602001600682015481526020016007820160009054906101000a900460ff16151515158152505092505050611eba565b8080611e76906129bd565b915050611c74565b506040517f08c379a0000000000000000000000000000000000000000000000000000000008152600401611eb1906126cd565b60405180910390fd5b919050565b600080611ecc600161204a565b9050600080600c905060005b8381101561202d57600073ffffffffffffffffffffffffffffffffffffffff1660056000600184611f09919061284e565b815260200190815260200160002060040160009054906101000a900473ffffffffffffffffffffffffffffffffffffffff1673ffffffffffffffffffffffffffffffffffffffff16148015611fcc57508573ffffffffffffffffffffffffffffffffffffffff1660056000600184611f81919061284e565b815260200190815260200160002060050160009054906101000a900473ffffffffffffffffffffffffffffffffffffffff1673ffffffffffffffffffffffffffffffffffffffff1614155b8015612005575060056000600183611fe4919061284e565b815260200190815260200160002060070160009054906101000a900460ff16155b1561201a57600183612017919061284e565b92505b8080612025906129bd565b915050611ed8565b506000818361203c91906128a4565b905080945050505050919050565b600081600001549050919050565b6120ee8160405160240161206c91906127e9565b6040516020818303038152906040527ff5b1bba9000000000000000000000000000000000000000000000000000000007bffffffffffffffffffffffffffffffffffffffffffffffffffffffff19166020820180517bffffffffffffffffffffffffffffffffffffffffffffffffffffffff8381831617835250505050612107565b50565b6001816000016000828254019250508190555050565b60008151905060006a636f6e736f6c652e6c6f679050602083016000808483855afa5050505050565b60405180610100016040528060008152602001600073ffffffffffffffffffffffffffffffffffffffff16815260200160008152602001600073ffffffffffffffffffffffffffffffffffffffff168152602001600073ffffffffffffffffffffffffffffffffffffffff168152602001600073ffffffffffffffffffffffffffffffffffffffff168152602001600081526020016000151581525090565b6000813590506121de81612bf8565b92915050565b6000813590506121f381612c0f565b92915050565b60006020828403121561220b57600080fd5b6000612219848285016121cf565b91505092915050565b6000806040838503121561223557600080fd5b6000612243858286016121cf565b9250506020612254858286016121e4565b9150509250929050565b60008060006060848603121561227357600080fd5b6000612281868287016121cf565b9350506020612292868287016121e4565b92505060406122a3868287016121e4565b9150509250925092565b6000602082840312156122bf57600080fd5b60006122cd848285016121e4565b91505092915050565b60006122e283836124bf565b6101008301905092915050565b6122f881612975565b82525050565b61230781612975565b82525050565b61231681612963565b82525050565b61232581612963565b82525050565b600061233682612814565b612340818561282c565b935061234b83612804565b8060005b8381101561237c57815161236388826122d6565b975061236e8361281f565b92505060018101905061234f565b5085935050505092915050565b61239281612987565b82525050565b6123a181612987565b82525050565b60006123b460098361283d565b91506123bf82612a64565b602082019050919050565b60006123d760148361283d565b91506123e282612a8d565b602082019050919050565b60006123fa600c8361283d565b915061240582612ab6565b602082019050919050565b600061241d60408361283d565b915061242882612adf565b604082019050919050565b6000612440600c8361283d565b915061244b82612b2e565b602082019050919050565b600061246360248361283d565b915061246e82612b57565b604082019050919050565b6000612486601f8361283d565b915061249182612ba6565b602082019050919050565b60006124a9601c8361283d565b91506124b482612bcf565b602082019050919050565b610100820160008201516124d66000850182612603565b5060208201516124e9602085018261230d565b5060408201516124fc6040850182612603565b50606082015161250f60608501826122ef565b50608082015161252260808501826122ef565b5060a082015161253560a085018261230d565b5060c082015161254860c0850182612603565b5060e082015161255b60e0850182612389565b50505050565b610100820160008201516125786000850182612603565b50602082015161258b602085018261230d565b50604082015161259e6040850182612603565b5060608201516125b160608501826122ef565b5060808201516125c460808501826122ef565b5060a08201516125d760a085018261230d565b5060c08201516125ea60c0850182612603565b5060e08201516125fd60e0850182612389565b50505050565b61260c816129b3565b82525050565b61261b816129b3565b82525050565b600060a08201905061263660008301886122fe565b61264360208301876122fe565b612650604083018661231c565b61265d6060830185612612565b61266a6080830184612398565b9695505050505050565b6000606082019050612689600083018661231c565b612696602083018561231c565b6126a36040830184612612565b949350505050565b600060208201905081810360008301526126c5818461232b565b905092915050565b600060208201905081810360008301526126e6816123a7565b9050919050565b60006020820190508181036000830152612706816123ca565b9050919050565b60006020820190508181036000830152612726816123ed565b9050919050565b6000602082019050818103600083015261274681612410565b9050919050565b6000602082019050818103600083015261276681612433565b9050919050565b6000602082019050818103600083015261278681612456565b9050919050565b600060208201905081810360008301526127a681612479565b9050919050565b600060208201905081810360008301526127c68161249c565b9050919050565b6000610100820190506127e36000830184612561565b92915050565b60006020820190506127fe6000830184612612565b92915050565b6000819050602082019050919050565b600081519050919050565b6000602082019050919050565b600082825260208201905092915050565b600082825260208201905092915050565b6000612859826129b3565b9150612864836129b3565b9250827fffffffffffffffffffffffffffffffffffffffffffffffffffffffffffffffff0382111561289957612898612a06565b5b828201905092915050565b60006128af826129b3565b91506128ba836129b3565b9250826128ca576128c9612a35565b5b828204905092915050565b60006128e0826129b3565b91506128eb836129b3565b9250817fffffffffffffffffffffffffffffffffffffffffffffffffffffffffffffffff048311821515161561292457612923612a06565b5b828202905092915050565b600061293a826129b3565b9150612945836129b3565b92508282101561295857612957612a06565b5b828203905092915050565b600061296e82612993565b9050919050565b600061298082612993565b9050919050565b60008115159050919050565b600073ffffffffffffffffffffffffffffffffffffffff82169050919050565b6000819050919050565b60006129c8826129b3565b91507fffffffffffffffffffffffffffffffffffffffffffffffffffffffffffffffff8214156129fb576129fa612a06565b5b600182019050919050565b7f4e487b7100000000000000000000000000000000000000000000000000000000600052601160045260246000fd5b7f4e487b7100000000000000000000000000000000000000000000000000000000600052601260045260246000fd5b7f4e6f7420666f756e640000000000000000000000000000000000000000000000600082015250565b7f4661696c656420746f2073656e64204574686572000000000000000000000000600082015250565b7f496e76616c696420706167650000000000000000000000000000000000000000600082015250565b7f506c65617365207375626d6974207468652061736b696e67207072696365206960008201527f6e206f7264657220746f20636f6d706c65746520746865207075726368617365602082015250565b7f496e76616c696420506167650000000000000000000000000000000000000000600082015250565b7f5072696365206d75737420626520657175616c20746f206c697374696e67207060008201527f7269636500000000000000000000000000000000000000000000000000000000602082015250565b7f5265656e7472616e637947756172643a207265656e7472616e742063616c6c00600082015250565b7f5072696365206d757374206265206174206c6561737420312077656900000000600082015250565b612c0181612963565b8114612c0c57600080fd5b50565b612c18816129b3565b8114612c2357600080fd5b5056fea264697066735822122067404e81fb24ee6ab54922b6253c7e90ae57c6b5488aa78d4ebee216da87615f64736f6c63430008040033",
  "linkReferences": {},
  "deployedLinkReferences": {}
}